{
  "abi": [
    {
      "inputs": [],
      "stateMutability": "nonpayable",
      "type": "constructor"
    },
    {
      "anonymous": false,
      "inputs": [
        {
          "indexed": true,
          "internalType": "address",
          "name": "owner",
          "type": "address"
        },
        {
          "indexed": true,
          "internalType": "address",
          "name": "spender",
          "type": "address"
        },
        {
          "indexed": false,
          "internalType": "uint256",
          "name": "value",
          "type": "uint256"
        }
      ],
      "name": "Approval",
      "type": "event"
    },
    {
      "anonymous": false,
      "inputs": [
        {
          "indexed": true,
          "internalType": "address",
          "name": "previousOwner",
          "type": "address"
        },
        {
          "indexed": true,
          "internalType": "address",
          "name": "newOwner",
          "type": "address"
        }
      ],
      "name": "OwnershipTransferred",
      "type": "event"
    },
    {
      "anonymous": false,
      "inputs": [
        {
          "indexed": true,
          "internalType": "address",
          "name": "from",
          "type": "address"
        },
        {
          "indexed": true,
          "internalType": "address",
          "name": "to",
          "type": "address"
        },
        {
          "indexed": false,
          "internalType": "uint256",
          "name": "value",
          "type": "uint256"
        }
      ],
      "name": "Transfer",
      "type": "event"
    },
    {
      "anonymous": false,
      "inputs": [
        {
          "indexed": true,
          "internalType": "address",
          "name": "from",
          "type": "address"
        },
        {
          "indexed": false,
          "internalType": "uint256",
          "name": "amount",
          "type": "uint256"
        },
        {
          "indexed": false,
          "internalType": "uint256",
          "name": "exchange",
          "type": "uint256"
        }
      ],
      "name": "newDeposit",
      "type": "event"
    },
    {
      "anonymous": false,
      "inputs": [
        {
          "indexed": true,
          "internalType": "address",
          "name": "from",
          "type": "address"
        },
        {
          "indexed": false,
          "internalType": "uint256",
          "name": "amount",
          "type": "uint256"
        },
        {
          "indexed": false,
          "internalType": "uint256",
          "name": "exchange",
          "type": "uint256"
        }
      ],
      "name": "newRedeem",
      "type": "event"
    },
    {
      "anonymous": false,
      "inputs": [
        {
          "indexed": false,
          "internalType": "address",
          "name": "from",
          "type": "address"
        },
        {
          "indexed": false,
          "internalType": "address",
          "name": "to",
          "type": "address"
        },
        {
          "indexed": false,
          "internalType": "uint256",
          "name": "amount",
          "type": "uint256"
        },
        {
          "indexed": false,
          "internalType": "uint256",
          "name": "time",
          "type": "uint256"
        }
      ],
      "name": "withdrawn",
      "type": "event"
    },
    {
      "inputs": [
        {
          "internalType": "address",
          "name": "owner",
          "type": "address"
        },
        {
          "internalType": "address",
          "name": "spender",
          "type": "address"
        }
      ],
      "name": "allowance",
      "outputs": [
        {
          "internalType": "uint256",
          "name": "",
          "type": "uint256"
        }
      ],
      "stateMutability": "view",
      "type": "function"
    },
    {
      "inputs": [
        {
          "internalType": "address",
          "name": "spender",
          "type": "address"
        },
        {
          "internalType": "uint256",
          "name": "amount",
          "type": "uint256"
        }
      ],
      "name": "approve",
      "outputs": [
        {
          "internalType": "bool",
          "name": "",
          "type": "bool"
        }
      ],
      "stateMutability": "nonpayable",
      "type": "function"
    },
    {
      "inputs": [
        {
          "internalType": "address",
          "name": "account",
          "type": "address"
        }
      ],
      "name": "balanceOf",
      "outputs": [
        {
          "internalType": "uint256",
          "name": "",
          "type": "uint256"
        }
      ],
      "stateMutability": "view",
      "type": "function"
    },
    {
      "inputs": [
        {
          "internalType": "uint256",
          "name": "_amount",
          "type": "uint256"
        }
      ],
      "name": "calculatePriceForSale",
      "outputs": [
        {
          "internalType": "uint256",
          "name": "RedeemedAmount",
          "type": "uint256"
        },
        {
          "internalType": "uint256",
          "name": "Tax",
          "type": "uint256"
        }
      ],
      "stateMutability": "view",
      "type": "function"
    },
    {
      "inputs": [],
      "name": "decimals",
      "outputs": [
        {
          "internalType": "uint8",
          "name": "",
          "type": "uint8"
        }
      ],
      "stateMutability": "view",
      "type": "function"
    },
    {
      "inputs": [
        {
          "internalType": "address",
          "name": "spender",
          "type": "address"
        },
        {
          "internalType": "uint256",
          "name": "subtractedValue",
          "type": "uint256"
        }
      ],
      "name": "decreaseAllowance",
      "outputs": [
        {
          "internalType": "bool",
          "name": "",
          "type": "bool"
        }
      ],
      "stateMutability": "nonpayable",
      "type": "function"
    },
    {
      "inputs": [
        {
          "internalType": "uint256",
          "name": "_amount",
          "type": "uint256"
        }
      ],
      "name": "depositCollateral",
      "outputs": [],
      "stateMutability": "payable",
      "type": "function"
    },
    {
      "inputs": [
        {
          "internalType": "uint256",
          "name": "_amount",
          "type": "uint256"
        }
      ],
      "name": "getExchangeRate",
      "outputs": [
        {
          "internalType": "uint256",
          "name": "",
          "type": "uint256"
        }
      ],
      "stateMutability": "view",
      "type": "function"
    },
    {
      "inputs": [],
      "name": "getUsdExchangeRate",
      "outputs": [
        {
          "internalType": "uint256",
          "name": "",
          "type": "uint256"
        }
      ],
      "stateMutability": "view",
      "type": "function"
    },
    {
      "inputs": [
        {
          "internalType": "address",
          "name": "spender",
          "type": "address"
        },
        {
          "internalType": "uint256",
          "name": "addedValue",
          "type": "uint256"
        }
      ],
      "name": "increaseAllowance",
      "outputs": [
        {
          "internalType": "bool",
          "name": "",
          "type": "bool"
        }
      ],
      "stateMutability": "nonpayable",
      "type": "function"
    },
    {
      "inputs": [],
      "name": "name",
      "outputs": [
        {
          "internalType": "string",
          "name": "",
          "type": "string"
        }
      ],
      "stateMutability": "view",
      "type": "function"
    },
    {
      "inputs": [],
      "name": "owner",
      "outputs": [
        {
          "internalType": "address",
          "name": "",
          "type": "address"
        }
      ],
      "stateMutability": "view",
      "type": "function"
    },
    {
      "inputs": [],
      "name": "priceFeed",
      "outputs": [
        {
          "internalType": "contract DataFeedSepolia",
          "name": "",
          "type": "address"
        }
      ],
      "stateMutability": "view",
      "type": "function"
    },
    {
      "inputs": [],
      "name": "ratio",
      "outputs": [
        {
          "internalType": "uint8",
          "name": "",
          "type": "uint8"
        }
      ],
      "stateMutability": "view",
      "type": "function"
    },
    {
      "inputs": [],
      "name": "renounceOwnership",
      "outputs": [],
      "stateMutability": "nonpayable",
      "type": "function"
    },
    {
      "inputs": [],
      "name": "supplyCap",
      "outputs": [
        {
          "internalType": "uint256",
          "name": "",
          "type": "uint256"
        }
      ],
      "stateMutability": "view",
      "type": "function"
    },
    {
      "inputs": [],
      "name": "symbol",
      "outputs": [
        {
          "internalType": "string",
          "name": "",
          "type": "string"
        }
      ],
      "stateMutability": "view",
      "type": "function"
    },
    {
      "inputs": [],
      "name": "tax",
      "outputs": [
        {
          "internalType": "uint8",
          "name": "",
          "type": "uint8"
        }
      ],
      "stateMutability": "view",
      "type": "function"
    },
    {
      "inputs": [],
      "name": "totalSupply",
      "outputs": [
        {
          "internalType": "uint256",
          "name": "",
          "type": "uint256"
        }
      ],
      "stateMutability": "view",
      "type": "function"
    },
    {
      "inputs": [
        {
          "internalType": "address",
          "name": "to",
          "type": "address"
        },
        {
          "internalType": "uint256",
          "name": "amount",
          "type": "uint256"
        }
      ],
      "name": "transfer",
      "outputs": [
        {
          "internalType": "bool",
          "name": "",
          "type": "bool"
        }
      ],
      "stateMutability": "nonpayable",
      "type": "function"
    },
    {
      "inputs": [
        {
          "internalType": "address",
          "name": "from",
          "type": "address"
        },
        {
          "internalType": "address",
          "name": "to",
          "type": "address"
        },
        {
          "internalType": "uint256",
          "name": "amount",
          "type": "uint256"
        }
      ],
      "name": "transferFrom",
      "outputs": [
        {
          "internalType": "bool",
          "name": "",
          "type": "bool"
        }
      ],
      "stateMutability": "nonpayable",
      "type": "function"
    },
    {
      "inputs": [
        {
          "internalType": "address",
          "name": "newOwner",
          "type": "address"
        }
      ],
      "name": "transferOwnership",
      "outputs": [],
      "stateMutability": "nonpayable",
      "type": "function"
    },
    {
      "inputs": [],
      "name": "viewTax",
      "outputs": [
        {
          "internalType": "uint256",
          "name": "",
          "type": "uint256"
        }
      ],
      "stateMutability": "view",
      "type": "function"
    },
    {
      "inputs": [
        {
          "internalType": "uint256",
          "name": "_amount",
          "type": "uint256"
        }
      ],
      "name": "withdrawCollateral",
      "outputs": [],
      "stateMutability": "nonpayable",
      "type": "function"
    },
    {
      "inputs": [],
      "name": "withdrawTax",
      "outputs": [],
      "stateMutability": "nonpayable",
      "type": "function"
    }
  ],
  "bytecode": {
    "object": "0x60806040523480156200001157600080fd5b50604051806040016040528060048152602001632732b7b760e11b815250604051806040016040528060038152602001624e454f60e81b81525081600390816200005c919062000206565b5060046200006b828262000206565b5050506200008862000082620000fd60201b60201c565b62000101565b604051620000969062000153565b604051809103906000f080158015620000b3573d6000803e3d6000fd5b50600680546001600160a01b0319166001600160a01b03929092169190911790556005805461ffff60a01b191661010160a01b17905569d3c21bcecceda1000000600855620002d2565b3390565b600580546001600160a01b038381166001600160a01b0319831681179093556040519116919082907f8be0079c531659141344cd1fd0a4f28419497f9722a3daafe3b4186f6b6457e090600090a35050565b610237806200199083390190565b634e487b7160e01b600052604160045260246000fd5b600181811c908216806200018c57607f821691505b602082108103620001ad57634e487b7160e01b600052602260045260246000fd5b50919050565b601f8211156200020157600081815260208120601f850160051c81016020861015620001dc5750805b601f850160051c820191505b81811015620001fd57828155600101620001e8565b5050505b505050565b81516001600160401b0381111562000222576200022262000161565b6200023a8162000233845462000177565b84620001b3565b602080601f831160018114620002725760008415620002595750858301515b600019600386901b1c1916600185901b178555620001fd565b600085815260208120601f198616915b82811015620002a35788860151825594840194600190910190840162000282565b5085821015620002c25787850151600019600388901b60f8161c191681555b5050505050600190811b01905550565b6116ae80620002e26000396000f3fe6080604052600436106101665760003560e01c806371ca337d116100d1578063a457c2d71161008a578063dd62ed3e11610064578063dd62ed3e14610414578063dfa20f0a14610434578063e1dee0d714610449578063f2fde38b1461047e57600080fd5b8063a457c2d7146103c1578063a9059cbb146103e1578063bad4a01f1461040157600080fd5b806371ca337d146102fe578063741bef1a1461031f5780638da5cb5b146103575780638f770ad01461037557806395d89b411461038b57806399c8d556146103a057600080fd5b80633950935111610123578063395093511461023c5780633e1dea631461025c5780636112fe2e1461027157806362aaf0891461029357806370a08231146102b3578063715018a6146102e957600080fd5b806306fdde031461016b578063095ea7b31461019657806318160ddd146101c657806323b872dd146101e557806323da140e14610205578063313ce5671461021a575b600080fd5b34801561017757600080fd5b5061018061049e565b60405161018d9190611479565b60405180910390f35b3480156101a257600080fd5b506101b66101b13660046114e3565b610530565b604051901515815260200161018d565b3480156101d257600080fd5b506002545b60405190815260200161018d565b3480156101f157600080fd5b506101b661020036600461150d565b61054a565b34801561021157600080fd5b506101d761056e565b34801561022657600080fd5b5060125b60405160ff909116815260200161018d565b34801561024857600080fd5b506101b66102573660046114e3565b6105e1565b34801561026857600080fd5b506101d7610603565b34801561027d57600080fd5b5061029161028c366004611549565b610614565b005b34801561029f57600080fd5b506101d76102ae366004611549565b610858565b3480156102bf57600080fd5b506101d76102ce366004611562565b6001600160a01b031660009081526020819052604090205490565b3480156102f557600080fd5b506102916108f8565b34801561030a57600080fd5b5060055461022a90600160a01b900460ff1681565b34801561032b57600080fd5b5060065461033f906001600160a01b031681565b6040516001600160a01b03909116815260200161018d565b34801561036357600080fd5b506005546001600160a01b031661033f565b34801561038157600080fd5b506101d760085481565b34801561039757600080fd5b5061018061090c565b3480156103ac57600080fd5b5060055461022a90600160a81b900460ff1681565b3480156103cd57600080fd5b506101b66103dc3660046114e3565b61091b565b3480156103ed57600080fd5b506101b66103fc3660046114e3565b610996565b61029161040f366004611549565b6109a4565b34801561042057600080fd5b506101d761042f36600461157d565b610b71565b34801561044057600080fd5b50610291610b9c565b34801561045557600080fd5b50610469610464366004611549565b610cd9565b6040805192835260208301919091520161018d565b34801561048a57600080fd5b50610291610499366004611562565b610dd5565b6060600380546104ad906115b0565b80601f01602080910402602001604051908101604052809291908181526020018280546104d9906115b0565b80156105265780601f106104fb57610100808354040283529160200191610526565b820191906000526020600020905b81548152906001019060200180831161050957829003601f168201915b5050505050905090565b60003361053e818585610e4e565b60019150505b92915050565b600033610558858285610f73565b610563858585610fed565b506001949350505050565b60065460408051638e15f47360e01b815290516000926001600160a01b031691638e15f4739160048083019260209291908290030181865afa1580156105b8573d6000803e3d6000fd5b505050506040513d601f19601f820116820180604052508101906105dc91906115ea565b905090565b60003361053e8185856105f48383610b71565b6105fe9190611619565b610e4e565b600061060d611191565b5060075490565b600081116106695760405162461bcd60e51b815260206004820152601d60248201527f416d6f756e74206d7573742062652067726561746572207468616e203000000060448201526064015b60405180910390fd5b336000908152602081905260409020548111156106c85760405162461bcd60e51b815260206004820152601d60248201527f416d6f756e74206d7573742062652067726561746572207468616e20300000006044820152606401610660565b60065460408051638e15f47360e01b815290516000926001600160a01b031691638e15f4739160048083019260209291908290030181865afa158015610712573d6000803e3d6000fd5b505050506040513d601f19601f8201168201806040525081019061073691906115ea565b905060008061074584846111eb565b91509150806007600082825461075b9190611619565b9091555061077c90503361077786670de0b6b3a764000061162c565b611229565b604080518581526020810185905233917e6400e4cce37e94263a48bf88cb80ead64c00f44276315c0c4a98d73ed06a10910160405180910390a26000336001600160a01b0316836040515b60006040518083038185875af1925050503d8060008114610804576040519150601f19603f3d011682016040523d82523d6000602084013e610809565b606091505b50509050806108515760405162461bcd60e51b81526020600482015260146024820152732330b4b632b2103a379039b2b7321022ba3432b960611b6044820152606401610660565b5050505050565b600080600660009054906101000a90046001600160a01b03166001600160a01b0316638e15f4736040518163ffffffff1660e01b8152600401602060405180830381865afa1580156108ae573d6000803e3d6000fd5b505050506040513d601f19601f820116820180604052508101906108d291906115ea565b9050806108e784670de0b6b3a764000061162c565b6108f19190611643565b9392505050565b610900611191565b61090a6000611353565b565b6060600480546104ad906115b0565b600033816109298286610b71565b9050838110156109895760405162461bcd60e51b815260206004820152602560248201527f45524332303a2064656372656173656420616c6c6f77616e63652062656c6f77604482015264207a65726f60d81b6064820152608401610660565b6105638286868403610e4e565b60003361053e818585610fed565b600554600090600160a01b900460ff166109c683670de0b6b3a764000061162c565b6109d0919061162c565b90506000821180156109e457506008548111155b610a565760405162461bcd60e51b815260206004820152603e60248201527f416d6f756e74206d7573742062652067726561746572207468616e203020616e60448201527f64206c6f77657220616e6420657175616c20746f20737570706c7943617000006064820152608401610660565b60065460408051638e15f47360e01b815290516000926001600160a01b031691638e15f4739160048083019260209291908290030181865afa158015610aa0573d6000803e3d6000fd5b505050506040513d601f19601f82011682018060405250810190610ac491906115ea565b90506000610ad284836113a5565b905034811115610b175760405162461bcd60e51b815260206004820152601060248201526f0acc2d8eaca40dcdee840cadcdeeaced60831b6044820152606401610660565b610b2133846113ba565b604080518581526020810184905233917f45751137d6df48fc3f75b9888b77c9d8f4689c5baafe29811a9a86e43706aecf910160405180910390a2600033610b698334611665565b6040516107c7565b6001600160a01b03918216600090815260016020908152604080832093909416825291909152205490565b610ba4611191565b600060075411610bf65760405162461bcd60e51b815260206004820152601a60248201527f746178206d7573742062652067726561746572207468616e20300000000000006044820152606401610660565b60078054600091829055604051909190339083908381818185875af1925050503d8060008114610c42576040519150601f19603f3d011682016040523d82523d6000602084013e610c47565b606091505b5050905080610c8f5760405162461bcd60e51b81526020600482015260146024820152732330b4b632b2103a379039b2b7321022ba3432b960611b6044820152606401610660565b604080513081523360208201529081018390524260608201527f3acaa4293506badc3b029f94990e48c03c6112c2b5c4ce7c0836f974173060a89060800160405180910390a15050565b60055460009081908190600160a01b900460ff16610cff85670de0b6b3a764000061162c565b610d099190611643565b90506000600660009054906101000a90046001600160a01b03166001600160a01b0316638e15f4736040518163ffffffff1660e01b8152600401602060405180830381865afa158015610d60573d6000803e3d6000fd5b505050506040513d601f19601f82011682018060405250810190610d8491906115ea565b90506000610d928284611643565b600554909150600090606490610db3908490600160a81b900460ff1661162c565b610dbd9190611643565b9050610dc98183611665565b97909650945050505050565b610ddd611191565b6001600160a01b038116610e425760405162461bcd60e51b815260206004820152602660248201527f4f776e61626c653a206e6577206f776e657220697320746865207a65726f206160448201526564647265737360d01b6064820152608401610660565b610e4b81611353565b50565b6001600160a01b038316610eb05760405162461bcd60e51b8152602060048201526024808201527f45524332303a20617070726f76652066726f6d20746865207a65726f206164646044820152637265737360e01b6064820152608401610660565b6001600160a01b038216610f115760405162461bcd60e51b815260206004820152602260248201527f45524332303a20617070726f766520746f20746865207a65726f206164647265604482015261737360f01b6064820152608401610660565b6001600160a01b0383811660008181526001602090815260408083209487168084529482529182902085905590518481527f8c5be1e5ebec7d5bd14f71427d1e84f3dd0314c0f7b2291e5b200ac8c7c3b92591015b60405180910390a3505050565b6000610f7f8484610b71565b90506000198114610fe75781811015610fda5760405162461bcd60e51b815260206004820152601d60248201527f45524332303a20696e73756666696369656e7420616c6c6f77616e63650000006044820152606401610660565b610fe78484848403610e4e565b50505050565b6001600160a01b0383166110515760405162461bcd60e51b815260206004820152602560248201527f45524332303a207472616e736665722066726f6d20746865207a65726f206164604482015264647265737360d81b6064820152608401610660565b6001600160a01b0382166110b35760405162461bcd60e51b815260206004820152602360248201527f45524332303a207472616e7366657220746f20746865207a65726f206164647260448201526265737360e81b6064820152608401610660565b6001600160a01b0383166000908152602081905260409020548181101561112b5760405162461bcd60e51b815260206004820152602660248201527f45524332303a207472616e7366657220616d6f756e7420657863656564732062604482015265616c616e636560d01b6064820152608401610660565b6001600160a01b03848116600081815260208181526040808320878703905593871680835291849020805487019055925185815290927fddf252ad1be2c89b69c2b068fc378daa952ba7f163c4a11628f55a4df523b3ef910160405180910390a3610fe7565b6005546001600160a01b0316331461090a5760405162461bcd60e51b815260206004820181905260248201527f4f776e61626c653a2063616c6c6572206973206e6f7420746865206f776e65726044820152606401610660565b60055460009081908190600160a01b900460ff1661121186670de0b6b3a764000061162c565b61121b9190611643565b90506000610d928583611643565b6001600160a01b0382166112895760405162461bcd60e51b815260206004820152602160248201527f45524332303a206275726e2066726f6d20746865207a65726f206164647265736044820152607360f81b6064820152608401610660565b6001600160a01b038216600090815260208190526040902054818110156112fd5760405162461bcd60e51b815260206004820152602260248201527f45524332303a206275726e20616d6f756e7420657863656564732062616c616e604482015261636560f01b6064820152608401610660565b6001600160a01b0383166000818152602081815260408083208686039055600280548790039055518581529192917fddf252ad1be2c89b69c2b068fc378daa952ba7f163c4a11628f55a4df523b3ef9101610f66565b600580546001600160a01b038381166001600160a01b0319831681179093556040519116919082907f8be0079c531659141344cd1fd0a4f28419497f9722a3daafe3b4186f6b6457e090600090a35050565b6000816108e784670de0b6b3a764000061162c565b6001600160a01b0382166114105760405162461bcd60e51b815260206004820152601f60248201527f45524332303a206d696e7420746f20746865207a65726f2061646472657373006044820152606401610660565b80600260008282546114229190611619565b90915550506001600160a01b038216600081815260208181526040808320805486019055518481527fddf252ad1be2c89b69c2b068fc378daa952ba7f163c4a11628f55a4df523b3ef910160405180910390a35050565b600060208083528351808285015260005b818110156114a65785810183015185820160400152820161148a565b506000604082860101526040601f19601f8301168501019250505092915050565b80356001600160a01b03811681146114de57600080fd5b919050565b600080604083850312156114f657600080fd5b6114ff836114c7565b946020939093013593505050565b60008060006060848603121561152257600080fd5b61152b846114c7565b9250611539602085016114c7565b9150604084013590509250925092565b60006020828403121561155b57600080fd5b5035919050565b60006020828403121561157457600080fd5b6108f1826114c7565b6000806040838503121561159057600080fd5b611599836114c7565b91506115a7602084016114c7565b90509250929050565b600181811c908216806115c457607f821691505b6020821081036115e457634e487b7160e01b600052602260045260246000fd5b50919050565b6000602082840312156115fc57600080fd5b5051919050565b634e487b7160e01b600052601160045260246000fd5b8082018082111561054457610544611603565b808202811582820484141761054457610544611603565b60008261166057634e487b7160e01b600052601260045260246000fd5b500490565b818103818111156105445761054461160356fea2646970667358221220265ff601c6fbd0eb9892eaef2d6306754bf9de21f43bc5e3218ebe52f592ab0764736f6c63430008110033608060405234801561001057600080fd5b50600080546001600160a01b03191673694aa1769357215de4fac081bf1f309adc3253061790556101f1806100466000396000f3fe608060405234801561001057600080fd5b50600436106100365760003560e01c80638e15f4731461003b578063900a6d3c14610056575b600080fd5b610043610085565b6040519081526020015b60405180910390f35b604080518082018252600d81526c0c48115512080f481e081554d1609a1b6020820152905161004d91906100fe565b6000805460408051633fabe5a360e21b8152905183926001600160a01b03169163feaf968c9160048083019260a09291908290030181865afa1580156100cf573d6000803e3d6000fd5b505050506040513d601f19601f820116820180604052508101906100f3919061016b565b509195945050505050565b600060208083528351808285015260005b8181101561012b5785810183015185820160400152820161010f565b506000604082860101526040601f19601f8301168501019250505092915050565b805169ffffffffffffffffffff8116811461016657600080fd5b919050565b600080600080600060a0868803121561018357600080fd5b61018c8661014c565b94506020860151935060408601519250606086015191506101af6080870161014c565b9050929550929590935056fea2646970667358221220498d64d208d6a332117df884a6a3809aa3b6f3787c91b11cf96530c3d3e8038164736f6c63430008110033",
    "linkReferences": {}
  },
  "methodIdentifiers": {
    "allowance(address,address)": "dd62ed3e",
    "approve(address,uint256)": "095ea7b3",
    "balanceOf(address)": "70a08231",
    "calculatePriceForSale(uint256)": "e1dee0d7",
    "decimals()": "313ce567",
    "decreaseAllowance(address,uint256)": "a457c2d7",
    "depositCollateral(uint256)": "bad4a01f",
    "getExchangeRate(uint256)": "62aaf089",
    "getUsdExchangeRate()": "23da140e",
    "increaseAllowance(address,uint256)": "39509351",
    "name()": "06fdde03",
    "owner()": "8da5cb5b",
    "priceFeed()": "741bef1a",
    "ratio()": "71ca337d",
    "renounceOwnership()": "715018a6",
    "supplyCap()": "8f770ad0",
    "symbol()": "95d89b41",
    "tax()": "99c8d556",
    "totalSupply()": "18160ddd",
    "transfer(address,uint256)": "a9059cbb",
    "transferFrom(address,address,uint256)": "23b872dd",
    "transferOwnership(address)": "f2fde38b",
    "viewTax()": "3e1dea63",
    "withdrawCollateral(uint256)": "6112fe2e",
    "withdrawTax()": "dfa20f0a"
  },
  "id": 2
}