{
  "abi": [
    {
      "inputs": [
        {
          "internalType": "string",
          "name": "name_",
          "type": "string"
        },
        {
          "internalType": "string",
          "name": "symbol_",
          "type": "string"
        },
        {
          "internalType": "uint256",
          "name": "exponent_",
          "type": "uint256"
        },
        {
          "internalType": "uint256",
          "name": "constant_",
          "type": "uint256"
        },
        {
          "internalType": "uint256",
          "name": "_supplyCap",
          "type": "uint256"
        }
      ],
      "stateMutability": "nonpayable",
      "type": "constructor"
    },
    {
      "inputs": [
        {
          "internalType": "uint256",
          "name": "amount",
          "type": "uint256"
        },
        {
          "internalType": "uint256",
          "name": "balance",
          "type": "uint256"
        }
      ],
      "name": "LowOnEther",
      "type": "error"
    },
    {
      "inputs": [
        {
          "internalType": "uint256",
          "name": "amount",
          "type": "uint256"
        },
        {
          "internalType": "uint256",
          "name": "balance",
          "type": "uint256"
        }
      ],
      "name": "LowOnTokens",
      "type": "error"
    },
    {
      "inputs": [
        {
          "internalType": "uint256",
          "name": "amount",
          "type": "uint256"
        },
        {
          "internalType": "uint256",
          "name": "MintCap",
          "type": "uint256"
        }
      ],
      "name": "ValueExceedsMintCap",
      "type": "error"
    },
    {
      "anonymous": false,
      "inputs": [
        {
          "indexed": true,
          "internalType": "address",
          "name": "owner",
          "type": "address"
        },
        {
          "indexed": true,
          "internalType": "address",
          "name": "spender",
          "type": "address"
        },
        {
          "indexed": false,
          "internalType": "uint256",
          "name": "value",
          "type": "uint256"
        }
      ],
      "name": "Approval",
      "type": "event"
    },
    {
      "anonymous": false,
      "inputs": [
        {
          "indexed": true,
          "internalType": "address",
          "name": "previousOwner",
          "type": "address"
        },
        {
          "indexed": true,
          "internalType": "address",
          "name": "newOwner",
          "type": "address"
        }
      ],
      "name": "OwnershipTransferred",
      "type": "event"
    },
    {
      "anonymous": false,
      "inputs": [
        {
          "indexed": true,
          "internalType": "address",
          "name": "from",
          "type": "address"
        },
        {
          "indexed": true,
          "internalType": "address",
          "name": "to",
          "type": "address"
        },
        {
          "indexed": false,
          "internalType": "uint256",
          "name": "value",
          "type": "uint256"
        }
      ],
      "name": "Transfer",
      "type": "event"
    },
    {
      "anonymous": false,
      "inputs": [
        {
          "indexed": true,
          "internalType": "address",
          "name": "buyer",
          "type": "address"
        },
        {
          "indexed": false,
          "internalType": "uint256",
          "name": "amount",
          "type": "uint256"
        },
        {
          "indexed": false,
          "internalType": "uint256",
          "name": "total_supply",
          "type": "uint256"
        },
        {
          "indexed": false,
          "internalType": "uint256",
          "name": "newPrice",
          "type": "uint256"
        }
      ],
      "name": "tokensBought",
      "type": "event"
    },
    {
      "anonymous": false,
      "inputs": [
        {
          "indexed": true,
          "internalType": "address",
          "name": "seller",
          "type": "address"
        },
        {
          "indexed": false,
          "internalType": "uint256",
          "name": "amount",
          "type": "uint256"
        },
        {
          "indexed": false,
          "internalType": "uint256",
          "name": "total_supply",
          "type": "uint256"
        },
        {
          "indexed": false,
          "internalType": "uint256",
          "name": "newPrice",
          "type": "uint256"
        }
      ],
      "name": "tokensSold",
      "type": "event"
    },
    {
      "anonymous": false,
      "inputs": [
        {
          "indexed": false,
          "internalType": "address",
          "name": "from",
          "type": "address"
        },
        {
          "indexed": false,
          "internalType": "address",
          "name": "to",
          "type": "address"
        },
        {
          "indexed": false,
          "internalType": "uint256",
          "name": "amount",
          "type": "uint256"
        },
        {
          "indexed": false,
          "internalType": "uint256",
          "name": "time",
          "type": "uint256"
        }
      ],
      "name": "withdrawn",
      "type": "event"
    },
    {
      "inputs": [
        {
          "internalType": "address",
          "name": "owner",
          "type": "address"
        },
        {
          "internalType": "address",
          "name": "spender",
          "type": "address"
        }
      ],
      "name": "allowance",
      "outputs": [
        {
          "internalType": "uint256",
          "name": "",
          "type": "uint256"
        }
      ],
      "stateMutability": "view",
      "type": "function"
    },
    {
      "inputs": [
        {
          "internalType": "address",
          "name": "spender",
          "type": "address"
        },
        {
          "internalType": "uint256",
          "name": "amount",
          "type": "uint256"
        }
      ],
      "name": "approve",
      "outputs": [
        {
          "internalType": "bool",
          "name": "",
          "type": "bool"
        }
      ],
      "stateMutability": "nonpayable",
      "type": "function"
    },
    {
      "inputs": [
        {
          "internalType": "address",
          "name": "account",
          "type": "address"
        }
      ],
      "name": "balanceOf",
      "outputs": [
        {
          "internalType": "uint256",
          "name": "",
          "type": "uint256"
        }
      ],
      "stateMutability": "view",
      "type": "function"
    },
    {
      "inputs": [
        {
          "internalType": "uint256",
          "name": "_amount",
          "type": "uint256"
        }
      ],
      "name": "buy",
      "outputs": [],
      "stateMutability": "payable",
      "type": "function"
    },
    {
      "inputs": [
        {
          "internalType": "uint256",
          "name": "_tokensToBuy",
          "type": "uint256"
        }
      ],
      "name": "calculatePriceForBuy",
      "outputs": [
        {
          "internalType": "uint256",
          "name": "",
          "type": "uint256"
        }
      ],
      "stateMutability": "view",
      "type": "function"
    },
    {
      "inputs": [
        {
          "internalType": "uint256",
          "name": "_tokensToSell",
          "type": "uint256"
        }
      ],
      "name": "calculatePriceForSell",
      "outputs": [
        {
          "internalType": "uint256",
          "name": "",
          "type": "uint256"
        }
      ],
      "stateMutability": "view",
      "type": "function"
    },
    {
      "inputs": [],
      "name": "decimals",
      "outputs": [
        {
          "internalType": "uint8",
          "name": "",
          "type": "uint8"
        }
      ],
      "stateMutability": "view",
      "type": "function"
    },
    {
      "inputs": [
        {
          "internalType": "address",
          "name": "spender",
          "type": "address"
        },
        {
          "internalType": "uint256",
          "name": "subtractedValue",
          "type": "uint256"
        }
      ],
      "name": "decreaseAllowance",
      "outputs": [
        {
          "internalType": "bool",
          "name": "",
          "type": "bool"
        }
      ],
      "stateMutability": "nonpayable",
      "type": "function"
    },
    {
      "inputs": [],
      "name": "getCurrentPrice",
      "outputs": [
        {
          "internalType": "uint256",
          "name": "",
          "type": "uint256"
        }
      ],
      "stateMutability": "view",
      "type": "function"
    },
    {
      "inputs": [
        {
          "internalType": "address",
          "name": "spender",
          "type": "address"
        },
        {
          "internalType": "uint256",
          "name": "addedValue",
          "type": "uint256"
        }
      ],
      "name": "increaseAllowance",
      "outputs": [
        {
          "internalType": "bool",
          "name": "",
          "type": "bool"
        }
      ],
      "stateMutability": "nonpayable",
      "type": "function"
    },
    {
      "inputs": [],
      "name": "name",
      "outputs": [
        {
          "internalType": "string",
          "name": "",
          "type": "string"
        }
      ],
      "stateMutability": "view",
      "type": "function"
    },
    {
      "inputs": [],
      "name": "owner",
      "outputs": [
        {
          "internalType": "address",
          "name": "",
          "type": "address"
        }
      ],
      "stateMutability": "view",
      "type": "function"
    },
    {
      "inputs": [],
      "name": "renounceOwnership",
      "outputs": [],
      "stateMutability": "nonpayable",
      "type": "function"
    },
    {
      "inputs": [
        {
          "internalType": "uint256",
          "name": "_amount",
          "type": "uint256"
        }
      ],
      "name": "sell",
      "outputs": [],
      "stateMutability": "nonpayable",
      "type": "function"
    },
    {
      "inputs": [
        {
          "internalType": "uint256",
          "name": "_loss",
          "type": "uint256"
        }
      ],
      "name": "setLoss",
      "outputs": [
        {
          "internalType": "uint256",
          "name": "",
          "type": "uint256"
        }
      ],
      "stateMutability": "nonpayable",
      "type": "function"
    },
    {
      "inputs": [
        {
          "internalType": "uint256",
          "name": "_mintCap",
          "type": "uint256"
        }
      ],
      "name": "setMintCap",
      "outputs": [
        {
          "internalType": "uint256",
          "name": "",
          "type": "uint256"
        }
      ],
      "stateMutability": "nonpayable",
      "type": "function"
    },
    {
      "inputs": [
        {
          "internalType": "uint256",
          "name": "_cap",
          "type": "uint256"
        }
      ],
      "name": "setSupplyCap",
      "outputs": [
        {
          "internalType": "uint256",
          "name": "",
          "type": "uint256"
        }
      ],
      "stateMutability": "nonpayable",
      "type": "function"
    },
    {
      "inputs": [],
      "name": "symbol",
      "outputs": [
        {
          "internalType": "string",
          "name": "",
          "type": "string"
        }
      ],
      "stateMutability": "view",
      "type": "function"
    },
    {
      "inputs": [],
      "name": "totalSupply",
      "outputs": [
        {
          "internalType": "uint256",
          "name": "",
          "type": "uint256"
        }
      ],
      "stateMutability": "view",
      "type": "function"
    },
    {
      "inputs": [
        {
          "internalType": "address",
          "name": "to",
          "type": "address"
        },
        {
          "internalType": "uint256",
          "name": "amount",
          "type": "uint256"
        }
      ],
      "name": "transfer",
      "outputs": [
        {
          "internalType": "bool",
          "name": "",
          "type": "bool"
        }
      ],
      "stateMutability": "nonpayable",
      "type": "function"
    },
    {
      "inputs": [
        {
          "internalType": "address",
          "name": "from",
          "type": "address"
        },
        {
          "internalType": "address",
          "name": "to",
          "type": "address"
        },
        {
          "internalType": "uint256",
          "name": "amount",
          "type": "uint256"
        }
      ],
      "name": "transferFrom",
      "outputs": [
        {
          "internalType": "bool",
          "name": "",
          "type": "bool"
        }
      ],
      "stateMutability": "nonpayable",
      "type": "function"
    },
    {
      "inputs": [
        {
          "internalType": "address",
          "name": "newOwner",
          "type": "address"
        }
      ],
      "name": "transferOwnership",
      "outputs": [],
      "stateMutability": "nonpayable",
      "type": "function"
    },
    {
      "inputs": [],
      "name": "viewTax",
      "outputs": [
        {
          "internalType": "uint256",
          "name": "",
          "type": "uint256"
        }
      ],
      "stateMutability": "view",
      "type": "function"
    },
    {
      "inputs": [],
      "name": "withdraw",
      "outputs": [],
      "stateMutability": "nonpayable",
      "type": "function"
    }
  ],
  "bytecode": {
    "object": "0x60c06040526103e86007556064600855633b9aca006009553480156200002457600080fd5b5060405162001a0638038062001a068339810160408190526200004791620001b3565b84846003620000578382620002c7565b506004620000668282620002c7565b505050620000836200007d6200009860201b60201c565b6200009c565b60809290925260a05260095550620003939050565b3390565b600580546001600160a01b038381166001600160a01b0319831681179093556040519116919082907f8be0079c531659141344cd1fd0a4f28419497f9722a3daafe3b4186f6b6457e090600090a35050565b634e487b7160e01b600052604160045260246000fd5b600082601f8301126200011657600080fd5b81516001600160401b0380821115620001335762000133620000ee565b604051601f8301601f19908116603f011681019082821181831017156200015e576200015e620000ee565b816040528381526020925086838588010111156200017b57600080fd5b600091505b838210156200019f578582018301518183018401529082019062000180565b600093810190920192909252949350505050565b600080600080600060a08688031215620001cc57600080fd5b85516001600160401b0380821115620001e457600080fd5b620001f289838a0162000104565b965060208801519150808211156200020957600080fd5b50620002188882890162000104565b60408801516060890151608090990151979a919950979695509350505050565b600181811c908216806200024d57607f821691505b6020821081036200026e57634e487b7160e01b600052602260045260246000fd5b50919050565b601f821115620002c257600081815260208120601f850160051c810160208610156200029d5750805b601f850160051c820191505b81811015620002be57828155600101620002a9565b5050505b505050565b81516001600160401b03811115620002e357620002e3620000ee565b620002fb81620002f4845462000238565b8462000274565b602080601f8311600181146200033357600084156200031a5750858301515b600019600386901b1c1916600185901b178555620002be565b600085815260208120601f198616915b82811015620003645788860151825594840194600190910190840162000343565b5085821015620003835787850151600019600388901b60f8161c191681555b5050505050600190811b01905550565b60805160a05161164d620003b960003960006112c401526000611295015261164d6000f3fe60806040526004361061014b5760003560e01c8063715018a6116100b6578063b6a3f59a1161006f578063b6a3f59a1461039e578063d96a094a146103be578063dd62ed3e146103d1578063e4849b32146103f1578063eb91d37e14610411578063f2fde38b1461042657600080fd5b8063715018a6146102ec57806372ae4c34146103015780638da5cb5b1461032157806395d89b4114610349578063a457c2d71461035e578063a9059cbb1461037e57600080fd5b8063313ce56711610108578063313ce5671461022e578063395093511461024a5780633ccfd60b1461026a5780633e1dea63146102815780634070a0c91461029657806370a08231146102b657600080fd5b806306fdde0314610150578063095ea7b31461017b57806314749988146101ab57806318160ddd146101d957806323b872dd146101ee57806325f2b2ac1461020e575b600080fd5b34801561015c57600080fd5b50610165610446565b6040516101729190611318565b60405180910390f35b34801561018757600080fd5b5061019b61019636600461137d565b6104d8565b6040519015158152602001610172565b3480156101b757600080fd5b506101cb6101c63660046113a7565b6104f2565b604051908152602001610172565b3480156101e557600080fd5b506002546101cb565b3480156101fa57600080fd5b5061019b6102093660046113c0565b6104fd565b34801561021a57600080fd5b506101cb6102293660046113a7565b610521565b34801561023a57600080fd5b5060405160128152602001610172565b34801561025657600080fd5b5061019b61026536600461137d565b61052c565b34801561027657600080fd5b5061027f61054e565b005b34801561028d57600080fd5b506101cb610663565b3480156102a257600080fd5b506101cb6102b13660046113a7565b610674565b3480156102c257600080fd5b506101cb6102d13660046113fc565b6001600160a01b031660009081526020819052604090205490565b3480156102f857600080fd5b5061027f6106de565b34801561030d57600080fd5b506101cb61031c3660046113a7565b6106f2565b34801561032d57600080fd5b506005546040516001600160a01b039091168152602001610172565b34801561035557600080fd5b50610165610764565b34801561036a57600080fd5b5061019b61037936600461137d565b610773565b34801561038a57600080fd5b5061019b61039936600461137d565b6107ee565b3480156103aa57600080fd5b506101cb6103b93660046113a7565b6107fc565b61027f6103cc3660046113a7565b610870565b3480156103dd57600080fd5b506101cb6103ec366004611417565b610a1c565b3480156103fd57600080fd5b5061027f61040c3660046113a7565b610a47565b34801561041d57600080fd5b506101cb610ba0565b34801561043257600080fd5b5061027f6104413660046113fc565b610bb1565b6060600380546104559061144a565b80601f01602080910402602001604051908101604052809291908181526020018280546104819061144a565b80156104ce5780601f106104a3576101008083540402835291602001916104ce565b820191906000526020600020905b8154815290600101906020018083116104b157829003601f168201915b5050505050905090565b6000336104e6818585610c2a565b60019150505b92915050565b60006104ec82610d4f565b60003361050b858285610d8f565b610516858585610e09565b506001949350505050565b60006104ec82610fad565b6000336104e681858561053f8383610a1c565b610549919061149a565b610c2a565b610556610fdb565b60006006541161058c57600654604051635f06b92b60e01b81526004810182905260248101919091526044015b60405180910390fd5b60068054600091829055906105a96005546001600160a01b031690565b6001600160a01b03168260405160006040518083038185875af1925050503d80600081146105f3576040519150601f19603f3d011682016040523d82523d6000602084013e6105f8565b606091505b50509050806106195760405162461bcd60e51b8152600401610583906114ad565b604080513081523360208201529081018390524260608201527f3acaa4293506badc3b029f94990e48c03c6112c2b5c4ce7c0836f974173060a89060800160405180910390a15050565b600061066d610fdb565b5060065490565b600061067e610fdb565b600a60085410156106d15760405162461bcd60e51b815260206004820152601f60248201527f76616c75652073686f756c642062652067726561746572207468616e203130006044820152606401610583565b506008819055805b919050565b6106e6610fdb565b6106f06000611035565b565b60006106fc610fdb565b6113886007541061075b5760405162461bcd60e51b815260206004820152602360248201527f72657175697265206c6f737320746f206265203e3d20313030302026203c203560448201526203030360ec1b6064820152608401610583565b50600781905590565b6060600480546104559061144a565b600033816107818286610a1c565b9050838110156107e15760405162461bcd60e51b815260206004820152602560248201527f45524332303a2064656372656173656420616c6c6f77616e63652062656c6f77604482015264207a65726f60d81b6064820152608401610583565b6105168286868403610c2a565b6000336104e6818585610e09565b6000610806610fdb565b6002548210156108675760405162461bcd60e51b815260206004820152602660248201527f76616c75652063616e6e6f74206265206c657373207468616e20746f74616c20604482015265737570706c7960d01b6064820152608401610583565b50600981905590565b6009548161087d60025490565b610887919061149a565b11156108ca5760405162461bcd60e51b815260206004820152601260248201527106578636565647320737570706c79206361760741b6044820152606401610583565b60006108d582610fad565b90508034101561090157604051635f06b92b60e01b815234600482015233316024820152604401610583565b6008548211156109325760085460405163b0a15b8960e01b8152610583918491600401918252602082015260400190565b61093c3383611087565b60006109506005546001600160a01b031690565b6001600160a01b031661096383346114db565b604051600081818185875af1925050503d806000811461099f576040519150601f19603f3d011682016040523d82523d6000602084013e6109a4565b606091505b50509050806109c55760405162461bcd60e51b8152600401610583906114ad565b337f30fefb061d1f53d430b3afb65c78c03ce89da963de3d93ce78da9d15beeb445a846109f160025490565b6109f9610ba0565b6040805193845260208401929092529082015260600160405180910390a2505050565b6001600160a01b03918216600090815260016020908152604080832093909416825291909152205490565b33600090815260208190526040902054811115610a9257336000908152602081905260409020548190604051630fcd33d560e01b815260048101929092526024820152604401610583565b6000610a9d82610d4f565b90506000610aaa82611146565b9050610ab63384611163565b8060066000828254610ac8919061149a565b90915550506005546000906001600160a01b0316610ae683856114db565b604051600081818185875af1925050503d8060008114610b22576040519150601f19603f3d011682016040523d82523d6000602084013e610b27565b606091505b5050905080610b485760405162461bcd60e51b8152600401610583906114ad565b337f3cb699604c2c6259942a23fcc43403985c35d1f77159c35787e59df8388136e385610b7460025490565b610b7c610ba0565b6040805193845260208401929092529082015260600160405180910390a250505050565b6000610bac6001610fad565b905090565b610bb9610fdb565b6001600160a01b038116610c1e5760405162461bcd60e51b815260206004820152602660248201527f4f776e61626c653a206e6577206f776e657220697320746865207a65726f206160448201526564647265737360d01b6064820152608401610583565b610c2781611035565b50565b6001600160a01b038316610c8c5760405162461bcd60e51b8152602060048201526024808201527f45524332303a20617070726f76652066726f6d20746865207a65726f206164646044820152637265737360e01b6064820152608401610583565b6001600160a01b038216610ced5760405162461bcd60e51b815260206004820152602260248201527f45524332303a20617070726f766520746f20746865207a65726f206164647265604482015261737360f01b6064820152608401610583565b6001600160a01b0383811660008181526001602090815260408083209487168084529482529182902085905590518481527f8c5be1e5ebec7d5bd14f71427d1e84f3dd0314c0f7b2291e5b200ac8c7c3b92591015b60405180910390a3505050565b600080610d5b60025490565b90506000610d6984836114db565b9050610d748161128d565b610d7d8361128d565b610d8791906114db565b949350505050565b6000610d9b8484610a1c565b90506000198114610e035781811015610df65760405162461bcd60e51b815260206004820152601d60248201527f45524332303a20696e73756666696369656e7420616c6c6f77616e63650000006044820152606401610583565b610e038484848403610c2a565b50505050565b6001600160a01b038316610e6d5760405162461bcd60e51b815260206004820152602560248201527f45524332303a207472616e736665722066726f6d20746865207a65726f206164604482015264647265737360d81b6064820152608401610583565b6001600160a01b038216610ecf5760405162461bcd60e51b815260206004820152602360248201527f45524332303a207472616e7366657220746f20746865207a65726f206164647260448201526265737360e81b6064820152608401610583565b6001600160a01b03831660009081526020819052604090205481811015610f475760405162461bcd60e51b815260206004820152602660248201527f45524332303a207472616e7366657220616d6f756e7420657863656564732062604482015265616c616e636560d01b6064820152608401610583565b6001600160a01b03848116600081815260208181526040808320878703905593871680835291849020805487019055925185815290927fddf252ad1be2c89b69c2b068fc378daa952ba7f163c4a11628f55a4df523b3ef910160405180910390a3610e03565b600080610fb960025490565b90506000610fc7848361149a565b9050610fd28261128d565b610d7d8261128d565b6005546001600160a01b031633146106f05760405162461bcd60e51b815260206004820181905260248201527f4f776e61626c653a2063616c6c6572206973206e6f7420746865206f776e65726044820152606401610583565b600580546001600160a01b038381166001600160a01b0319831681179093556040519116919082907f8be0079c531659141344cd1fd0a4f28419497f9722a3daafe3b4186f6b6457e090600090a35050565b6001600160a01b0382166110dd5760405162461bcd60e51b815260206004820152601f60248201527f45524332303a206d696e7420746f20746865207a65726f2061646472657373006044820152606401610583565b80600260008282546110ef919061149a565b90915550506001600160a01b038216600081815260208181526040808320805486019055518481527fddf252ad1be2c89b69c2b068fc378daa952ba7f163c4a11628f55a4df523b3ef910160405180910390a35050565b60006127106007548361115991906114ee565b6104ec9190611505565b6001600160a01b0382166111c35760405162461bcd60e51b815260206004820152602160248201527f45524332303a206275726e2066726f6d20746865207a65726f206164647265736044820152607360f81b6064820152608401610583565b6001600160a01b038216600090815260208190526040902054818110156112375760405162461bcd60e51b815260206004820152602260248201527f45524332303a206275726e20616d6f756e7420657863656564732062616c616e604482015261636560f01b6064820152608401610583565b6001600160a01b0383166000818152602081815260408083208686039055600280548790039055518581529192917fddf252ad1be2c89b69c2b068fc378daa952ba7f163c4a11628f55a4df523b3ef9101610d42565b6000806112bb7f0000000000000000000000000000000000000000000000000000000000000000600161149a565b905080836112e97f0000000000000000000000000000000000000000000000000000000000000000836114ee565b6112f391906114ee565b6112fd838661160b565b611307919061149a565b6113119190611505565b9392505050565b600060208083528351808285015260005b8181101561134557858101830151858201604001528201611329565b506000604082860101526040601f19601f8301168501019250505092915050565b80356001600160a01b03811681146106d957600080fd5b6000806040838503121561139057600080fd5b61139983611366565b946020939093013593505050565b6000602082840312156113b957600080fd5b5035919050565b6000806000606084860312156113d557600080fd5b6113de84611366565b92506113ec60208501611366565b9150604084013590509250925092565b60006020828403121561140e57600080fd5b61131182611366565b6000806040838503121561142a57600080fd5b61143383611366565b915061144160208401611366565b90509250929050565b600181811c9082168061145e57607f821691505b60208210810361147e57634e487b7160e01b600052602260045260246000fd5b50919050565b634e487b7160e01b600052601160045260246000fd5b808201808211156104ec576104ec611484565b6020808252601490820152732330b4b632b2103a379039b2b7321022ba3432b960611b604082015260600190565b818103818111156104ec576104ec611484565b80820281158282048414176104ec576104ec611484565b60008261152257634e487b7160e01b600052601260045260246000fd5b500490565b600181815b8085111561156257816000190482111561154857611548611484565b8085161561155557918102915b93841c939080029061152c565b509250929050565b600082611579575060016104ec565b81611586575060006104ec565b816001811461159c57600281146115a6576115c2565b60019150506104ec565b60ff8411156115b7576115b7611484565b50506001821b6104ec565b5060208310610133831016604e8410600b84101617156115e5575081810a6104ec565b6115ef8383611527565b806000190482111561160357611603611484565b029392505050565b6000611311838361156a56fea26469706673582212206dc131ab977ec043711d6ef67655d72827c3d96e112c5c6cb48ae17dbd32bb1b64736f6c63430008110033",
    "linkReferences": {}
  },
  "methodIdentifiers": {
    "allowance(address,address)": "dd62ed3e",
    "approve(address,uint256)": "095ea7b3",
    "balanceOf(address)": "70a08231",
    "buy(uint256)": "d96a094a",
    "calculatePriceForBuy(uint256)": "25f2b2ac",
    "calculatePriceForSell(uint256)": "14749988",
    "decimals()": "313ce567",
    "decreaseAllowance(address,uint256)": "a457c2d7",
    "getCurrentPrice()": "eb91d37e",
    "increaseAllowance(address,uint256)": "39509351",
    "name()": "06fdde03",
    "owner()": "8da5cb5b",
    "renounceOwnership()": "715018a6",
    "sell(uint256)": "e4849b32",
    "setLoss(uint256)": "72ae4c34",
    "setMintCap(uint256)": "4070a0c9",
    "setSupplyCap(uint256)": "b6a3f59a",
    "symbol()": "95d89b41",
    "totalSupply()": "18160ddd",
    "transfer(address,uint256)": "a9059cbb",
    "transferFrom(address,address,uint256)": "23b872dd",
    "transferOwnership(address)": "f2fde38b",
    "viewTax()": "3e1dea63",
    "withdraw()": "3ccfd60b"
  },
  "id": 2
}