{
  "_format": "hh-sol-artifact-1",
  "contractName": "CrowdFunding",
  "sourceName": "contracts/CrowdFunding.sol",
  "abi": [
    {
      "inputs": [
        {
          "internalType": "uint256",
          "name": "_duration",
          "type": "uint256"
        },
        {
          "internalType": "uint256",
          "name": "_minimumContribution",
          "type": "uint256"
        },
        {
          "internalType": "uint256",
          "name": "_minimumTarget",
          "type": "uint256"
        }
      ],
      "stateMutability": "nonpayable",
      "type": "constructor"
    },
    {
      "anonymous": false,
      "inputs": [
        {
          "indexed": true,
          "internalType": "address",
          "name": "previousOwner",
          "type": "address"
        },
        {
          "indexed": true,
          "internalType": "address",
          "name": "newOwner",
          "type": "address"
        }
      ],
      "name": "OwnershipTransferred",
      "type": "event"
    },
    {
      "anonymous": false,
      "inputs": [
        {
          "indexed": false,
          "internalType": "address",
          "name": "",
          "type": "address"
        },
        {
          "indexed": false,
          "internalType": "uint256",
          "name": "",
          "type": "uint256"
        }
      ],
      "name": "Received",
      "type": "event"
    },
    {
      "anonymous": false,
      "inputs": [
        {
          "indexed": true,
          "internalType": "uint256",
          "name": "pollNumber",
          "type": "uint256"
        },
        {
          "indexed": false,
          "internalType": "string",
          "name": "notion",
          "type": "string"
        },
        {
          "indexed": true,
          "internalType": "uint256",
          "name": "amount",
          "type": "uint256"
        },
        {
          "indexed": true,
          "internalType": "address",
          "name": "reciver",
          "type": "address"
        }
      ],
      "name": "pollStarted",
      "type": "event"
    },
    {
      "inputs": [
        {
          "internalType": "address",
          "name": "_address",
          "type": "address"
        }
      ],
      "name": "balance",
      "outputs": [
        {
          "internalType": "uint256",
          "name": "",
          "type": "uint256"
        }
      ],
      "stateMutability": "view",
      "type": "function"
    },
    {
      "inputs": [],
      "name": "contribute",
      "outputs": [],
      "stateMutability": "payable",
      "type": "function"
    },
    {
      "inputs": [],
      "name": "hasDeadlinePassed",
      "outputs": [
        {
          "internalType": "bool",
          "name": "",
          "type": "bool"
        }
      ],
      "stateMutability": "view",
      "type": "function"
    },
    {
      "inputs": [],
      "name": "numberOfContributers",
      "outputs": [
        {
          "internalType": "uint256",
          "name": "",
          "type": "uint256"
        }
      ],
      "stateMutability": "view",
      "type": "function"
    },
    {
      "inputs": [],
      "name": "numberOfYesses",
      "outputs": [
        {
          "internalType": "uint256",
          "name": "",
          "type": "uint256"
        }
      ],
      "stateMutability": "view",
      "type": "function"
    },
    {
      "inputs": [
        {
          "internalType": "string",
          "name": "_notion",
          "type": "string"
        },
        {
          "internalType": "uint256",
          "name": "_amount",
          "type": "uint256"
        },
        {
          "internalType": "address",
          "name": "_reciever",
          "type": "address"
        }
      ],
      "name": "openPoll",
      "outputs": [],
      "stateMutability": "nonpayable",
      "type": "function"
    },
    {
      "inputs": [],
      "name": "owner",
      "outputs": [
        {
          "internalType": "address",
          "name": "",
          "type": "address"
        }
      ],
      "stateMutability": "view",
      "type": "function"
    },
    {
      "inputs": [],
      "name": "recoverContribution",
      "outputs": [],
      "stateMutability": "payable",
      "type": "function"
    },
    {
      "inputs": [],
      "name": "renounceOwnership",
      "outputs": [],
      "stateMutability": "nonpayable",
      "type": "function"
    },
    {
      "inputs": [
        {
          "internalType": "address",
          "name": "_address",
          "type": "address"
        }
      ],
      "name": "seeContribution",
      "outputs": [
        {
          "internalType": "uint256",
          "name": "",
          "type": "uint256"
        }
      ],
      "stateMutability": "view",
      "type": "function"
    },
    {
      "inputs": [
        {
          "internalType": "address",
          "name": "newOwner",
          "type": "address"
        }
      ],
      "name": "transferOwnership",
      "outputs": [],
      "stateMutability": "nonpayable",
      "type": "function"
    },
    {
      "inputs": [],
      "name": "vote",
      "outputs": [],
      "stateMutability": "nonpayable",
      "type": "function"
    },
    {
      "inputs": [],
      "name": "withdrawAmount",
      "outputs": [
        {
          "internalType": "bool",
          "name": "",
          "type": "bool"
        }
      ],
      "stateMutability": "nonpayable",
      "type": "function"
    }
  ],
  "bytecode": "0x6080604052600060045560006005556000600660006101000a81548160ff02191690831515021790555060006009556000600a553480156200004057600080fd5b5060405162001fc438038062001fc48339818101604052810190620000669190620001bd565b620000866200007a620000b160201b60201c565b620000b960201b60201c565b824262000094919062000248565b6001819055508160028190555080600381905550505050620002a5565b600033905090565b60008060009054906101000a900473ffffffffffffffffffffffffffffffffffffffff169050816000806101000a81548173ffffffffffffffffffffffffffffffffffffffff021916908373ffffffffffffffffffffffffffffffffffffffff1602179055508173ffffffffffffffffffffffffffffffffffffffff168173ffffffffffffffffffffffffffffffffffffffff167f8be0079c531659141344cd1fd0a4f28419497f9722a3daafe3b4186f6b6457e060405160405180910390a35050565b600080fd5b6000819050919050565b620001978162000182565b8114620001a357600080fd5b50565b600081519050620001b7816200018c565b92915050565b600080600060608486031215620001d957620001d86200017d565b5b6000620001e986828701620001a6565b9350506020620001fc86828701620001a6565b92505060406200020f86828701620001a6565b9150509250925092565b7f4e487b7100000000000000000000000000000000000000000000000000000000600052601160045260246000fd5b6000620002558262000182565b9150620002628362000182565b9250827fffffffffffffffffffffffffffffffffffffffffffffffffffffffffffffffff038211156200029a576200029962000219565b5b828201905092915050565b611d0f80620002b56000396000f3fe6080604052600436106100c25760003560e01c8063795cd1af1161007f57806396e3f4c51161005957806396e3f4c514610211578063d7bb99ba1461023c578063e3d670d714610246578063f2fde38b14610283576100c2565b8063795cd1af146101b35780638a31bbad146101bd5780638da5cb5b146101e6576100c2565b806303eb9d3d146100c757806312409e5a146100f257806320dd3de71461012f578063534844a21461015a578063632a9a5214610185578063715018a61461019c575b600080fd5b3480156100d357600080fd5b506100dc6102ac565b6040516100e99190610f24565b60405180910390f35b3480156100fe57600080fd5b5061011960048036038101906101149190610fb1565b6102b2565b6040516101269190610f24565b60405180910390f35b34801561013b57600080fd5b506101446102fb565b6040516101519190610f24565b60405180910390f35b34801561016657600080fd5b5061016f610301565b60405161017c9190610ff9565b60405180910390f35b34801561019157600080fd5b5061019a610417565b005b3480156101a857600080fd5b506101b1610693565b005b6101bb6106a7565b005b3480156101c957600080fd5b506101e460048036038101906101df9190611186565b610897565b005b3480156101f257600080fd5b506101fb610a82565b6040516102089190611204565b60405180910390f35b34801561021d57600080fd5b50610226610aab565b6040516102339190610ff9565b60405180910390f35b610244610ac8565b005b34801561025257600080fd5b5061026d60048036038101906102689190610fb1565b610c8f565b60405161027a9190610f24565b60405180910390f35b34801561028f57600080fd5b506102aa60048036038101906102a59190610fb1565b610cb0565b005b600a5481565b6000600c60008373ffffffffffffffffffffffffffffffffffffffff1673ffffffffffffffffffffffffffffffffffffffff168152602001908152602001600020549050919050565b60095481565b600061030b610d34565b610313610aab565b610352576040517f08c379a00000000000000000000000000000000000000000000000000000000081526004016103499061127c565b60405180910390fd5b61035a610db2565b60006009546064600a5461036e91906112cb565b6103789190611354565b90506000600a819055506000600754905060006007819055506032821061040d57600860009054906101000a900473ffffffffffffffffffffffffffffffffffffffff1673ffffffffffffffffffffffffffffffffffffffff166108fc829081150290604051600060405180830381858888f19350505050158015610401573d6000803e3d6000fd5b50600192505050610414565b6000925050505b90565b60011515600660009054906101000a900460ff1615151461046d576040517f08c379a0000000000000000000000000000000000000000000000000000000008152600401610464906113d1565b60405180910390fd5b610475610a82565b73ffffffffffffffffffffffffffffffffffffffff163373ffffffffffffffffffffffffffffffffffffffff1614156104e3576040517f08c379a00000000000000000000000000000000000000000000000000000000081526004016104da9061143d565b60405180910390fd5b6000600c60003373ffffffffffffffffffffffffffffffffffffffff1673ffffffffffffffffffffffffffffffffffffffff168152602001908152602001600020541415610566576040517f08c379a000000000000000000000000000000000000000000000000000000000815260040161055d906114cf565b60405180910390fd5b60001515600b6000600554815260200190815260200160002060003373ffffffffffffffffffffffffffffffffffffffff1673ffffffffffffffffffffffffffffffffffffffff16815260200190815260200160002060009054906101000a900460ff1615151461060c576040517f08c379a00000000000000000000000000000000000000000000000000000000081526004016106039061153b565b60405180910390fd5b6001600b6000600554815260200190815260200160002060003373ffffffffffffffffffffffffffffffffffffffff1673ffffffffffffffffffffffffffffffffffffffff16815260200190815260200160002060006101000a81548160ff0219169083151502179055506001600a600082825461068a919061155b565b92505081905550565b61069b610d34565b6106a56000610e3f565b565b6106af610aab565b6106ee576040517f08c379a00000000000000000000000000000000000000000000000000000000081526004016106e590611649565b60405180910390fd5b600354600454108061070257506003600954105b610741576040517f08c379a000000000000000000000000000000000000000000000000000000000815260040161073890611701565b60405180910390fd5b6000600c60003373ffffffffffffffffffffffffffffffffffffffff1673ffffffffffffffffffffffffffffffffffffffff1681526020019081526020016000205414156107c4576040517f08c379a00000000000000000000000000000000000000000000000000000000081526004016107bb90611793565b60405180910390fd5b6000600c60003373ffffffffffffffffffffffffffffffffffffffff1673ffffffffffffffffffffffffffffffffffffffff1681526020019081526020016000205490506000600c60003373ffffffffffffffffffffffffffffffffffffffff1673ffffffffffffffffffffffffffffffffffffffff168152602001908152602001600020819055503373ffffffffffffffffffffffffffffffffffffffff166108fc829081150290604051600060405180830381858888f19350505050158015610893573d6000803e3d6000fd5b5050565b61089f610d34565b6108a7610aab565b6108e6576040517f08c379a00000000000000000000000000000000000000000000000000000000081526004016108dd9061127c565b60405180910390fd5b60001515600660009054906101000a900460ff1615151461093c576040517f08c379a000000000000000000000000000000000000000000000000000000000815260040161093390611825565b60405180910390fd5b60036009541015610982576040517f08c379a000000000000000000000000000000000000000000000000000000000815260040161097990611891565b60405180910390fd5b600354600454116109c8576040517f08c379a00000000000000000000000000000000000000000000000000000000081526004016109bf906118fd565b60405180910390fd5b6001600660006101000a81548160ff0219169083151502179055508073ffffffffffffffffffffffffffffffffffffffff16826005547f4414cbcf3a9501da2d1828e5cad5023ced607fdf079a496b8c6209c7c540e2d686604051610a2d9190611994565b60405180910390a48160078190555080600860006101000a81548173ffffffffffffffffffffffffffffffffffffffff021916908373ffffffffffffffffffffffffffffffffffffffff160217905550505050565b60008060009054906101000a900473ffffffffffffffffffffffffffffffffffffffff16905090565b6000600154421115610ac05760019050610ac5565b600090505b90565b610ad0610a82565b73ffffffffffffffffffffffffffffffffffffffff163373ffffffffffffffffffffffffffffffffffffffff161415610b3e576040517f08c379a0000000000000000000000000000000000000000000000000000000008152600401610b3590611a02565b60405180910390fd5b610b46610aab565b15610b86576040517f08c379a0000000000000000000000000000000000000000000000000000000008152600401610b7d90611a94565b60405180910390fd5b346002541115610bcb576040517f08c379a0000000000000000000000000000000000000000000000000000000008152600401610bc290611b26565b60405180910390fd5b7f88a5966d370b9919b20f3e2c13ff65706f196a4e32cc2c12bf57088f885258743334604051610bfc929190611b46565b60405180910390a134600c60003373ffffffffffffffffffffffffffffffffffffffff1673ffffffffffffffffffffffffffffffffffffffff1681526020019081526020016000206000828254610c53919061155b565b92505081905550600160096000828254610c6d919061155b565b925050819055503460046000828254610c86919061155b565b92505081905550565b60008173ffffffffffffffffffffffffffffffffffffffff16319050919050565b610cb8610d34565b600073ffffffffffffffffffffffffffffffffffffffff168173ffffffffffffffffffffffffffffffffffffffff161415610d28576040517f08c379a0000000000000000000000000000000000000000000000000000000008152600401610d1f90611be1565b60405180910390fd5b610d3181610e3f565b50565b610d3c610f03565b73ffffffffffffffffffffffffffffffffffffffff16610d5a610a82565b73ffffffffffffffffffffffffffffffffffffffff1614610db0576040517f08c379a0000000000000000000000000000000000000000000000000000000008152600401610da790611c4d565b60405180910390fd5b565b60011515600660009054906101000a900460ff16151514610e08576040517f08c379a0000000000000000000000000000000000000000000000000000000008152600401610dff90611cb9565b60405180910390fd5b6000600660006101000a81548160ff021916908315150217905550600160056000828254610e36919061155b565b92505081905550565b60008060009054906101000a900473ffffffffffffffffffffffffffffffffffffffff169050816000806101000a81548173ffffffffffffffffffffffffffffffffffffffff021916908373ffffffffffffffffffffffffffffffffffffffff1602179055508173ffffffffffffffffffffffffffffffffffffffff168173ffffffffffffffffffffffffffffffffffffffff167f8be0079c531659141344cd1fd0a4f28419497f9722a3daafe3b4186f6b6457e060405160405180910390a35050565b600033905090565b6000819050919050565b610f1e81610f0b565b82525050565b6000602082019050610f396000830184610f15565b92915050565b6000604051905090565b600080fd5b600080fd5b600073ffffffffffffffffffffffffffffffffffffffff82169050919050565b6000610f7e82610f53565b9050919050565b610f8e81610f73565b8114610f9957600080fd5b50565b600081359050610fab81610f85565b92915050565b600060208284031215610fc757610fc6610f49565b5b6000610fd584828501610f9c565b91505092915050565b60008115159050919050565b610ff381610fde565b82525050565b600060208201905061100e6000830184610fea565b92915050565b600080fd5b600080fd5b6000601f19601f8301169050919050565b7f4e487b7100000000000000000000000000000000000000000000000000000000600052604160045260246000fd5b6110678261101e565b810181811067ffffffffffffffff821117156110865761108561102f565b5b80604052505050565b6000611099610f3f565b90506110a5828261105e565b919050565b600067ffffffffffffffff8211156110c5576110c461102f565b5b6110ce8261101e565b9050602081019050919050565b82818337600083830152505050565b60006110fd6110f8846110aa565b61108f565b90508281526020810184848401111561111957611118611019565b5b6111248482856110db565b509392505050565b600082601f83011261114157611140611014565b5b81356111518482602086016110ea565b91505092915050565b61116381610f0b565b811461116e57600080fd5b50565b6000813590506111808161115a565b92915050565b60008060006060848603121561119f5761119e610f49565b5b600084013567ffffffffffffffff8111156111bd576111bc610f4e565b5b6111c98682870161112c565b93505060206111da86828701611171565b92505060406111eb86828701610f9c565b9150509250925092565b6111fe81610f73565b82525050565b600060208201905061121960008301846111f5565b92915050565b600082825260208201905092915050565b7f646561646c696e6520686173206e6f7420706173736564000000000000000000600082015250565b600061126660178361121f565b915061127182611230565b602082019050919050565b6000602082019050818103600083015261129581611259565b9050919050565b7f4e487b7100000000000000000000000000000000000000000000000000000000600052601160045260246000fd5b60006112d682610f0b565b91506112e183610f0b565b9250817fffffffffffffffffffffffffffffffffffffffffffffffffffffffffffffffff048311821515161561131a5761131961129c565b5b828202905092915050565b7f4e487b7100000000000000000000000000000000000000000000000000000000600052601260045260246000fd5b600061135f82610f0b565b915061136a83610f0b565b92508261137a57611379611325565b5b828204905092915050565b7f706f6c6c20686173206e6f742073746172746564000000000000000000000000600082015250565b60006113bb60148361121f565b91506113c682611385565b602082019050919050565b600060208201905081810360008301526113ea816113ae565b9050919050565b7f746865206d616e616765722063616e6e6f7420766f7465000000000000000000600082015250565b600061142760178361121f565b9150611432826113f1565b602082019050919050565b600060208201905081810360008301526114568161141a565b9050919050565b7f796f752068617665206e6f7420636f6e747269627574656420616e797468696e60008201527f672c206e6f7420656c696769626c6520746f20766f7465000000000000000000602082015250565b60006114b960378361121f565b91506114c48261145d565b604082019050919050565b600060208201905081810360008301526114e8816114ac565b9050919050565b7f796f75206861766520616c726561647920766f74656400000000000000000000600082015250565b600061152560168361121f565b9150611530826114ef565b602082019050919050565b6000602082019050818103600083015261155481611518565b9050919050565b600061156682610f0b565b915061157183610f0b565b9250827fffffffffffffffffffffffffffffffffffffffffffffffffffffffffffffffff038211156115a6576115a561129c565b5b828201905092915050565b7f646561646c696e6520686173206e6f74207061737365642c20636f6e7472696260008201527f7574696f6e732063616e6e6f74206265207265636f766572656420726967687460208201527f6e6f770000000000000000000000000000000000000000000000000000000000604082015250565b600061163360438361121f565b915061163e826115b1565b606082019050919050565b6000602082019050818103600083015261166281611626565b9050919050565b7f74617267657420686173206265656e206d65742c2063616e6e6f74207265636f60008201527f76657220636f6e747269627574696f6e73206e6f77206f72206d6f726520746860208201527f616e20746872656520636f6e7472696275746f72730000000000000000000000604082015250565b60006116eb60558361121f565b91506116f682611669565b606082019050919050565b6000602082019050818103600083015261171a816116de565b9050919050565b7f796f752068617665206e6f7420636f6e747269627574656420616e797468696e60008201527f6700000000000000000000000000000000000000000000000000000000000000602082015250565b600061177d60218361121f565b915061178882611721565b604082019050919050565b600060208201905081810360008301526117ac81611770565b9050919050565b7f70726576696f757320706f6c6c20686173206e6f74206265656e20636c6f736560008201527f6420796574000000000000000000000000000000000000000000000000000000602082015250565b600061180f60258361121f565b915061181a826117b3565b604082019050919050565b6000602082019050818103600083015261183e81611802565b9050919050565b7f696e73756666696369656e7420636f6e74726962757465727300000000000000600082015250565b600061187b60198361121f565b915061188682611845565b602082019050919050565b600060208201905081810360008301526118aa8161186e565b9050919050565b7f6d696e696d756d20746172676574206e6f74206d657400000000000000000000600082015250565b60006118e760168361121f565b91506118f2826118b1565b602082019050919050565b60006020820190508181036000830152611916816118da565b9050919050565b600081519050919050565b60005b8381101561194657808201518184015260208101905061192b565b83811115611955576000848401525b50505050565b60006119668261191d565b611970818561121f565b9350611980818560208601611928565b6119898161101e565b840191505092915050565b600060208201905081810360008301526119ae818461195b565b905092915050565b7f746865206d616e616765722063616e6e6f7420636f6e74726962757465000000600082015250565b60006119ec601d8361121f565b91506119f7826119b6565b602082019050919050565b60006020820190508181036000830152611a1b816119df565b9050919050565b7f646561646c696e6520686173207061737365642c20636f6e747269627574696f60008201527f6e732061726520636c6f73656400000000000000000000000000000000000000602082015250565b6000611a7e602d8361121f565b9150611a8982611a22565b604082019050919050565b60006020820190508181036000830152611aad81611a71565b9050919050565b7f636f6e747269627574696f6e206c6f776572207468616e206d696e696d756d2060008201527f636f6e747269627574696f6e0000000000000000000000000000000000000000602082015250565b6000611b10602c8361121f565b9150611b1b82611ab4565b604082019050919050565b60006020820190508181036000830152611b3f81611b03565b9050919050565b6000604082019050611b5b60008301856111f5565b611b686020830184610f15565b9392505050565b7f4f776e61626c653a206e6577206f776e657220697320746865207a65726f206160008201527f6464726573730000000000000000000000000000000000000000000000000000602082015250565b6000611bcb60268361121f565b9150611bd682611b6f565b604082019050919050565b60006020820190508181036000830152611bfa81611bbe565b9050919050565b7f4f776e61626c653a2063616c6c6572206973206e6f7420746865206f776e6572600082015250565b6000611c3760208361121f565b9150611c4282611c01565b602082019050919050565b60006020820190508181036000830152611c6681611c2a565b9050919050565b7f6e657720706f6c6c20686173206e6f74206265656e2073746172746564000000600082015250565b6000611ca3601d8361121f565b9150611cae82611c6d565b602082019050919050565b60006020820190508181036000830152611cd281611c96565b905091905056fea264697066735822122030dfd4371cbd83c84cbc514a54d98a9dd48da5d208c892919aa51ddda01ae5a564736f6c63430008090033",
  "linkReferences": {},
  "deployedLinkReferences": {}
}