{
  "_format": "hh-sol-artifact-1",
  "contractName": "CrowdFunding",
  "sourceName": "contracts/CrowdFunding.sol",
  "abi": [
    {
      "inputs": [
        {
          "internalType": "uint256",
          "name": "_duration",
          "type": "uint256"
        },
        {
          "internalType": "uint256",
          "name": "_minimumContribution",
          "type": "uint256"
        },
        {
          "internalType": "uint256",
          "name": "_minimumTarget",
          "type": "uint256"
        }
      ],
      "stateMutability": "nonpayable",
      "type": "constructor"
    },
    {
      "anonymous": false,
      "inputs": [
        {
          "indexed": true,
          "internalType": "address",
          "name": "previousOwner",
          "type": "address"
        },
        {
          "indexed": true,
          "internalType": "address",
          "name": "newOwner",
          "type": "address"
        }
      ],
      "name": "OwnershipTransferred",
      "type": "event"
    },
    {
      "anonymous": false,
      "inputs": [
        {
          "indexed": false,
          "internalType": "address",
          "name": "",
          "type": "address"
        },
        {
          "indexed": false,
          "internalType": "uint256",
          "name": "",
          "type": "uint256"
        }
      ],
      "name": "Received",
      "type": "event"
    },
    {
      "anonymous": false,
      "inputs": [
        {
          "indexed": true,
          "internalType": "uint256",
          "name": "pollNumber",
          "type": "uint256"
        },
        {
          "indexed": false,
          "internalType": "string",
          "name": "notion",
          "type": "string"
        },
        {
          "indexed": true,
          "internalType": "uint256",
          "name": "amount",
          "type": "uint256"
        },
        {
          "indexed": true,
          "internalType": "address",
          "name": "reciver",
          "type": "address"
        }
      ],
      "name": "pollStarted",
      "type": "event"
    },
    {
      "inputs": [
        {
          "internalType": "address",
          "name": "_address",
          "type": "address"
        }
      ],
      "name": "balance",
      "outputs": [
        {
          "internalType": "uint256",
          "name": "",
          "type": "uint256"
        }
      ],
      "stateMutability": "view",
      "type": "function"
    },
    {
      "inputs": [],
      "name": "contribute",
      "outputs": [],
      "stateMutability": "payable",
      "type": "function"
    },
    {
      "inputs": [],
      "name": "hasDeadlinePassed",
      "outputs": [
        {
          "internalType": "bool",
          "name": "",
          "type": "bool"
        }
      ],
      "stateMutability": "view",
      "type": "function"
    },
    {
      "inputs": [],
      "name": "numberOfContributers",
      "outputs": [
        {
          "internalType": "uint256",
          "name": "",
          "type": "uint256"
        }
      ],
      "stateMutability": "view",
      "type": "function"
    },
    {
      "inputs": [],
      "name": "numberOfYesses",
      "outputs": [
        {
          "internalType": "uint256",
          "name": "",
          "type": "uint256"
        }
      ],
      "stateMutability": "view",
      "type": "function"
    },
    {
      "inputs": [
        {
          "internalType": "string",
          "name": "_notion",
          "type": "string"
        },
        {
          "internalType": "uint256",
          "name": "_amount",
          "type": "uint256"
        },
        {
          "internalType": "address",
          "name": "_reciever",
          "type": "address"
        }
      ],
      "name": "openPoll",
      "outputs": [],
      "stateMutability": "nonpayable",
      "type": "function"
    },
    {
      "inputs": [],
      "name": "owner",
      "outputs": [
        {
          "internalType": "address",
          "name": "",
          "type": "address"
        }
      ],
      "stateMutability": "view",
      "type": "function"
    },
    {
      "inputs": [],
      "name": "recoverContribution",
      "outputs": [],
      "stateMutability": "payable",
      "type": "function"
    },
    {
      "inputs": [],
      "name": "renounceOwnership",
      "outputs": [],
      "stateMutability": "nonpayable",
      "type": "function"
    },
    {
      "inputs": [
        {
          "internalType": "address",
          "name": "_address",
          "type": "address"
        }
      ],
      "name": "seeContribution",
      "outputs": [
        {
          "internalType": "uint256",
          "name": "",
          "type": "uint256"
        }
      ],
      "stateMutability": "view",
      "type": "function"
    },
    {
      "inputs": [
        {
          "internalType": "address",
          "name": "newOwner",
          "type": "address"
        }
      ],
      "name": "transferOwnership",
      "outputs": [],
      "stateMutability": "nonpayable",
      "type": "function"
    },
    {
      "inputs": [],
      "name": "vote",
      "outputs": [],
      "stateMutability": "nonpayable",
      "type": "function"
    },
    {
      "inputs": [],
      "name": "withdrawAmount",
      "outputs": [
        {
          "internalType": "bool",
          "name": "",
          "type": "bool"
        }
      ],
      "stateMutability": "nonpayable",
      "type": "function"
    }
  ],
  "bytecode": "0x608060405260006004556000600560006101000a81548160ff021916908315150217905550600060085560006009553480156200003b57600080fd5b5060405162001ef238038062001ef28339818101604052810190620000619190620001b8565b6200008162000075620000ac60201b60201c565b620000b460201b60201c565b82426200008f919062000243565b6001819055508160028190555080600381905550505050620002a0565b600033905090565b60008060009054906101000a900473ffffffffffffffffffffffffffffffffffffffff169050816000806101000a81548173ffffffffffffffffffffffffffffffffffffffff021916908373ffffffffffffffffffffffffffffffffffffffff1602179055508173ffffffffffffffffffffffffffffffffffffffff168173ffffffffffffffffffffffffffffffffffffffff167f8be0079c531659141344cd1fd0a4f28419497f9722a3daafe3b4186f6b6457e060405160405180910390a35050565b600080fd5b6000819050919050565b62000192816200017d565b81146200019e57600080fd5b50565b600081519050620001b28162000187565b92915050565b600080600060608486031215620001d457620001d362000178565b5b6000620001e486828701620001a1565b9350506020620001f786828701620001a1565b92505060406200020a86828701620001a1565b9150509250925092565b7f4e487b7100000000000000000000000000000000000000000000000000000000600052601160045260246000fd5b600062000250826200017d565b91506200025d836200017d565b9250827fffffffffffffffffffffffffffffffffffffffffffffffffffffffffffffffff0382111562000295576200029462000214565b5b828201905092915050565b611c4280620002b06000396000f3fe6080604052600436106100c25760003560e01c8063795cd1af1161007f57806396e3f4c51161005957806396e3f4c514610211578063d7bb99ba1461023c578063e3d670d714610246578063f2fde38b14610283576100c2565b8063795cd1af146101b35780638a31bbad146101bd5780638da5cb5b146101e6576100c2565b806303eb9d3d146100c757806312409e5a146100f257806320dd3de71461012f578063534844a21461015a578063632a9a5214610185578063715018a61461019c575b600080fd5b3480156100d357600080fd5b506100dc6102ac565b6040516100e99190610ec3565b60405180910390f35b3480156100fe57600080fd5b5061011960048036038101906101149190610f50565b6102b2565b6040516101269190610ec3565b60405180910390f35b34801561013b57600080fd5b506101446102fb565b6040516101519190610ec3565b60405180910390f35b34801561016657600080fd5b5061016f610301565b60405161017c9190610f98565b60405180910390f35b34801561019157600080fd5b5061019a610417565b005b3480156101a857600080fd5b506101b1610693565b005b6101bb6106a7565b005b3480156101c957600080fd5b506101e460048036038101906101df9190611125565b610895565b005b3480156101f257600080fd5b506101fb610a3a565b60405161020891906111a3565b60405180910390f35b34801561021d57600080fd5b50610226610a63565b6040516102339190610f98565b60405180910390f35b610244610a80565b005b34801561025257600080fd5b5061026d60048036038101906102689190610f50565b610c2e565b60405161027a9190610ec3565b60405180910390f35b34801561028f57600080fd5b506102aa60048036038101906102a59190610f50565b610c4f565b005b60095481565b6000600b60008373ffffffffffffffffffffffffffffffffffffffff1673ffffffffffffffffffffffffffffffffffffffff168152602001908152602001600020549050919050565b60085481565b600061030b610cd3565b610313610a63565b610352576040517f08c379a00000000000000000000000000000000000000000000000000000000081526004016103499061121b565b60405180910390fd5b61035a610d51565b6000600854606460095461036e919061126a565b61037891906112f3565b905060006009819055506000600654905060006006819055506032821061040d57600760009054906101000a900473ffffffffffffffffffffffffffffffffffffffff1673ffffffffffffffffffffffffffffffffffffffff166108fc829081150290604051600060405180830381858888f19350505050158015610401573d6000803e3d6000fd5b50600192505050610414565b6000925050505b90565b60011515600560009054906101000a900460ff1615151461046d576040517f08c379a000000000000000000000000000000000000000000000000000000000815260040161046490611370565b60405180910390fd5b610475610a3a565b73ffffffffffffffffffffffffffffffffffffffff163373ffffffffffffffffffffffffffffffffffffffff1614156104e3576040517f08c379a00000000000000000000000000000000000000000000000000000000081526004016104da906113dc565b60405180910390fd5b6000600b60003373ffffffffffffffffffffffffffffffffffffffff1673ffffffffffffffffffffffffffffffffffffffff168152602001908152602001600020541415610566576040517f08c379a000000000000000000000000000000000000000000000000000000000815260040161055d9061146e565b60405180910390fd5b60001515600a6000600454815260200190815260200160002060003373ffffffffffffffffffffffffffffffffffffffff1673ffffffffffffffffffffffffffffffffffffffff16815260200190815260200160002060009054906101000a900460ff1615151461060c576040517f08c379a0000000000000000000000000000000000000000000000000000000008152600401610603906114da565b60405180910390fd5b6001600a6000600454815260200190815260200160002060003373ffffffffffffffffffffffffffffffffffffffff1673ffffffffffffffffffffffffffffffffffffffff16815260200190815260200160002060006101000a81548160ff02191690831515021790555060016009600082825461068a91906114fa565b92505081905550565b61069b610cd3565b6106a56000610dde565b565b6106af610a63565b6106ee576040517f08c379a00000000000000000000000000000000000000000000000000000000081526004016106e5906115e8565b60405180910390fd5b60035447108061070057506003600854105b61073f576040517f08c379a0000000000000000000000000000000000000000000000000000000008152600401610736906116a0565b60405180910390fd5b6000600b60003373ffffffffffffffffffffffffffffffffffffffff1673ffffffffffffffffffffffffffffffffffffffff1681526020019081526020016000205414156107c2576040517f08c379a00000000000000000000000000000000000000000000000000000000081526004016107b990611732565b60405180910390fd5b6000600b60003373ffffffffffffffffffffffffffffffffffffffff1673ffffffffffffffffffffffffffffffffffffffff1681526020019081526020016000205490506000600b60003373ffffffffffffffffffffffffffffffffffffffff1673ffffffffffffffffffffffffffffffffffffffff168152602001908152602001600020819055503373ffffffffffffffffffffffffffffffffffffffff166108fc829081150290604051600060405180830381858888f19350505050158015610891573d6000803e3d6000fd5b5050565b61089d610cd3565b6108a5610a63565b6108e4576040517f08c379a00000000000000000000000000000000000000000000000000000000081526004016108db9061121b565b60405180910390fd5b60001515600560009054906101000a900460ff1615151461093a576040517f08c379a0000000000000000000000000000000000000000000000000000000008152600401610931906117c4565b60405180910390fd5b60036008541015610980576040517f08c379a000000000000000000000000000000000000000000000000000000000815260040161097790611830565b60405180910390fd5b6001600560006101000a81548160ff0219169083151502179055508073ffffffffffffffffffffffffffffffffffffffff16826004547f4414cbcf3a9501da2d1828e5cad5023ced607fdf079a496b8c6209c7c540e2d6866040516109e591906118c7565b60405180910390a48160068190555080600760006101000a81548173ffffffffffffffffffffffffffffffffffffffff021916908373ffffffffffffffffffffffffffffffffffffffff160217905550505050565b60008060009054906101000a900473ffffffffffffffffffffffffffffffffffffffff16905090565b6000600154421115610a785760019050610a7d565b600090505b90565b610a88610a3a565b73ffffffffffffffffffffffffffffffffffffffff163373ffffffffffffffffffffffffffffffffffffffff161415610af6576040517f08c379a0000000000000000000000000000000000000000000000000000000008152600401610aed90611935565b60405180910390fd5b610afe610a63565b15610b3e576040517f08c379a0000000000000000000000000000000000000000000000000000000008152600401610b35906119c7565b60405180910390fd5b346002541115610b83576040517f08c379a0000000000000000000000000000000000000000000000000000000008152600401610b7a90611a59565b60405180910390fd5b7f88a5966d370b9919b20f3e2c13ff65706f196a4e32cc2c12bf57088f885258743334604051610bb4929190611a79565b60405180910390a134600b60003373ffffffffffffffffffffffffffffffffffffffff1673ffffffffffffffffffffffffffffffffffffffff1681526020019081526020016000206000828254610c0b91906114fa565b92505081905550600160086000828254610c2591906114fa565b92505081905550565b60008173ffffffffffffffffffffffffffffffffffffffff16319050919050565b610c57610cd3565b600073ffffffffffffffffffffffffffffffffffffffff168173ffffffffffffffffffffffffffffffffffffffff161415610cc7576040517f08c379a0000000000000000000000000000000000000000000000000000000008152600401610cbe90611b14565b60405180910390fd5b610cd081610dde565b50565b610cdb610ea2565b73ffffffffffffffffffffffffffffffffffffffff16610cf9610a3a565b73ffffffffffffffffffffffffffffffffffffffff1614610d4f576040517f08c379a0000000000000000000000000000000000000000000000000000000008152600401610d4690611b80565b60405180910390fd5b565b60011515600560009054906101000a900460ff16151514610da7576040517f08c379a0000000000000000000000000000000000000000000000000000000008152600401610d9e90611bec565b60405180910390fd5b6000600560006101000a81548160ff021916908315150217905550600160046000828254610dd591906114fa565b92505081905550565b60008060009054906101000a900473ffffffffffffffffffffffffffffffffffffffff169050816000806101000a81548173ffffffffffffffffffffffffffffffffffffffff021916908373ffffffffffffffffffffffffffffffffffffffff1602179055508173ffffffffffffffffffffffffffffffffffffffff168173ffffffffffffffffffffffffffffffffffffffff167f8be0079c531659141344cd1fd0a4f28419497f9722a3daafe3b4186f6b6457e060405160405180910390a35050565b600033905090565b6000819050919050565b610ebd81610eaa565b82525050565b6000602082019050610ed86000830184610eb4565b92915050565b6000604051905090565b600080fd5b600080fd5b600073ffffffffffffffffffffffffffffffffffffffff82169050919050565b6000610f1d82610ef2565b9050919050565b610f2d81610f12565b8114610f3857600080fd5b50565b600081359050610f4a81610f24565b92915050565b600060208284031215610f6657610f65610ee8565b5b6000610f7484828501610f3b565b91505092915050565b60008115159050919050565b610f9281610f7d565b82525050565b6000602082019050610fad6000830184610f89565b92915050565b600080fd5b600080fd5b6000601f19601f8301169050919050565b7f4e487b7100000000000000000000000000000000000000000000000000000000600052604160045260246000fd5b61100682610fbd565b810181811067ffffffffffffffff8211171561102557611024610fce565b5b80604052505050565b6000611038610ede565b90506110448282610ffd565b919050565b600067ffffffffffffffff82111561106457611063610fce565b5b61106d82610fbd565b9050602081019050919050565b82818337600083830152505050565b600061109c61109784611049565b61102e565b9050828152602081018484840111156110b8576110b7610fb8565b5b6110c384828561107a565b509392505050565b600082601f8301126110e0576110df610fb3565b5b81356110f0848260208601611089565b91505092915050565b61110281610eaa565b811461110d57600080fd5b50565b60008135905061111f816110f9565b92915050565b60008060006060848603121561113e5761113d610ee8565b5b600084013567ffffffffffffffff81111561115c5761115b610eed565b5b611168868287016110cb565b935050602061117986828701611110565b925050604061118a86828701610f3b565b9150509250925092565b61119d81610f12565b82525050565b60006020820190506111b86000830184611194565b92915050565b600082825260208201905092915050565b7f646561646c696e6520686173206e6f7420706173736564000000000000000000600082015250565b60006112056017836111be565b9150611210826111cf565b602082019050919050565b60006020820190508181036000830152611234816111f8565b9050919050565b7f4e487b7100000000000000000000000000000000000000000000000000000000600052601160045260246000fd5b600061127582610eaa565b915061128083610eaa565b9250817fffffffffffffffffffffffffffffffffffffffffffffffffffffffffffffffff04831182151516156112b9576112b861123b565b5b828202905092915050565b7f4e487b7100000000000000000000000000000000000000000000000000000000600052601260045260246000fd5b60006112fe82610eaa565b915061130983610eaa565b925082611319576113186112c4565b5b828204905092915050565b7f706f6c6c20686173206e6f742073746172746564000000000000000000000000600082015250565b600061135a6014836111be565b915061136582611324565b602082019050919050565b600060208201905081810360008301526113898161134d565b9050919050565b7f746865206d616e616765722063616e6e6f7420766f7465000000000000000000600082015250565b60006113c66017836111be565b91506113d182611390565b602082019050919050565b600060208201905081810360008301526113f5816113b9565b9050919050565b7f796f752068617665206e6f7420636f6e747269627574656420616e797468696e60008201527f672c206e6f7420656c696769626c6520746f20766f7465000000000000000000602082015250565b60006114586037836111be565b9150611463826113fc565b604082019050919050565b600060208201905081810360008301526114878161144b565b9050919050565b7f796f75206861766520616c726561647920766f74656400000000000000000000600082015250565b60006114c46016836111be565b91506114cf8261148e565b602082019050919050565b600060208201905081810360008301526114f3816114b7565b9050919050565b600061150582610eaa565b915061151083610eaa565b9250827fffffffffffffffffffffffffffffffffffffffffffffffffffffffffffffffff038211156115455761154461123b565b5b828201905092915050565b7f646561646c696e6520686173206e6f74207061737365642c20636f6e7472696260008201527f7574696f6e732063616e6e6f74206265207265636f766572656420726967687460208201527f6e6f770000000000000000000000000000000000000000000000000000000000604082015250565b60006115d26043836111be565b91506115dd82611550565b606082019050919050565b60006020820190508181036000830152611601816115c5565b9050919050565b7f74617267657420686173206265656e206d65742c2063616e6e6f74207265636f60008201527f76657220636f6e747269627574696f6e73206e6f77206f72206d6f726520746860208201527f616e20746872656520636f6e7472696275746f72730000000000000000000000604082015250565b600061168a6055836111be565b915061169582611608565b606082019050919050565b600060208201905081810360008301526116b98161167d565b9050919050565b7f796f752068617665206e6f7420636f6e747269627574656420616e797468696e60008201527f6700000000000000000000000000000000000000000000000000000000000000602082015250565b600061171c6021836111be565b9150611727826116c0565b604082019050919050565b6000602082019050818103600083015261174b8161170f565b9050919050565b7f70726576696f757320706f6c6c20686173206e6f74206265656e20636c6f736560008201527f6420796574000000000000000000000000000000000000000000000000000000602082015250565b60006117ae6025836111be565b91506117b982611752565b604082019050919050565b600060208201905081810360008301526117dd816117a1565b9050919050565b7f696e73756666696369656e7420636f6e74726962757465727300000000000000600082015250565b600061181a6019836111be565b9150611825826117e4565b602082019050919050565b600060208201905081810360008301526118498161180d565b9050919050565b600081519050919050565b60005b8381101561187957808201518184015260208101905061185e565b83811115611888576000848401525b50505050565b600061189982611850565b6118a381856111be565b93506118b381856020860161185b565b6118bc81610fbd565b840191505092915050565b600060208201905081810360008301526118e1818461188e565b905092915050565b7f746865206d616e616765722063616e6e6f7420636f6e74726962757465000000600082015250565b600061191f601d836111be565b915061192a826118e9565b602082019050919050565b6000602082019050818103600083015261194e81611912565b9050919050565b7f646561646c696e6520686173207061737365642c20636f6e747269627574696f60008201527f6e732061726520636c6f73656400000000000000000000000000000000000000602082015250565b60006119b1602d836111be565b91506119bc82611955565b604082019050919050565b600060208201905081810360008301526119e0816119a4565b9050919050565b7f636f6e747269627574696f6e206c6f776572207468616e206d696e696d756d2060008201527f636f6e747269627574696f6e0000000000000000000000000000000000000000602082015250565b6000611a43602c836111be565b9150611a4e826119e7565b604082019050919050565b60006020820190508181036000830152611a7281611a36565b9050919050565b6000604082019050611a8e6000830185611194565b611a9b6020830184610eb4565b9392505050565b7f4f776e61626c653a206e6577206f776e657220697320746865207a65726f206160008201527f6464726573730000000000000000000000000000000000000000000000000000602082015250565b6000611afe6026836111be565b9150611b0982611aa2565b604082019050919050565b60006020820190508181036000830152611b2d81611af1565b9050919050565b7f4f776e61626c653a2063616c6c6572206973206e6f7420746865206f776e6572600082015250565b6000611b6a6020836111be565b9150611b7582611b34565b602082019050919050565b60006020820190508181036000830152611b9981611b5d565b9050919050565b7f6e657720706f6c6c20686173206e6f74206265656e2073746172746564000000600082015250565b6000611bd6601d836111be565b9150611be182611ba0565b602082019050919050565b60006020820190508181036000830152611c0581611bc9565b905091905056fea264697066735822122049c3cdf438a0f7314abe814b734e6630b28ad6df00811018c1803b72abbbdd8864736f6c63430008090033",
  "linkReferences": {},
  "deployedLinkReferences": {}
}