{
  "_format": "hh-sol-artifact-1",
  "contractName": "CrowdFunding",
  "sourceName": "contracts/CrowdFunding.sol",
  "abi": [
    {
      "inputs": [
        {
          "internalType": "uint256",
          "name": "_duration",
          "type": "uint256"
        },
        {
          "internalType": "uint256",
          "name": "_minimumContribution",
          "type": "uint256"
        },
        {
          "internalType": "uint256",
          "name": "_minimumTarget",
          "type": "uint256"
        }
      ],
      "stateMutability": "nonpayable",
      "type": "constructor"
    },
    {
      "anonymous": false,
      "inputs": [
        {
          "indexed": true,
          "internalType": "address",
          "name": "previousOwner",
          "type": "address"
        },
        {
          "indexed": true,
          "internalType": "address",
          "name": "newOwner",
          "type": "address"
        }
      ],
      "name": "OwnershipTransferred",
      "type": "event"
    },
    {
      "anonymous": false,
      "inputs": [
        {
          "indexed": false,
          "internalType": "address",
          "name": "",
          "type": "address"
        },
        {
          "indexed": false,
          "internalType": "uint256",
          "name": "",
          "type": "uint256"
        }
      ],
      "name": "Received",
      "type": "event"
    },
    {
      "anonymous": false,
      "inputs": [
        {
          "indexed": true,
          "internalType": "uint256",
          "name": "pollNumber",
          "type": "uint256"
        },
        {
          "indexed": true,
          "internalType": "string",
          "name": "notion",
          "type": "string"
        },
        {
          "indexed": true,
          "internalType": "uint256",
          "name": "amount",
          "type": "uint256"
        }
      ],
      "name": "pollStarted",
      "type": "event"
    },
    {
      "inputs": [
        {
          "internalType": "address",
          "name": "_address",
          "type": "address"
        }
      ],
      "name": "balance",
      "outputs": [
        {
          "internalType": "uint256",
          "name": "",
          "type": "uint256"
        }
      ],
      "stateMutability": "view",
      "type": "function"
    },
    {
      "inputs": [],
      "name": "contribute",
      "outputs": [],
      "stateMutability": "payable",
      "type": "function"
    },
    {
      "inputs": [],
      "name": "hasDeadlinePassed",
      "outputs": [
        {
          "internalType": "bool",
          "name": "",
          "type": "bool"
        }
      ],
      "stateMutability": "view",
      "type": "function"
    },
    {
      "inputs": [],
      "name": "numberOfContributers",
      "outputs": [
        {
          "internalType": "uint256",
          "name": "",
          "type": "uint256"
        }
      ],
      "stateMutability": "view",
      "type": "function"
    },
    {
      "inputs": [],
      "name": "numberOfYesses",
      "outputs": [
        {
          "internalType": "uint256",
          "name": "",
          "type": "uint256"
        }
      ],
      "stateMutability": "view",
      "type": "function"
    },
    {
      "inputs": [
        {
          "internalType": "string",
          "name": "_notion",
          "type": "string"
        },
        {
          "internalType": "uint256",
          "name": "_amount",
          "type": "uint256"
        }
      ],
      "name": "openPoll",
      "outputs": [],
      "stateMutability": "nonpayable",
      "type": "function"
    },
    {
      "inputs": [],
      "name": "owner",
      "outputs": [
        {
          "internalType": "address",
          "name": "",
          "type": "address"
        }
      ],
      "stateMutability": "view",
      "type": "function"
    },
    {
      "inputs": [],
      "name": "recoverContribution",
      "outputs": [],
      "stateMutability": "payable",
      "type": "function"
    },
    {
      "inputs": [],
      "name": "renounceOwnership",
      "outputs": [],
      "stateMutability": "nonpayable",
      "type": "function"
    },
    {
      "inputs": [
        {
          "internalType": "address",
          "name": "_address",
          "type": "address"
        }
      ],
      "name": "seeContribution",
      "outputs": [
        {
          "internalType": "uint256",
          "name": "",
          "type": "uint256"
        }
      ],
      "stateMutability": "view",
      "type": "function"
    },
    {
      "inputs": [
        {
          "internalType": "address",
          "name": "newOwner",
          "type": "address"
        }
      ],
      "name": "transferOwnership",
      "outputs": [],
      "stateMutability": "nonpayable",
      "type": "function"
    },
    {
      "inputs": [],
      "name": "vote",
      "outputs": [],
      "stateMutability": "nonpayable",
      "type": "function"
    },
    {
      "inputs": [],
      "name": "withdrawAmount",
      "outputs": [
        {
          "internalType": "bool",
          "name": "",
          "type": "bool"
        }
      ],
      "stateMutability": "nonpayable",
      "type": "function"
    }
  ],
  "bytecode": "0x608060405260006004556000600560006101000a81548160ff021916908315150217905550600060075560006008553480156200003b57600080fd5b5060405162001e6738038062001e678339818101604052810190620000619190620001b8565b6200008162000075620000ac60201b60201c565b620000b460201b60201c565b82426200008f919062000243565b6001819055508160028190555080600381905550505050620002a0565b600033905090565b60008060009054906101000a900473ffffffffffffffffffffffffffffffffffffffff169050816000806101000a81548173ffffffffffffffffffffffffffffffffffffffff021916908373ffffffffffffffffffffffffffffffffffffffff1602179055508173ffffffffffffffffffffffffffffffffffffffff168173ffffffffffffffffffffffffffffffffffffffff167f8be0079c531659141344cd1fd0a4f28419497f9722a3daafe3b4186f6b6457e060405160405180910390a35050565b600080fd5b6000819050919050565b62000192816200017d565b81146200019e57600080fd5b50565b600081519050620001b28162000187565b92915050565b600080600060608486031215620001d457620001d362000178565b5b6000620001e486828701620001a1565b9350506020620001f786828701620001a1565b92505060406200020a86828701620001a1565b9150509250925092565b7f4e487b7100000000000000000000000000000000000000000000000000000000600052601160045260246000fd5b600062000250826200017d565b91506200025d836200017d565b9250827fffffffffffffffffffffffffffffffffffffffffffffffffffffffffffffffff0382111562000295576200029462000214565b5b828201905092915050565b611bb780620002b06000396000f3fe6080604052600436106100c25760003560e01c8063715018a61161007f57806396e3f4c51161005957806396e3f4c514610211578063d7bb99ba1461023c578063e3d670d714610246578063f2fde38b14610283576100c2565b8063715018a6146101c5578063795cd1af146101dc5780638da5cb5b146101e6576100c2565b806303eb9d3d146100c757806312409e5a146100f257806320dd3de71461012f5780633ad88ba31461015a578063534844a214610183578063632a9a52146101ae575b600080fd5b3480156100d357600080fd5b506100dc6102ac565b6040516100e99190610e53565b60405180910390f35b3480156100fe57600080fd5b5061011960048036038101906101149190610ee0565b6102b2565b6040516101269190610e53565b60405180910390f35b34801561013b57600080fd5b506101446102fb565b6040516101519190610e53565b60405180910390f35b34801561016657600080fd5b50610181600480360381019061017c919061107f565b610301565b005b34801561018f57600080fd5b50610198610458565b6040516101a591906110f6565b60405180910390f35b3480156101ba57600080fd5b506101c361054c565b005b3480156101d157600080fd5b506101da6107c8565b005b6101e46107dc565b005b3480156101f257600080fd5b506101fb6109ca565b6040516102089190611120565b60405180910390f35b34801561021d57600080fd5b506102266109f3565b60405161023391906110f6565b60405180910390f35b610244610a10565b005b34801561025257600080fd5b5061026d60048036038101906102689190610ee0565b610bbe565b60405161027a9190610e53565b60405180910390f35b34801561028f57600080fd5b506102aa60048036038101906102a59190610ee0565b610bdf565b005b60085481565b6000600a60008373ffffffffffffffffffffffffffffffffffffffff1673ffffffffffffffffffffffffffffffffffffffff168152602001908152602001600020549050919050565b60075481565b610309610c63565b6103116109f3565b610350576040517f08c379a000000000000000000000000000000000000000000000000000000000815260040161034790611198565b60405180910390fd5b60001515600560009054906101000a900460ff161515146103a6576040517f08c379a000000000000000000000000000000000000000000000000000000000815260040161039d9061122a565b60405180910390fd5b600360075410156103ec576040517f08c379a00000000000000000000000000000000000000000000000000000000081526004016103e390611296565b60405180910390fd5b6001600560006101000a81548160ff02191690831515021790555080826040516104169190611330565b60405180910390206004547fafae69facc8860725ea06093b6583a7ea26bc74da39ef1e009e79959aafd6c6860405160405180910390a4806006819055505050565b6000610462610c63565b61046a6109f3565b6104a9576040517f08c379a00000000000000000000000000000000000000000000000000000000081526004016104a090611198565b60405180910390fd5b6104b1610ce1565b600060075460646008546104c59190611376565b6104cf91906113ff565b90506000600881905550600060068190555060328110610543576104f16109ca565b73ffffffffffffffffffffffffffffffffffffffff166108fc6006549081150290604051600060405180830381858888f19350505050158015610538573d6000803e3d6000fd5b506001915050610549565b60009150505b90565b60011515600560009054906101000a900460ff161515146105a2576040517f08c379a00000000000000000000000000000000000000000000000000000000081526004016105999061147c565b60405180910390fd5b6105aa6109ca565b73ffffffffffffffffffffffffffffffffffffffff163373ffffffffffffffffffffffffffffffffffffffff161415610618576040517f08c379a000000000000000000000000000000000000000000000000000000000815260040161060f906114e8565b60405180910390fd5b6000600a60003373ffffffffffffffffffffffffffffffffffffffff1673ffffffffffffffffffffffffffffffffffffffff16815260200190815260200160002054141561069b576040517f08c379a00000000000000000000000000000000000000000000000000000000081526004016106929061157a565b60405180910390fd5b6000151560096000600454815260200190815260200160002060003373ffffffffffffffffffffffffffffffffffffffff1673ffffffffffffffffffffffffffffffffffffffff16815260200190815260200160002060009054906101000a900460ff16151514610741576040517f08c379a0000000000000000000000000000000000000000000000000000000008152600401610738906115e6565b60405180910390fd5b600160096000600454815260200190815260200160002060003373ffffffffffffffffffffffffffffffffffffffff1673ffffffffffffffffffffffffffffffffffffffff16815260200190815260200160002060006101000a81548160ff0219169083151502179055506001600860008282546107bf9190611606565b92505081905550565b6107d0610c63565b6107da6000610d6e565b565b6107e46109f3565b610823576040517f08c379a000000000000000000000000000000000000000000000000000000000815260040161081a906116f4565b60405180910390fd5b60035447108061083557506003600754105b610874576040517f08c379a000000000000000000000000000000000000000000000000000000000815260040161086b906117ac565b60405180910390fd5b6000600a60003373ffffffffffffffffffffffffffffffffffffffff1673ffffffffffffffffffffffffffffffffffffffff1681526020019081526020016000205414156108f7576040517f08c379a00000000000000000000000000000000000000000000000000000000081526004016108ee9061183e565b60405180910390fd5b6000600a60003373ffffffffffffffffffffffffffffffffffffffff1673ffffffffffffffffffffffffffffffffffffffff1681526020019081526020016000205490506000600a60003373ffffffffffffffffffffffffffffffffffffffff1673ffffffffffffffffffffffffffffffffffffffff168152602001908152602001600020819055503373ffffffffffffffffffffffffffffffffffffffff166108fc829081150290604051600060405180830381858888f193505050501580156109c6573d6000803e3d6000fd5b5050565b60008060009054906101000a900473ffffffffffffffffffffffffffffffffffffffff16905090565b6000600154421115610a085760019050610a0d565b600090505b90565b610a186109ca565b73ffffffffffffffffffffffffffffffffffffffff163373ffffffffffffffffffffffffffffffffffffffff161415610a86576040517f08c379a0000000000000000000000000000000000000000000000000000000008152600401610a7d906118aa565b60405180910390fd5b610a8e6109f3565b15610ace576040517f08c379a0000000000000000000000000000000000000000000000000000000008152600401610ac59061193c565b60405180910390fd5b346002541115610b13576040517f08c379a0000000000000000000000000000000000000000000000000000000008152600401610b0a906119ce565b60405180910390fd5b7f88a5966d370b9919b20f3e2c13ff65706f196a4e32cc2c12bf57088f885258743334604051610b449291906119ee565b60405180910390a134600a60003373ffffffffffffffffffffffffffffffffffffffff1673ffffffffffffffffffffffffffffffffffffffff1681526020019081526020016000206000828254610b9b9190611606565b92505081905550600160076000828254610bb59190611606565b92505081905550565b60008173ffffffffffffffffffffffffffffffffffffffff16319050919050565b610be7610c63565b600073ffffffffffffffffffffffffffffffffffffffff168173ffffffffffffffffffffffffffffffffffffffff161415610c57576040517f08c379a0000000000000000000000000000000000000000000000000000000008152600401610c4e90611a89565b60405180910390fd5b610c6081610d6e565b50565b610c6b610e32565b73ffffffffffffffffffffffffffffffffffffffff16610c896109ca565b73ffffffffffffffffffffffffffffffffffffffff1614610cdf576040517f08c379a0000000000000000000000000000000000000000000000000000000008152600401610cd690611af5565b60405180910390fd5b565b60011515600560009054906101000a900460ff16151514610d37576040517f08c379a0000000000000000000000000000000000000000000000000000000008152600401610d2e90611b61565b60405180910390fd5b6000600560006101000a81548160ff021916908315150217905550600160046000828254610d659190611606565b92505081905550565b60008060009054906101000a900473ffffffffffffffffffffffffffffffffffffffff169050816000806101000a81548173ffffffffffffffffffffffffffffffffffffffff021916908373ffffffffffffffffffffffffffffffffffffffff1602179055508173ffffffffffffffffffffffffffffffffffffffff168173ffffffffffffffffffffffffffffffffffffffff167f8be0079c531659141344cd1fd0a4f28419497f9722a3daafe3b4186f6b6457e060405160405180910390a35050565b600033905090565b6000819050919050565b610e4d81610e3a565b82525050565b6000602082019050610e686000830184610e44565b92915050565b6000604051905090565b600080fd5b600080fd5b600073ffffffffffffffffffffffffffffffffffffffff82169050919050565b6000610ead82610e82565b9050919050565b610ebd81610ea2565b8114610ec857600080fd5b50565b600081359050610eda81610eb4565b92915050565b600060208284031215610ef657610ef5610e78565b5b6000610f0484828501610ecb565b91505092915050565b600080fd5b600080fd5b6000601f19601f8301169050919050565b7f4e487b7100000000000000000000000000000000000000000000000000000000600052604160045260246000fd5b610f6082610f17565b810181811067ffffffffffffffff82111715610f7f57610f7e610f28565b5b80604052505050565b6000610f92610e6e565b9050610f9e8282610f57565b919050565b600067ffffffffffffffff821115610fbe57610fbd610f28565b5b610fc782610f17565b9050602081019050919050565b82818337600083830152505050565b6000610ff6610ff184610fa3565b610f88565b90508281526020810184848401111561101257611011610f12565b5b61101d848285610fd4565b509392505050565b600082601f83011261103a57611039610f0d565b5b813561104a848260208601610fe3565b91505092915050565b61105c81610e3a565b811461106757600080fd5b50565b60008135905061107981611053565b92915050565b6000806040838503121561109657611095610e78565b5b600083013567ffffffffffffffff8111156110b4576110b3610e7d565b5b6110c085828601611025565b92505060206110d18582860161106a565b9150509250929050565b60008115159050919050565b6110f0816110db565b82525050565b600060208201905061110b60008301846110e7565b92915050565b61111a81610ea2565b82525050565b60006020820190506111356000830184611111565b92915050565b600082825260208201905092915050565b7f646561646c696e6520686173206e6f7420706173736564000000000000000000600082015250565b600061118260178361113b565b915061118d8261114c565b602082019050919050565b600060208201905081810360008301526111b181611175565b9050919050565b7f70726576696f757320706f6c6c20686173206e6f74206265656e20636c6f736560008201527f6420796574000000000000000000000000000000000000000000000000000000602082015250565b600061121460258361113b565b915061121f826111b8565b604082019050919050565b6000602082019050818103600083015261124381611207565b9050919050565b7f696e73756666696369656e7420636f6e74726962757465727300000000000000600082015250565b600061128060198361113b565b915061128b8261124a565b602082019050919050565b600060208201905081810360008301526112af81611273565b9050919050565b600081519050919050565b600081905092915050565b60005b838110156112ea5780820151818401526020810190506112cf565b838111156112f9576000848401525b50505050565b600061130a826112b6565b61131481856112c1565b93506113248185602086016112cc565b80840191505092915050565b600061133c82846112ff565b915081905092915050565b7f4e487b7100000000000000000000000000000000000000000000000000000000600052601160045260246000fd5b600061138182610e3a565b915061138c83610e3a565b9250817fffffffffffffffffffffffffffffffffffffffffffffffffffffffffffffffff04831182151516156113c5576113c4611347565b5b828202905092915050565b7f4e487b7100000000000000000000000000000000000000000000000000000000600052601260045260246000fd5b600061140a82610e3a565b915061141583610e3a565b925082611425576114246113d0565b5b828204905092915050565b7f706f6c6c20686173206e6f742073746172746564000000000000000000000000600082015250565b600061146660148361113b565b915061147182611430565b602082019050919050565b6000602082019050818103600083015261149581611459565b9050919050565b7f746865206d616e616765722063616e6e6f7420766f7465000000000000000000600082015250565b60006114d260178361113b565b91506114dd8261149c565b602082019050919050565b60006020820190508181036000830152611501816114c5565b9050919050565b7f796f752068617665206e6f7420636f6e747269627574656420616e797468696e60008201527f672c206e6f7420656c696769626c6520746f20766f7465000000000000000000602082015250565b600061156460378361113b565b915061156f82611508565b604082019050919050565b6000602082019050818103600083015261159381611557565b9050919050565b7f796f75206861766520616c726561647920766f74656400000000000000000000600082015250565b60006115d060168361113b565b91506115db8261159a565b602082019050919050565b600060208201905081810360008301526115ff816115c3565b9050919050565b600061161182610e3a565b915061161c83610e3a565b9250827fffffffffffffffffffffffffffffffffffffffffffffffffffffffffffffffff0382111561165157611650611347565b5b828201905092915050565b7f646561646c696e6520686173206e6f74207061737365642c20636f6e7472696260008201527f7574696f6e732063616e6e6f74206265207265636f766572656420726967687460208201527f6e6f770000000000000000000000000000000000000000000000000000000000604082015250565b60006116de60438361113b565b91506116e98261165c565b606082019050919050565b6000602082019050818103600083015261170d816116d1565b9050919050565b7f74617267657420686173206265656e206d65742c2063616e6e6f74207265636f60008201527f76657220636f6e747269627574696f6e73206e6f77206f72206d6f726520746860208201527f616e20746872656520636f6e7472696275746f72730000000000000000000000604082015250565b600061179660558361113b565b91506117a182611714565b606082019050919050565b600060208201905081810360008301526117c581611789565b9050919050565b7f796f752068617665206e6f7420636f6e747269627574656420616e797468696e60008201527f6700000000000000000000000000000000000000000000000000000000000000602082015250565b600061182860218361113b565b9150611833826117cc565b604082019050919050565b600060208201905081810360008301526118578161181b565b9050919050565b7f746865206d616e616765722063616e6e6f7420636f6e74726962757465000000600082015250565b6000611894601d8361113b565b915061189f8261185e565b602082019050919050565b600060208201905081810360008301526118c381611887565b9050919050565b7f646561646c696e6520686173207061737365642c20636f6e747269627574696f60008201527f6e732061726520636c6f73656400000000000000000000000000000000000000602082015250565b6000611926602d8361113b565b9150611931826118ca565b604082019050919050565b6000602082019050818103600083015261195581611919565b9050919050565b7f636f6e747269627574696f6e206c6f776572207468616e206d696e696d756d2060008201527f636f6e747269627574696f6e0000000000000000000000000000000000000000602082015250565b60006119b8602c8361113b565b91506119c38261195c565b604082019050919050565b600060208201905081810360008301526119e7816119ab565b9050919050565b6000604082019050611a036000830185611111565b611a106020830184610e44565b9392505050565b7f4f776e61626c653a206e6577206f776e657220697320746865207a65726f206160008201527f6464726573730000000000000000000000000000000000000000000000000000602082015250565b6000611a7360268361113b565b9150611a7e82611a17565b604082019050919050565b60006020820190508181036000830152611aa281611a66565b9050919050565b7f4f776e61626c653a2063616c6c6572206973206e6f7420746865206f776e6572600082015250565b6000611adf60208361113b565b9150611aea82611aa9565b602082019050919050565b60006020820190508181036000830152611b0e81611ad2565b9050919050565b7f6e657720706f6c6c20686173206e6f74206265656e2073746172746564000000600082015250565b6000611b4b601d8361113b565b9150611b5682611b15565b602082019050919050565b60006020820190508181036000830152611b7a81611b3e565b905091905056fea264697066735822122063c5b36f10c87ee7a982aa6de521cfff8a9a110a2e3869dd408cde0ef0e4919864736f6c63430008090033",
  "linkReferences": {},
  "deployedLinkReferences": {}
}