{
  "abi": [
    {
      "inputs": [
        {
          "internalType": "string",
          "name": "name_",
          "type": "string"
        },
        {
          "internalType": "string",
          "name": "symbol_",
          "type": "string"
        },
        {
          "internalType": "uint256",
          "name": "exponent_",
          "type": "uint256"
        },
        {
          "internalType": "uint256",
          "name": "constant_",
          "type": "uint256"
        }
      ],
      "stateMutability": "nonpayable",
      "type": "constructor"
    },
    {
      "inputs": [
        {
          "internalType": "uint256",
          "name": "amount",
          "type": "uint256"
        },
        {
          "internalType": "uint256",
          "name": "balance",
          "type": "uint256"
        }
      ],
      "name": "LowOnEther",
      "type": "error"
    },
    {
      "inputs": [
        {
          "internalType": "uint256",
          "name": "amount",
          "type": "uint256"
        },
        {
          "internalType": "uint256",
          "name": "balance",
          "type": "uint256"
        }
      ],
      "name": "LowOnTokens",
      "type": "error"
    },
    {
      "anonymous": false,
      "inputs": [
        {
          "indexed": true,
          "internalType": "address",
          "name": "owner",
          "type": "address"
        },
        {
          "indexed": true,
          "internalType": "address",
          "name": "spender",
          "type": "address"
        },
        {
          "indexed": false,
          "internalType": "uint256",
          "name": "value",
          "type": "uint256"
        }
      ],
      "name": "Approval",
      "type": "event"
    },
    {
      "anonymous": false,
      "inputs": [
        {
          "indexed": true,
          "internalType": "address",
          "name": "previousOwner",
          "type": "address"
        },
        {
          "indexed": true,
          "internalType": "address",
          "name": "newOwner",
          "type": "address"
        }
      ],
      "name": "OwnershipTransferred",
      "type": "event"
    },
    {
      "anonymous": false,
      "inputs": [
        {
          "indexed": true,
          "internalType": "address",
          "name": "from",
          "type": "address"
        },
        {
          "indexed": true,
          "internalType": "address",
          "name": "to",
          "type": "address"
        },
        {
          "indexed": false,
          "internalType": "uint256",
          "name": "value",
          "type": "uint256"
        }
      ],
      "name": "Transfer",
      "type": "event"
    },
    {
      "inputs": [
        {
          "internalType": "address",
          "name": "owner",
          "type": "address"
        },
        {
          "internalType": "address",
          "name": "spender",
          "type": "address"
        }
      ],
      "name": "allowance",
      "outputs": [
        {
          "internalType": "uint256",
          "name": "",
          "type": "uint256"
        }
      ],
      "stateMutability": "view",
      "type": "function"
    },
    {
      "inputs": [
        {
          "internalType": "address",
          "name": "spender",
          "type": "address"
        },
        {
          "internalType": "uint256",
          "name": "amount",
          "type": "uint256"
        }
      ],
      "name": "approve",
      "outputs": [
        {
          "internalType": "bool",
          "name": "",
          "type": "bool"
        }
      ],
      "stateMutability": "nonpayable",
      "type": "function"
    },
    {
      "inputs": [
        {
          "internalType": "address",
          "name": "account",
          "type": "address"
        }
      ],
      "name": "balanceOf",
      "outputs": [
        {
          "internalType": "uint256",
          "name": "",
          "type": "uint256"
        }
      ],
      "stateMutability": "view",
      "type": "function"
    },
    {
      "inputs": [
        {
          "internalType": "uint256",
          "name": "_amount",
          "type": "uint256"
        }
      ],
      "name": "buy",
      "outputs": [],
      "stateMutability": "payable",
      "type": "function"
    },
    {
      "inputs": [
        {
          "internalType": "uint256",
          "name": "_tokensToBuy",
          "type": "uint256"
        }
      ],
      "name": "calculatePriceForBuy",
      "outputs": [
        {
          "internalType": "uint256",
          "name": "",
          "type": "uint256"
        }
      ],
      "stateMutability": "view",
      "type": "function"
    },
    {
      "inputs": [
        {
          "internalType": "uint256",
          "name": "_tokensToSell",
          "type": "uint256"
        }
      ],
      "name": "calculatePriceForSell",
      "outputs": [
        {
          "internalType": "uint256",
          "name": "",
          "type": "uint256"
        }
      ],
      "stateMutability": "view",
      "type": "function"
    },
    {
      "inputs": [],
      "name": "decimals",
      "outputs": [
        {
          "internalType": "uint8",
          "name": "",
          "type": "uint8"
        }
      ],
      "stateMutability": "view",
      "type": "function"
    },
    {
      "inputs": [
        {
          "internalType": "address",
          "name": "spender",
          "type": "address"
        },
        {
          "internalType": "uint256",
          "name": "subtractedValue",
          "type": "uint256"
        }
      ],
      "name": "decreaseAllowance",
      "outputs": [
        {
          "internalType": "bool",
          "name": "",
          "type": "bool"
        }
      ],
      "stateMutability": "nonpayable",
      "type": "function"
    },
    {
      "inputs": [],
      "name": "getCurrentPrice",
      "outputs": [
        {
          "internalType": "uint256",
          "name": "",
          "type": "uint256"
        }
      ],
      "stateMutability": "view",
      "type": "function"
    },
    {
      "inputs": [
        {
          "internalType": "address",
          "name": "spender",
          "type": "address"
        },
        {
          "internalType": "uint256",
          "name": "addedValue",
          "type": "uint256"
        }
      ],
      "name": "increaseAllowance",
      "outputs": [
        {
          "internalType": "bool",
          "name": "",
          "type": "bool"
        }
      ],
      "stateMutability": "nonpayable",
      "type": "function"
    },
    {
      "inputs": [],
      "name": "name",
      "outputs": [
        {
          "internalType": "string",
          "name": "",
          "type": "string"
        }
      ],
      "stateMutability": "view",
      "type": "function"
    },
    {
      "inputs": [],
      "name": "owner",
      "outputs": [
        {
          "internalType": "address",
          "name": "",
          "type": "address"
        }
      ],
      "stateMutability": "view",
      "type": "function"
    },
    {
      "inputs": [],
      "name": "renounceOwnership",
      "outputs": [],
      "stateMutability": "nonpayable",
      "type": "function"
    },
    {
      "inputs": [
        {
          "internalType": "uint256",
          "name": "_amount",
          "type": "uint256"
        }
      ],
      "name": "sell",
      "outputs": [],
      "stateMutability": "nonpayable",
      "type": "function"
    },
    {
      "inputs": [],
      "name": "symbol",
      "outputs": [
        {
          "internalType": "string",
          "name": "",
          "type": "string"
        }
      ],
      "stateMutability": "view",
      "type": "function"
    },
    {
      "inputs": [],
      "name": "totalSupply",
      "outputs": [
        {
          "internalType": "uint256",
          "name": "",
          "type": "uint256"
        }
      ],
      "stateMutability": "view",
      "type": "function"
    },
    {
      "inputs": [
        {
          "internalType": "address",
          "name": "to",
          "type": "address"
        },
        {
          "internalType": "uint256",
          "name": "amount",
          "type": "uint256"
        }
      ],
      "name": "transfer",
      "outputs": [
        {
          "internalType": "bool",
          "name": "",
          "type": "bool"
        }
      ],
      "stateMutability": "nonpayable",
      "type": "function"
    },
    {
      "inputs": [
        {
          "internalType": "address",
          "name": "from",
          "type": "address"
        },
        {
          "internalType": "address",
          "name": "to",
          "type": "address"
        },
        {
          "internalType": "uint256",
          "name": "amount",
          "type": "uint256"
        }
      ],
      "name": "transferFrom",
      "outputs": [
        {
          "internalType": "bool",
          "name": "",
          "type": "bool"
        }
      ],
      "stateMutability": "nonpayable",
      "type": "function"
    },
    {
      "inputs": [
        {
          "internalType": "address",
          "name": "newOwner",
          "type": "address"
        }
      ],
      "name": "transferOwnership",
      "outputs": [],
      "stateMutability": "nonpayable",
      "type": "function"
    },
    {
      "inputs": [],
      "name": "withdraw",
      "outputs": [],
      "stateMutability": "nonpayable",
      "type": "function"
    }
  ],
  "bytecode": {
    "object": "0x60c06040523480156200001157600080fd5b50604051620015e6380380620015e683398101604081905262000034916200019d565b83836003620000448382620002a6565b506004620000538282620002a6565b505050620000706200006a6200008260201b60201c565b62000086565b60809190915260a05250620003729050565b3390565b600580546001600160a01b038381166001600160a01b0319831681179093556040519116919082907f8be0079c531659141344cd1fd0a4f28419497f9722a3daafe3b4186f6b6457e090600090a35050565b634e487b7160e01b600052604160045260246000fd5b600082601f8301126200010057600080fd5b81516001600160401b03808211156200011d576200011d620000d8565b604051601f8301601f19908116603f01168101908282118183101715620001485762000148620000d8565b816040528381526020925086838588010111156200016557600080fd5b600091505b838210156200018957858201830151818301840152908201906200016a565b600093810190920192909252949350505050565b60008060008060808587031215620001b457600080fd5b84516001600160401b0380821115620001cc57600080fd5b620001da88838901620000ee565b95506020870151915080821115620001f157600080fd5b506200020087828801620000ee565b604087015160609097015195989097509350505050565b600181811c908216806200022c57607f821691505b6020821081036200024d57634e487b7160e01b600052602260045260246000fd5b50919050565b601f821115620002a157600081815260208120601f850160051c810160208610156200027c5750805b601f850160051c820191505b818110156200029d5782815560010162000288565b5050505b505050565b81516001600160401b03811115620002c257620002c2620000d8565b620002da81620002d3845462000217565b8462000253565b602080601f831160018114620003125760008415620002f95750858301515b600019600386901b1c1916600185901b1785556200029d565b600085815260208120601f198616915b82811015620003435788860151825594840194600190910190840162000322565b5085821015620003625787850151600019600388901b60f8161c191681555b5050505050600190811b01905550565b60805160a05161124e620003986000396000610eb801526000610edc015261124e6000f3fe60806040526004361061011f5760003560e01c8063715018a6116100a0578063d96a094a11610064578063d96a094a1461031d578063dd62ed3e14610330578063e4849b3214610350578063eb91d37e14610370578063f2fde38b1461038557600080fd5b8063715018a61461028b5780638da5cb5b146102a057806395d89b41146102c8578063a457c2d7146102dd578063a9059cbb146102fd57600080fd5b806325f2b2ac116100e757806325f2b2ac146101e2578063313ce56714610202578063395093511461021e5780633ccfd60b1461023e57806370a082311461025557600080fd5b806306fdde0314610124578063095ea7b31461014f578063147499881461017f57806318160ddd146101ad57806323b872dd146101c2575b600080fd5b34801561013057600080fd5b506101396103a5565b6040516101469190610f0b565b60405180910390f35b34801561015b57600080fd5b5061016f61016a366004610f75565b610437565b6040519015158152602001610146565b34801561018b57600080fd5b5061019f61019a366004610f9f565b610451565b604051908152602001610146565b3480156101b957600080fd5b5060025461019f565b3480156101ce57600080fd5b5061016f6101dd366004610fb8565b61045c565b3480156101ee57600080fd5b5061019f6101fd366004610f9f565b610480565b34801561020e57600080fd5b5060405160128152602001610146565b34801561022a57600080fd5b5061016f610239366004610f75565b61048b565b34801561024a57600080fd5b506102536104ad565b005b34801561026157600080fd5b5061019f610270366004610ff4565b6001600160a01b031660009081526020819052604090205490565b34801561029757600080fd5b5061025361053c565b3480156102ac57600080fd5b506005546040516001600160a01b039091168152602001610146565b3480156102d457600080fd5b50610139610550565b3480156102e957600080fd5b5061016f6102f8366004610f75565b61055f565b34801561030957600080fd5b5061016f610318366004610f75565b6105da565b61025361032b366004610f9f565b6105e8565b34801561033c57600080fd5b5061019f61034b366004611016565b610664565b34801561035c57600080fd5b5061025361036b366004610f9f565b61068f565b34801561037c57600080fd5b5061019f610752565b34801561039157600080fd5b506102536103a0366004610ff4565b61077d565b6060600380546103b490611049565b80601f01602080910402602001604051908101604052809291908181526020018280546103e090611049565b801561042d5780601f106104025761010080835404028352916020019161042d565b820191906000526020600020905b81548152906001019060200180831161041057829003601f168201915b5050505050905090565b6000336104458185856107f6565b60019150505b92915050565b600061044b8261091a565b60003361046a858285610979565b6104758585856109ed565b506001949350505050565b600061044b82610b91565b60003361044581858561049e8383610664565b6104a89190611099565b6107f6565b6104b5610bfc565b6000600654116104eb57600654604051635f06b92b60e01b81526004810182905260248101919091526044015b60405180910390fd5b6006805460009091556005546001600160a01b03166001600160a01b03166108fc829081150290604051600060405180830381858888f19350505050158015610538573d6000803e3d6000fd5b5050565b610544610bfc565b61054e6000610c56565b565b6060600480546103b490611049565b6000338161056d8286610664565b9050838110156105cd5760405162461bcd60e51b815260206004820152602560248201527f45524332303a2064656372656173656420616c6c6f77616e63652062656c6f77604482015264207a65726f60d81b60648201526084016104e2565b61047582868684036107f6565b6000336104458185856109ed565b60006105f382610b91565b90508034101561061f57604051635f06b92b60e01b8152346004820152333160248201526044016104e2565b6106293383610ca8565b336108fc61063783346110ac565b6040518115909202916000818181858888f1935050505015801561065f573d6000803e3d6000fd5b505050565b6001600160a01b03918216600090815260016020908152604080832093909416825291909152205490565b336000908152602081905260409020548111156106da57336000908152602081905260409020548190604051630fcd33d560e01b8152600481019290925260248201526044016104e2565b60006106e58261091a565b905060006106f282610d67565b90506106fe3384610d82565b80600660008282546107109190611099565b909155503390506108fc61072483856110ac565b6040518115909202916000818181858888f1935050505015801561074c573d6000803e3d6000fd5b50505050565b600061075d60025490565b61076e61076960025490565b610eb4565b61077891906110bf565b905090565b610785610bfc565b6001600160a01b0381166107ea5760405162461bcd60e51b815260206004820152602660248201527f4f776e61626c653a206e6577206f776e657220697320746865207a65726f206160448201526564647265737360d01b60648201526084016104e2565b6107f381610c56565b50565b6001600160a01b0383166108585760405162461bcd60e51b8152602060048201526024808201527f45524332303a20617070726f76652066726f6d20746865207a65726f206164646044820152637265737360e01b60648201526084016104e2565b6001600160a01b0382166108b95760405162461bcd60e51b815260206004820152602260248201527f45524332303a20617070726f766520746f20746865207a65726f206164647265604482015261737360f01b60648201526084016104e2565b6001600160a01b0383811660008181526001602090815260408083209487168084529482529182902085905590518481527f8c5be1e5ebec7d5bd14f71427d1e84f3dd0314c0f7b2291e5b200ac8c7c3b925910160405180910390a3505050565b60008061092660025490565b90508083111561093557600080fd5b6000815b61094385846110ac565b8111156109715761095381610eb4565b61095d9083611099565b915080610969816110d6565b915050610939565b509392505050565b60006109858484610664565b9050600019811461074c57818110156109e05760405162461bcd60e51b815260206004820152601d60248201527f45524332303a20696e73756666696369656e7420616c6c6f77616e636500000060448201526064016104e2565b61074c84848484036107f6565b6001600160a01b038316610a515760405162461bcd60e51b815260206004820152602560248201527f45524332303a207472616e736665722066726f6d20746865207a65726f206164604482015264647265737360d81b60648201526084016104e2565b6001600160a01b038216610ab35760405162461bcd60e51b815260206004820152602360248201527f45524332303a207472616e7366657220746f20746865207a65726f206164647260448201526265737360e81b60648201526084016104e2565b6001600160a01b03831660009081526020819052604090205481811015610b2b5760405162461bcd60e51b815260206004820152602660248201527f45524332303a207472616e7366657220616d6f756e7420657863656564732062604482015265616c616e636560d01b60648201526084016104e2565b6001600160a01b03848116600081815260208181526040808320878703905593871680835291849020805487019055925185815290927fddf252ad1be2c89b69c2b068fc378daa952ba7f163c4a11628f55a4df523b3ef910160405180910390a361074c565b60008080610b9e60025490565b90506000610bad826001611099565b90505b610bba8583611099565b610bc5906001611099565b811015610bf357610bd581610eb4565b610bdf9084611099565b925080610beb816110ed565b915050610bb0565b50909392505050565b6005546001600160a01b0316331461054e5760405162461bcd60e51b815260206004820181905260248201527f4f776e61626c653a2063616c6c6572206973206e6f7420746865206f776e657260448201526064016104e2565b600580546001600160a01b038381166001600160a01b0319831681179093556040519116919082907f8be0079c531659141344cd1fd0a4f28419497f9722a3daafe3b4186f6b6457e090600090a35050565b6001600160a01b038216610cfe5760405162461bcd60e51b815260206004820152601f60248201527f45524332303a206d696e7420746f20746865207a65726f20616464726573730060448201526064016104e2565b8060026000828254610d109190611099565b90915550506001600160a01b038216600081815260208181526040808320805486019055518481527fddf252ad1be2c89b69c2b068fc378daa952ba7f163c4a11628f55a4df523b3ef910160405180910390a35050565b6000612710610d786103e8846110bf565b61044b9190611106565b6001600160a01b038216610de25760405162461bcd60e51b815260206004820152602160248201527f45524332303a206275726e2066726f6d20746865207a65726f206164647265736044820152607360f81b60648201526084016104e2565b6001600160a01b03821660009081526020819052604090205481811015610e565760405162461bcd60e51b815260206004820152602260248201527f45524332303a206275726e20616d6f756e7420657863656564732062616c616e604482015261636560f01b60648201526084016104e2565b6001600160a01b0383166000818152602081815260408083208686039055600280548790039055518581529192917fddf252ad1be2c89b69c2b068fc378daa952ba7f163c4a11628f55a4df523b3ef910160405180910390a3505050565b60007f0000000000000000000000000000000000000000000000000000000000000000610f017f00000000000000000000000000000000000000000000000000000000000000008461120c565b61044b9190611099565b600060208083528351808285015260005b81811015610f3857858101830151858201604001528201610f1c565b506000604082860101526040601f19601f8301168501019250505092915050565b80356001600160a01b0381168114610f7057600080fd5b919050565b60008060408385031215610f8857600080fd5b610f9183610f59565b946020939093013593505050565b600060208284031215610fb157600080fd5b5035919050565b600080600060608486031215610fcd57600080fd5b610fd684610f59565b9250610fe460208501610f59565b9150604084013590509250925092565b60006020828403121561100657600080fd5b61100f82610f59565b9392505050565b6000806040838503121561102957600080fd5b61103283610f59565b915061104060208401610f59565b90509250929050565b600181811c9082168061105d57607f821691505b60208210810361107d57634e487b7160e01b600052602260045260246000fd5b50919050565b634e487b7160e01b600052601160045260246000fd5b8082018082111561044b5761044b611083565b8181038181111561044b5761044b611083565b808202811582820484141761044b5761044b611083565b6000816110e5576110e5611083565b506000190190565b6000600182016110ff576110ff611083565b5060010190565b60008261112357634e487b7160e01b600052601260045260246000fd5b500490565b600181815b8085111561116357816000190482111561114957611149611083565b8085161561115657918102915b93841c939080029061112d565b509250929050565b60008261117a5750600161044b565b816111875750600061044b565b816001811461119d57600281146111a7576111c3565b600191505061044b565b60ff8411156111b8576111b8611083565b50506001821b61044b565b5060208310610133831016604e8410600b84101617156111e6575081810a61044b565b6111f08383611128565b806000190482111561120457611204611083565b029392505050565b600061100f838361116b56fea2646970667358221220e2850e1159691496a40a0cbae88c0bd8007bc63f1cde146becb4cefae85f0c5664736f6c63430008110033",
    "linkReferences": {}
  },
  "methodIdentifiers": {
    "allowance(address,address)": "dd62ed3e",
    "approve(address,uint256)": "095ea7b3",
    "balanceOf(address)": "70a08231",
    "buy(uint256)": "d96a094a",
    "calculatePriceForBuy(uint256)": "25f2b2ac",
    "calculatePriceForSell(uint256)": "14749988",
    "decimals()": "313ce567",
    "decreaseAllowance(address,uint256)": "a457c2d7",
    "getCurrentPrice()": "eb91d37e",
    "increaseAllowance(address,uint256)": "39509351",
    "name()": "06fdde03",
    "owner()": "8da5cb5b",
    "renounceOwnership()": "715018a6",
    "sell(uint256)": "e4849b32",
    "symbol()": "95d89b41",
    "totalSupply()": "18160ddd",
    "transfer(address,uint256)": "a9059cbb",
    "transferFrom(address,address,uint256)": "23b872dd",
    "transferOwnership(address)": "f2fde38b",
    "withdraw()": "3ccfd60b"
  },
  "id": 2
}