{
  "contracts/CrowdFunding.sol": {
    "CrowdFunding": {
      "abi": [
        {
          "inputs": [
            {
              "internalType": "uint256",
              "name": "_duration",
              "type": "uint256"
            },
            {
              "internalType": "uint256",
              "name": "_minimumContribution",
              "type": "uint256"
            },
            {
              "internalType": "uint256",
              "name": "_minimumTarget",
              "type": "uint256"
            }
          ],
          "stateMutability": "nonpayable",
          "type": "constructor"
        },
        {
          "anonymous": false,
          "inputs": [
            {
              "indexed": true,
              "internalType": "address",
              "name": "previousOwner",
              "type": "address"
            },
            {
              "indexed": true,
              "internalType": "address",
              "name": "newOwner",
              "type": "address"
            }
          ],
          "name": "OwnershipTransferred",
          "type": "event"
        },
        {
          "anonymous": false,
          "inputs": [
            {
              "indexed": false,
              "internalType": "address",
              "name": "",
              "type": "address"
            },
            {
              "indexed": false,
              "internalType": "uint256",
              "name": "",
              "type": "uint256"
            }
          ],
          "name": "Received",
          "type": "event"
        },
        {
          "anonymous": false,
          "inputs": [
            {
              "indexed": true,
              "internalType": "uint256",
              "name": "pollNumber",
              "type": "uint256"
            },
            {
              "indexed": false,
              "internalType": "string",
              "name": "notion",
              "type": "string"
            },
            {
              "indexed": true,
              "internalType": "uint256",
              "name": "amount",
              "type": "uint256"
            },
            {
              "indexed": true,
              "internalType": "address",
              "name": "reciver",
              "type": "address"
            }
          ],
          "name": "pollStarted",
          "type": "event"
        },
        {
          "inputs": [
            {
              "internalType": "address",
              "name": "_address",
              "type": "address"
            }
          ],
          "name": "balance",
          "outputs": [
            {
              "internalType": "uint256",
              "name": "",
              "type": "uint256"
            }
          ],
          "stateMutability": "view",
          "type": "function"
        },
        {
          "inputs": [],
          "name": "contribute",
          "outputs": [],
          "stateMutability": "payable",
          "type": "function"
        },
        {
          "inputs": [],
          "name": "hasDeadlinePassed",
          "outputs": [
            {
              "internalType": "bool",
              "name": "",
              "type": "bool"
            }
          ],
          "stateMutability": "view",
          "type": "function"
        },
        {
          "inputs": [],
          "name": "numberOfContributers",
          "outputs": [
            {
              "internalType": "uint256",
              "name": "",
              "type": "uint256"
            }
          ],
          "stateMutability": "view",
          "type": "function"
        },
        {
          "inputs": [],
          "name": "numberOfYesses",
          "outputs": [
            {
              "internalType": "uint256",
              "name": "",
              "type": "uint256"
            }
          ],
          "stateMutability": "view",
          "type": "function"
        },
        {
          "inputs": [
            {
              "internalType": "string",
              "name": "_notion",
              "type": "string"
            },
            {
              "internalType": "uint256",
              "name": "_amount",
              "type": "uint256"
            },
            {
              "internalType": "address",
              "name": "_reciever",
              "type": "address"
            }
          ],
          "name": "openPoll",
          "outputs": [],
          "stateMutability": "nonpayable",
          "type": "function"
        },
        {
          "inputs": [],
          "name": "owner",
          "outputs": [
            {
              "internalType": "address",
              "name": "",
              "type": "address"
            }
          ],
          "stateMutability": "view",
          "type": "function"
        },
        {
          "inputs": [],
          "name": "recoverContribution",
          "outputs": [],
          "stateMutability": "payable",
          "type": "function"
        },
        {
          "inputs": [],
          "name": "renounceOwnership",
          "outputs": [],
          "stateMutability": "nonpayable",
          "type": "function"
        },
        {
          "inputs": [
            {
              "internalType": "address",
              "name": "_address",
              "type": "address"
            }
          ],
          "name": "seeContribution",
          "outputs": [
            {
              "internalType": "uint256",
              "name": "",
              "type": "uint256"
            }
          ],
          "stateMutability": "view",
          "type": "function"
        },
        {
          "inputs": [
            {
              "internalType": "address",
              "name": "newOwner",
              "type": "address"
            }
          ],
          "name": "transferOwnership",
          "outputs": [],
          "stateMutability": "nonpayable",
          "type": "function"
        },
        {
          "inputs": [],
          "name": "vote",
          "outputs": [],
          "stateMutability": "nonpayable",
          "type": "function"
        },
        {
          "inputs": [],
          "name": "withdrawAmount",
          "outputs": [
            {
              "internalType": "bool",
              "name": "",
              "type": "bool"
            }
          ],
          "stateMutability": "nonpayable",
          "type": "function"
        }
      ],
      "evm": {
        "bytecode": {
          "linkReferences": {},
          "object": "608060405260006004556000600560006101000a81548160ff021916908315150217905550600060085560006009553480156200003b57600080fd5b5060405162001ef238038062001ef28339818101604052810190620000619190620001b8565b6200008162000075620000ac60201b60201c565b620000b460201b60201c565b82426200008f919062000243565b6001819055508160028190555080600381905550505050620002a0565b600033905090565b60008060009054906101000a900473ffffffffffffffffffffffffffffffffffffffff169050816000806101000a81548173ffffffffffffffffffffffffffffffffffffffff021916908373ffffffffffffffffffffffffffffffffffffffff1602179055508173ffffffffffffffffffffffffffffffffffffffff168173ffffffffffffffffffffffffffffffffffffffff167f8be0079c531659141344cd1fd0a4f28419497f9722a3daafe3b4186f6b6457e060405160405180910390a35050565b600080fd5b6000819050919050565b62000192816200017d565b81146200019e57600080fd5b50565b600081519050620001b28162000187565b92915050565b600080600060608486031215620001d457620001d362000178565b5b6000620001e486828701620001a1565b9350506020620001f786828701620001a1565b92505060406200020a86828701620001a1565b9150509250925092565b7f4e487b7100000000000000000000000000000000000000000000000000000000600052601160045260246000fd5b600062000250826200017d565b91506200025d836200017d565b9250827fffffffffffffffffffffffffffffffffffffffffffffffffffffffffffffffff0382111562000295576200029462000214565b5b828201905092915050565b611c4280620002b06000396000f3fe6080604052600436106100c25760003560e01c8063795cd1af1161007f57806396e3f4c51161005957806396e3f4c514610211578063d7bb99ba1461023c578063e3d670d714610246578063f2fde38b14610283576100c2565b8063795cd1af146101b35780638a31bbad146101bd5780638da5cb5b146101e6576100c2565b806303eb9d3d146100c757806312409e5a146100f257806320dd3de71461012f578063534844a21461015a578063632a9a5214610185578063715018a61461019c575b600080fd5b3480156100d357600080fd5b506100dc6102ac565b6040516100e99190610ec3565b60405180910390f35b3480156100fe57600080fd5b5061011960048036038101906101149190610f50565b6102b2565b6040516101269190610ec3565b60405180910390f35b34801561013b57600080fd5b506101446102fb565b6040516101519190610ec3565b60405180910390f35b34801561016657600080fd5b5061016f610301565b60405161017c9190610f98565b60405180910390f35b34801561019157600080fd5b5061019a610417565b005b3480156101a857600080fd5b506101b1610693565b005b6101bb6106a7565b005b3480156101c957600080fd5b506101e460048036038101906101df9190611125565b610895565b005b3480156101f257600080fd5b506101fb610a3a565b60405161020891906111a3565b60405180910390f35b34801561021d57600080fd5b50610226610a63565b6040516102339190610f98565b60405180910390f35b610244610a80565b005b34801561025257600080fd5b5061026d60048036038101906102689190610f50565b610c2e565b60405161027a9190610ec3565b60405180910390f35b34801561028f57600080fd5b506102aa60048036038101906102a59190610f50565b610c4f565b005b60095481565b6000600b60008373ffffffffffffffffffffffffffffffffffffffff1673ffffffffffffffffffffffffffffffffffffffff168152602001908152602001600020549050919050565b60085481565b600061030b610cd3565b610313610a63565b610352576040517f08c379a00000000000000000000000000000000000000000000000000000000081526004016103499061121b565b60405180910390fd5b61035a610d51565b6000600854606460095461036e919061126a565b61037891906112f3565b905060006009819055506000600654905060006006819055506032821061040d57600760009054906101000a900473ffffffffffffffffffffffffffffffffffffffff1673ffffffffffffffffffffffffffffffffffffffff166108fc829081150290604051600060405180830381858888f19350505050158015610401573d6000803e3d6000fd5b50600192505050610414565b6000925050505b90565b60011515600560009054906101000a900460ff1615151461046d576040517f08c379a000000000000000000000000000000000000000000000000000000000815260040161046490611370565b60405180910390fd5b610475610a3a565b73ffffffffffffffffffffffffffffffffffffffff163373ffffffffffffffffffffffffffffffffffffffff1614156104e3576040517f08c379a00000000000000000000000000000000000000000000000000000000081526004016104da906113dc565b60405180910390fd5b6000600b60003373ffffffffffffffffffffffffffffffffffffffff1673ffffffffffffffffffffffffffffffffffffffff168152602001908152602001600020541415610566576040517f08c379a000000000000000000000000000000000000000000000000000000000815260040161055d9061146e565b60405180910390fd5b60001515600a6000600454815260200190815260200160002060003373ffffffffffffffffffffffffffffffffffffffff1673ffffffffffffffffffffffffffffffffffffffff16815260200190815260200160002060009054906101000a900460ff1615151461060c576040517f08c379a0000000000000000000000000000000000000000000000000000000008152600401610603906114da565b60405180910390fd5b6001600a6000600454815260200190815260200160002060003373ffffffffffffffffffffffffffffffffffffffff1673ffffffffffffffffffffffffffffffffffffffff16815260200190815260200160002060006101000a81548160ff02191690831515021790555060016009600082825461068a91906114fa565b92505081905550565b61069b610cd3565b6106a56000610dde565b565b6106af610a63565b6106ee576040517f08c379a00000000000000000000000000000000000000000000000000000000081526004016106e5906115e8565b60405180910390fd5b60035447108061070057506003600854105b61073f576040517f08c379a0000000000000000000000000000000000000000000000000000000008152600401610736906116a0565b60405180910390fd5b6000600b60003373ffffffffffffffffffffffffffffffffffffffff1673ffffffffffffffffffffffffffffffffffffffff1681526020019081526020016000205414156107c2576040517f08c379a00000000000000000000000000000000000000000000000000000000081526004016107b990611732565b60405180910390fd5b6000600b60003373ffffffffffffffffffffffffffffffffffffffff1673ffffffffffffffffffffffffffffffffffffffff1681526020019081526020016000205490506000600b60003373ffffffffffffffffffffffffffffffffffffffff1673ffffffffffffffffffffffffffffffffffffffff168152602001908152602001600020819055503373ffffffffffffffffffffffffffffffffffffffff166108fc829081150290604051600060405180830381858888f19350505050158015610891573d6000803e3d6000fd5b5050565b61089d610cd3565b6108a5610a63565b6108e4576040517f08c379a00000000000000000000000000000000000000000000000000000000081526004016108db9061121b565b60405180910390fd5b60001515600560009054906101000a900460ff1615151461093a576040517f08c379a0000000000000000000000000000000000000000000000000000000008152600401610931906117c4565b60405180910390fd5b60036008541015610980576040517f08c379a000000000000000000000000000000000000000000000000000000000815260040161097790611830565b60405180910390fd5b6001600560006101000a81548160ff0219169083151502179055508073ffffffffffffffffffffffffffffffffffffffff16826004547f4414cbcf3a9501da2d1828e5cad5023ced607fdf079a496b8c6209c7c540e2d6866040516109e591906118c7565b60405180910390a48160068190555080600760006101000a81548173ffffffffffffffffffffffffffffffffffffffff021916908373ffffffffffffffffffffffffffffffffffffffff160217905550505050565b60008060009054906101000a900473ffffffffffffffffffffffffffffffffffffffff16905090565b6000600154421115610a785760019050610a7d565b600090505b90565b610a88610a3a565b73ffffffffffffffffffffffffffffffffffffffff163373ffffffffffffffffffffffffffffffffffffffff161415610af6576040517f08c379a0000000000000000000000000000000000000000000000000000000008152600401610aed90611935565b60405180910390fd5b610afe610a63565b15610b3e576040517f08c379a0000000000000000000000000000000000000000000000000000000008152600401610b35906119c7565b60405180910390fd5b346002541115610b83576040517f08c379a0000000000000000000000000000000000000000000000000000000008152600401610b7a90611a59565b60405180910390fd5b7f88a5966d370b9919b20f3e2c13ff65706f196a4e32cc2c12bf57088f885258743334604051610bb4929190611a79565b60405180910390a134600b60003373ffffffffffffffffffffffffffffffffffffffff1673ffffffffffffffffffffffffffffffffffffffff1681526020019081526020016000206000828254610c0b91906114fa565b92505081905550600160086000828254610c2591906114fa565b92505081905550565b60008173ffffffffffffffffffffffffffffffffffffffff16319050919050565b610c57610cd3565b600073ffffffffffffffffffffffffffffffffffffffff168173ffffffffffffffffffffffffffffffffffffffff161415610cc7576040517f08c379a0000000000000000000000000000000000000000000000000000000008152600401610cbe90611b14565b60405180910390fd5b610cd081610dde565b50565b610cdb610ea2565b73ffffffffffffffffffffffffffffffffffffffff16610cf9610a3a565b73ffffffffffffffffffffffffffffffffffffffff1614610d4f576040517f08c379a0000000000000000000000000000000000000000000000000000000008152600401610d4690611b80565b60405180910390fd5b565b60011515600560009054906101000a900460ff16151514610da7576040517f08c379a0000000000000000000000000000000000000000000000000000000008152600401610d9e90611bec565b60405180910390fd5b6000600560006101000a81548160ff021916908315150217905550600160046000828254610dd591906114fa565b92505081905550565b60008060009054906101000a900473ffffffffffffffffffffffffffffffffffffffff169050816000806101000a81548173ffffffffffffffffffffffffffffffffffffffff021916908373ffffffffffffffffffffffffffffffffffffffff1602179055508173ffffffffffffffffffffffffffffffffffffffff168173ffffffffffffffffffffffffffffffffffffffff167f8be0079c531659141344cd1fd0a4f28419497f9722a3daafe3b4186f6b6457e060405160405180910390a35050565b600033905090565b6000819050919050565b610ebd81610eaa565b82525050565b6000602082019050610ed86000830184610eb4565b92915050565b6000604051905090565b600080fd5b600080fd5b600073ffffffffffffffffffffffffffffffffffffffff82169050919050565b6000610f1d82610ef2565b9050919050565b610f2d81610f12565b8114610f3857600080fd5b50565b600081359050610f4a81610f24565b92915050565b600060208284031215610f6657610f65610ee8565b5b6000610f7484828501610f3b565b91505092915050565b60008115159050919050565b610f9281610f7d565b82525050565b6000602082019050610fad6000830184610f89565b92915050565b600080fd5b600080fd5b6000601f19601f8301169050919050565b7f4e487b7100000000000000000000000000000000000000000000000000000000600052604160045260246000fd5b61100682610fbd565b810181811067ffffffffffffffff8211171561102557611024610fce565b5b80604052505050565b6000611038610ede565b90506110448282610ffd565b919050565b600067ffffffffffffffff82111561106457611063610fce565b5b61106d82610fbd565b9050602081019050919050565b82818337600083830152505050565b600061109c61109784611049565b61102e565b9050828152602081018484840111156110b8576110b7610fb8565b5b6110c384828561107a565b509392505050565b600082601f8301126110e0576110df610fb3565b5b81356110f0848260208601611089565b91505092915050565b61110281610eaa565b811461110d57600080fd5b50565b60008135905061111f816110f9565b92915050565b60008060006060848603121561113e5761113d610ee8565b5b600084013567ffffffffffffffff81111561115c5761115b610eed565b5b611168868287016110cb565b935050602061117986828701611110565b925050604061118a86828701610f3b565b9150509250925092565b61119d81610f12565b82525050565b60006020820190506111b86000830184611194565b92915050565b600082825260208201905092915050565b7f646561646c696e6520686173206e6f7420706173736564000000000000000000600082015250565b60006112056017836111be565b9150611210826111cf565b602082019050919050565b60006020820190508181036000830152611234816111f8565b9050919050565b7f4e487b7100000000000000000000000000000000000000000000000000000000600052601160045260246000fd5b600061127582610eaa565b915061128083610eaa565b9250817fffffffffffffffffffffffffffffffffffffffffffffffffffffffffffffffff04831182151516156112b9576112b861123b565b5b828202905092915050565b7f4e487b7100000000000000000000000000000000000000000000000000000000600052601260045260246000fd5b60006112fe82610eaa565b915061130983610eaa565b925082611319576113186112c4565b5b828204905092915050565b7f706f6c6c20686173206e6f742073746172746564000000000000000000000000600082015250565b600061135a6014836111be565b915061136582611324565b602082019050919050565b600060208201905081810360008301526113898161134d565b9050919050565b7f746865206d616e616765722063616e6e6f7420766f7465000000000000000000600082015250565b60006113c66017836111be565b91506113d182611390565b602082019050919050565b600060208201905081810360008301526113f5816113b9565b9050919050565b7f796f752068617665206e6f7420636f6e747269627574656420616e797468696e60008201527f672c206e6f7420656c696769626c6520746f20766f7465000000000000000000602082015250565b60006114586037836111be565b9150611463826113fc565b604082019050919050565b600060208201905081810360008301526114878161144b565b9050919050565b7f796f75206861766520616c726561647920766f74656400000000000000000000600082015250565b60006114c46016836111be565b91506114cf8261148e565b602082019050919050565b600060208201905081810360008301526114f3816114b7565b9050919050565b600061150582610eaa565b915061151083610eaa565b9250827fffffffffffffffffffffffffffffffffffffffffffffffffffffffffffffffff038211156115455761154461123b565b5b828201905092915050565b7f646561646c696e6520686173206e6f74207061737365642c20636f6e7472696260008201527f7574696f6e732063616e6e6f74206265207265636f766572656420726967687460208201527f6e6f770000000000000000000000000000000000000000000000000000000000604082015250565b60006115d26043836111be565b91506115dd82611550565b606082019050919050565b60006020820190508181036000830152611601816115c5565b9050919050565b7f74617267657420686173206265656e206d65742c2063616e6e6f74207265636f60008201527f76657220636f6e747269627574696f6e73206e6f77206f72206d6f726520746860208201527f616e20746872656520636f6e7472696275746f72730000000000000000000000604082015250565b600061168a6055836111be565b915061169582611608565b606082019050919050565b600060208201905081810360008301526116b98161167d565b9050919050565b7f796f752068617665206e6f7420636f6e747269627574656420616e797468696e60008201527f6700000000000000000000000000000000000000000000000000000000000000602082015250565b600061171c6021836111be565b9150611727826116c0565b604082019050919050565b6000602082019050818103600083015261174b8161170f565b9050919050565b7f70726576696f757320706f6c6c20686173206e6f74206265656e20636c6f736560008201527f6420796574000000000000000000000000000000000000000000000000000000602082015250565b60006117ae6025836111be565b91506117b982611752565b604082019050919050565b600060208201905081810360008301526117dd816117a1565b9050919050565b7f696e73756666696369656e7420636f6e74726962757465727300000000000000600082015250565b600061181a6019836111be565b9150611825826117e4565b602082019050919050565b600060208201905081810360008301526118498161180d565b9050919050565b600081519050919050565b60005b8381101561187957808201518184015260208101905061185e565b83811115611888576000848401525b50505050565b600061189982611850565b6118a381856111be565b93506118b381856020860161185b565b6118bc81610fbd565b840191505092915050565b600060208201905081810360008301526118e1818461188e565b905092915050565b7f746865206d616e616765722063616e6e6f7420636f6e74726962757465000000600082015250565b600061191f601d836111be565b915061192a826118e9565b602082019050919050565b6000602082019050818103600083015261194e81611912565b9050919050565b7f646561646c696e6520686173207061737365642c20636f6e747269627574696f60008201527f6e732061726520636c6f73656400000000000000000000000000000000000000602082015250565b60006119b1602d836111be565b91506119bc82611955565b604082019050919050565b600060208201905081810360008301526119e0816119a4565b9050919050565b7f636f6e747269627574696f6e206c6f776572207468616e206d696e696d756d2060008201527f636f6e747269627574696f6e0000000000000000000000000000000000000000602082015250565b6000611a43602c836111be565b9150611a4e826119e7565b604082019050919050565b60006020820190508181036000830152611a7281611a36565b9050919050565b6000604082019050611a8e6000830185611194565b611a9b6020830184610eb4565b9392505050565b7f4f776e61626c653a206e6577206f776e657220697320746865207a65726f206160008201527f6464726573730000000000000000000000000000000000000000000000000000602082015250565b6000611afe6026836111be565b9150611b0982611aa2565b604082019050919050565b60006020820190508181036000830152611b2d81611af1565b9050919050565b7f4f776e61626c653a2063616c6c6572206973206e6f7420746865206f776e6572600082015250565b6000611b6a6020836111be565b9150611b7582611b34565b602082019050919050565b60006020820190508181036000830152611b9981611b5d565b9050919050565b7f6e657720706f6c6c20686173206e6f74206265656e2073746172746564000000600082015250565b6000611bd6601d836111be565b9150611be182611ba0565b602082019050919050565b60006020820190508181036000830152611c0581611bc9565b905091905056fea264697066735822122049c3cdf438a0f7314abe814b734e6630b28ad6df00811018c1803b72abbbdd8864736f6c63430008090033",
          "opcodes": "PUSH1 0x80 PUSH1 0x40 MSTORE PUSH1 0x0 PUSH1 0x4 SSTORE PUSH1 0x0 PUSH1 0x5 PUSH1 0x0 PUSH2 0x100 EXP DUP2 SLOAD DUP2 PUSH1 0xFF MUL NOT AND SWAP1 DUP4 ISZERO ISZERO MUL OR SWAP1 SSTORE POP PUSH1 0x0 PUSH1 0x8 SSTORE PUSH1 0x0 PUSH1 0x9 SSTORE CALLVALUE DUP1 ISZERO PUSH3 0x3B JUMPI PUSH1 0x0 DUP1 REVERT JUMPDEST POP PUSH1 0x40 MLOAD PUSH3 0x1EF2 CODESIZE SUB DUP1 PUSH3 0x1EF2 DUP4 CODECOPY DUP2 DUP2 ADD PUSH1 0x40 MSTORE DUP2 ADD SWAP1 PUSH3 0x61 SWAP2 SWAP1 PUSH3 0x1B8 JUMP JUMPDEST PUSH3 0x81 PUSH3 0x75 PUSH3 0xAC PUSH1 0x20 SHL PUSH1 0x20 SHR JUMP JUMPDEST PUSH3 0xB4 PUSH1 0x20 SHL PUSH1 0x20 SHR JUMP JUMPDEST DUP3 TIMESTAMP PUSH3 0x8F SWAP2 SWAP1 PUSH3 0x243 JUMP JUMPDEST PUSH1 0x1 DUP2 SWAP1 SSTORE POP DUP2 PUSH1 0x2 DUP2 SWAP1 SSTORE POP DUP1 PUSH1 0x3 DUP2 SWAP1 SSTORE POP POP POP POP PUSH3 0x2A0 JUMP JUMPDEST PUSH1 0x0 CALLER SWAP1 POP SWAP1 JUMP JUMPDEST PUSH1 0x0 DUP1 PUSH1 0x0 SWAP1 SLOAD SWAP1 PUSH2 0x100 EXP SWAP1 DIV PUSH20 0xFFFFFFFFFFFFFFFFFFFFFFFFFFFFFFFFFFFFFFFF AND SWAP1 POP DUP2 PUSH1 0x0 DUP1 PUSH2 0x100 EXP DUP2 SLOAD DUP2 PUSH20 0xFFFFFFFFFFFFFFFFFFFFFFFFFFFFFFFFFFFFFFFF MUL NOT AND SWAP1 DUP4 PUSH20 0xFFFFFFFFFFFFFFFFFFFFFFFFFFFFFFFFFFFFFFFF AND MUL OR SWAP1 SSTORE POP DUP2 PUSH20 0xFFFFFFFFFFFFFFFFFFFFFFFFFFFFFFFFFFFFFFFF AND DUP2 PUSH20 0xFFFFFFFFFFFFFFFFFFFFFFFFFFFFFFFFFFFFFFFF AND PUSH32 0x8BE0079C531659141344CD1FD0A4F28419497F9722A3DAAFE3B4186F6B6457E0 PUSH1 0x40 MLOAD PUSH1 0x40 MLOAD DUP1 SWAP2 SUB SWAP1 LOG3 POP POP JUMP JUMPDEST PUSH1 0x0 DUP1 REVERT JUMPDEST PUSH1 0x0 DUP2 SWAP1 POP SWAP2 SWAP1 POP JUMP JUMPDEST PUSH3 0x192 DUP2 PUSH3 0x17D JUMP JUMPDEST DUP2 EQ PUSH3 0x19E JUMPI PUSH1 0x0 DUP1 REVERT JUMPDEST POP JUMP JUMPDEST PUSH1 0x0 DUP2 MLOAD SWAP1 POP PUSH3 0x1B2 DUP2 PUSH3 0x187 JUMP JUMPDEST SWAP3 SWAP2 POP POP JUMP JUMPDEST PUSH1 0x0 DUP1 PUSH1 0x0 PUSH1 0x60 DUP5 DUP7 SUB SLT ISZERO PUSH3 0x1D4 JUMPI PUSH3 0x1D3 PUSH3 0x178 JUMP JUMPDEST JUMPDEST PUSH1 0x0 PUSH3 0x1E4 DUP7 DUP3 DUP8 ADD PUSH3 0x1A1 JUMP JUMPDEST SWAP4 POP POP PUSH1 0x20 PUSH3 0x1F7 DUP7 DUP3 DUP8 ADD PUSH3 0x1A1 JUMP JUMPDEST SWAP3 POP POP PUSH1 0x40 PUSH3 0x20A DUP7 DUP3 DUP8 ADD PUSH3 0x1A1 JUMP JUMPDEST SWAP2 POP POP SWAP3 POP SWAP3 POP SWAP3 JUMP JUMPDEST PUSH32 0x4E487B7100000000000000000000000000000000000000000000000000000000 PUSH1 0x0 MSTORE PUSH1 0x11 PUSH1 0x4 MSTORE PUSH1 0x24 PUSH1 0x0 REVERT JUMPDEST PUSH1 0x0 PUSH3 0x250 DUP3 PUSH3 0x17D JUMP JUMPDEST SWAP2 POP PUSH3 0x25D DUP4 PUSH3 0x17D JUMP JUMPDEST SWAP3 POP DUP3 PUSH32 0xFFFFFFFFFFFFFFFFFFFFFFFFFFFFFFFFFFFFFFFFFFFFFFFFFFFFFFFFFFFFFFFF SUB DUP3 GT ISZERO PUSH3 0x295 JUMPI PUSH3 0x294 PUSH3 0x214 JUMP JUMPDEST JUMPDEST DUP3 DUP3 ADD SWAP1 POP SWAP3 SWAP2 POP POP JUMP JUMPDEST PUSH2 0x1C42 DUP1 PUSH3 0x2B0 PUSH1 0x0 CODECOPY PUSH1 0x0 RETURN INVALID PUSH1 0x80 PUSH1 0x40 MSTORE PUSH1 0x4 CALLDATASIZE LT PUSH2 0xC2 JUMPI PUSH1 0x0 CALLDATALOAD PUSH1 0xE0 SHR DUP1 PUSH4 0x795CD1AF GT PUSH2 0x7F JUMPI DUP1 PUSH4 0x96E3F4C5 GT PUSH2 0x59 JUMPI DUP1 PUSH4 0x96E3F4C5 EQ PUSH2 0x211 JUMPI DUP1 PUSH4 0xD7BB99BA EQ PUSH2 0x23C JUMPI DUP1 PUSH4 0xE3D670D7 EQ PUSH2 0x246 JUMPI DUP1 PUSH4 0xF2FDE38B EQ PUSH2 0x283 JUMPI PUSH2 0xC2 JUMP JUMPDEST DUP1 PUSH4 0x795CD1AF EQ PUSH2 0x1B3 JUMPI DUP1 PUSH4 0x8A31BBAD EQ PUSH2 0x1BD JUMPI DUP1 PUSH4 0x8DA5CB5B EQ PUSH2 0x1E6 JUMPI PUSH2 0xC2 JUMP JUMPDEST DUP1 PUSH4 0x3EB9D3D EQ PUSH2 0xC7 JUMPI DUP1 PUSH4 0x12409E5A EQ PUSH2 0xF2 JUMPI DUP1 PUSH4 0x20DD3DE7 EQ PUSH2 0x12F JUMPI DUP1 PUSH4 0x534844A2 EQ PUSH2 0x15A JUMPI DUP1 PUSH4 0x632A9A52 EQ PUSH2 0x185 JUMPI DUP1 PUSH4 0x715018A6 EQ PUSH2 0x19C JUMPI JUMPDEST PUSH1 0x0 DUP1 REVERT JUMPDEST CALLVALUE DUP1 ISZERO PUSH2 0xD3 JUMPI PUSH1 0x0 DUP1 REVERT JUMPDEST POP PUSH2 0xDC PUSH2 0x2AC JUMP JUMPDEST PUSH1 0x40 MLOAD PUSH2 0xE9 SWAP2 SWAP1 PUSH2 0xEC3 JUMP JUMPDEST PUSH1 0x40 MLOAD DUP1 SWAP2 SUB SWAP1 RETURN JUMPDEST CALLVALUE DUP1 ISZERO PUSH2 0xFE JUMPI PUSH1 0x0 DUP1 REVERT JUMPDEST POP PUSH2 0x119 PUSH1 0x4 DUP1 CALLDATASIZE SUB DUP2 ADD SWAP1 PUSH2 0x114 SWAP2 SWAP1 PUSH2 0xF50 JUMP JUMPDEST PUSH2 0x2B2 JUMP JUMPDEST PUSH1 0x40 MLOAD PUSH2 0x126 SWAP2 SWAP1 PUSH2 0xEC3 JUMP JUMPDEST PUSH1 0x40 MLOAD DUP1 SWAP2 SUB SWAP1 RETURN JUMPDEST CALLVALUE DUP1 ISZERO PUSH2 0x13B JUMPI PUSH1 0x0 DUP1 REVERT JUMPDEST POP PUSH2 0x144 PUSH2 0x2FB JUMP JUMPDEST PUSH1 0x40 MLOAD PUSH2 0x151 SWAP2 SWAP1 PUSH2 0xEC3 JUMP JUMPDEST PUSH1 0x40 MLOAD DUP1 SWAP2 SUB SWAP1 RETURN JUMPDEST CALLVALUE DUP1 ISZERO PUSH2 0x166 JUMPI PUSH1 0x0 DUP1 REVERT JUMPDEST POP PUSH2 0x16F PUSH2 0x301 JUMP JUMPDEST PUSH1 0x40 MLOAD PUSH2 0x17C SWAP2 SWAP1 PUSH2 0xF98 JUMP JUMPDEST PUSH1 0x40 MLOAD DUP1 SWAP2 SUB SWAP1 RETURN JUMPDEST CALLVALUE DUP1 ISZERO PUSH2 0x191 JUMPI PUSH1 0x0 DUP1 REVERT JUMPDEST POP PUSH2 0x19A PUSH2 0x417 JUMP JUMPDEST STOP JUMPDEST CALLVALUE DUP1 ISZERO PUSH2 0x1A8 JUMPI PUSH1 0x0 DUP1 REVERT JUMPDEST POP PUSH2 0x1B1 PUSH2 0x693 JUMP JUMPDEST STOP JUMPDEST PUSH2 0x1BB PUSH2 0x6A7 JUMP JUMPDEST STOP JUMPDEST CALLVALUE DUP1 ISZERO PUSH2 0x1C9 JUMPI PUSH1 0x0 DUP1 REVERT JUMPDEST POP PUSH2 0x1E4 PUSH1 0x4 DUP1 CALLDATASIZE SUB DUP2 ADD SWAP1 PUSH2 0x1DF SWAP2 SWAP1 PUSH2 0x1125 JUMP JUMPDEST PUSH2 0x895 JUMP JUMPDEST STOP JUMPDEST CALLVALUE DUP1 ISZERO PUSH2 0x1F2 JUMPI PUSH1 0x0 DUP1 REVERT JUMPDEST POP PUSH2 0x1FB PUSH2 0xA3A JUMP JUMPDEST PUSH1 0x40 MLOAD PUSH2 0x208 SWAP2 SWAP1 PUSH2 0x11A3 JUMP JUMPDEST PUSH1 0x40 MLOAD DUP1 SWAP2 SUB SWAP1 RETURN JUMPDEST CALLVALUE DUP1 ISZERO PUSH2 0x21D JUMPI PUSH1 0x0 DUP1 REVERT JUMPDEST POP PUSH2 0x226 PUSH2 0xA63 JUMP JUMPDEST PUSH1 0x40 MLOAD PUSH2 0x233 SWAP2 SWAP1 PUSH2 0xF98 JUMP JUMPDEST PUSH1 0x40 MLOAD DUP1 SWAP2 SUB SWAP1 RETURN JUMPDEST PUSH2 0x244 PUSH2 0xA80 JUMP JUMPDEST STOP JUMPDEST CALLVALUE DUP1 ISZERO PUSH2 0x252 JUMPI PUSH1 0x0 DUP1 REVERT JUMPDEST POP PUSH2 0x26D PUSH1 0x4 DUP1 CALLDATASIZE SUB DUP2 ADD SWAP1 PUSH2 0x268 SWAP2 SWAP1 PUSH2 0xF50 JUMP JUMPDEST PUSH2 0xC2E JUMP JUMPDEST PUSH1 0x40 MLOAD PUSH2 0x27A SWAP2 SWAP1 PUSH2 0xEC3 JUMP JUMPDEST PUSH1 0x40 MLOAD DUP1 SWAP2 SUB SWAP1 RETURN JUMPDEST CALLVALUE DUP1 ISZERO PUSH2 0x28F JUMPI PUSH1 0x0 DUP1 REVERT JUMPDEST POP PUSH2 0x2AA PUSH1 0x4 DUP1 CALLDATASIZE SUB DUP2 ADD SWAP1 PUSH2 0x2A5 SWAP2 SWAP1 PUSH2 0xF50 JUMP JUMPDEST PUSH2 0xC4F JUMP JUMPDEST STOP JUMPDEST PUSH1 0x9 SLOAD DUP2 JUMP JUMPDEST PUSH1 0x0 PUSH1 0xB PUSH1 0x0 DUP4 PUSH20 0xFFFFFFFFFFFFFFFFFFFFFFFFFFFFFFFFFFFFFFFF AND PUSH20 0xFFFFFFFFFFFFFFFFFFFFFFFFFFFFFFFFFFFFFFFF AND DUP2 MSTORE PUSH1 0x20 ADD SWAP1 DUP2 MSTORE PUSH1 0x20 ADD PUSH1 0x0 KECCAK256 SLOAD SWAP1 POP SWAP2 SWAP1 POP JUMP JUMPDEST PUSH1 0x8 SLOAD DUP2 JUMP JUMPDEST PUSH1 0x0 PUSH2 0x30B PUSH2 0xCD3 JUMP JUMPDEST PUSH2 0x313 PUSH2 0xA63 JUMP JUMPDEST PUSH2 0x352 JUMPI PUSH1 0x40 MLOAD PUSH32 0x8C379A000000000000000000000000000000000000000000000000000000000 DUP2 MSTORE PUSH1 0x4 ADD PUSH2 0x349 SWAP1 PUSH2 0x121B JUMP JUMPDEST PUSH1 0x40 MLOAD DUP1 SWAP2 SUB SWAP1 REVERT JUMPDEST PUSH2 0x35A PUSH2 0xD51 JUMP JUMPDEST PUSH1 0x0 PUSH1 0x8 SLOAD PUSH1 0x64 PUSH1 0x9 SLOAD PUSH2 0x36E SWAP2 SWAP1 PUSH2 0x126A JUMP JUMPDEST PUSH2 0x378 SWAP2 SWAP1 PUSH2 0x12F3 JUMP JUMPDEST SWAP1 POP PUSH1 0x0 PUSH1 0x9 DUP2 SWAP1 SSTORE POP PUSH1 0x0 PUSH1 0x6 SLOAD SWAP1 POP PUSH1 0x0 PUSH1 0x6 DUP2 SWAP1 SSTORE POP PUSH1 0x32 DUP3 LT PUSH2 0x40D JUMPI PUSH1 0x7 PUSH1 0x0 SWAP1 SLOAD SWAP1 PUSH2 0x100 EXP SWAP1 DIV PUSH20 0xFFFFFFFFFFFFFFFFFFFFFFFFFFFFFFFFFFFFFFFF AND PUSH20 0xFFFFFFFFFFFFFFFFFFFFFFFFFFFFFFFFFFFFFFFF AND PUSH2 0x8FC DUP3 SWAP1 DUP2 ISZERO MUL SWAP1 PUSH1 0x40 MLOAD PUSH1 0x0 PUSH1 0x40 MLOAD DUP1 DUP4 SUB DUP2 DUP6 DUP9 DUP9 CALL SWAP4 POP POP POP POP ISZERO DUP1 ISZERO PUSH2 0x401 JUMPI RETURNDATASIZE PUSH1 0x0 DUP1 RETURNDATACOPY RETURNDATASIZE PUSH1 0x0 REVERT JUMPDEST POP PUSH1 0x1 SWAP3 POP POP POP PUSH2 0x414 JUMP JUMPDEST PUSH1 0x0 SWAP3 POP POP POP JUMPDEST SWAP1 JUMP JUMPDEST PUSH1 0x1 ISZERO ISZERO PUSH1 0x5 PUSH1 0x0 SWAP1 SLOAD SWAP1 PUSH2 0x100 EXP SWAP1 DIV PUSH1 0xFF AND ISZERO ISZERO EQ PUSH2 0x46D JUMPI PUSH1 0x40 MLOAD PUSH32 0x8C379A000000000000000000000000000000000000000000000000000000000 DUP2 MSTORE PUSH1 0x4 ADD PUSH2 0x464 SWAP1 PUSH2 0x1370 JUMP JUMPDEST PUSH1 0x40 MLOAD DUP1 SWAP2 SUB SWAP1 REVERT JUMPDEST PUSH2 0x475 PUSH2 0xA3A JUMP JUMPDEST PUSH20 0xFFFFFFFFFFFFFFFFFFFFFFFFFFFFFFFFFFFFFFFF AND CALLER PUSH20 0xFFFFFFFFFFFFFFFFFFFFFFFFFFFFFFFFFFFFFFFF AND EQ ISZERO PUSH2 0x4E3 JUMPI PUSH1 0x40 MLOAD PUSH32 0x8C379A000000000000000000000000000000000000000000000000000000000 DUP2 MSTORE PUSH1 0x4 ADD PUSH2 0x4DA SWAP1 PUSH2 0x13DC JUMP JUMPDEST PUSH1 0x40 MLOAD DUP1 SWAP2 SUB SWAP1 REVERT JUMPDEST PUSH1 0x0 PUSH1 0xB PUSH1 0x0 CALLER PUSH20 0xFFFFFFFFFFFFFFFFFFFFFFFFFFFFFFFFFFFFFFFF AND PUSH20 0xFFFFFFFFFFFFFFFFFFFFFFFFFFFFFFFFFFFFFFFF AND DUP2 MSTORE PUSH1 0x20 ADD SWAP1 DUP2 MSTORE PUSH1 0x20 ADD PUSH1 0x0 KECCAK256 SLOAD EQ ISZERO PUSH2 0x566 JUMPI PUSH1 0x40 MLOAD PUSH32 0x8C379A000000000000000000000000000000000000000000000000000000000 DUP2 MSTORE PUSH1 0x4 ADD PUSH2 0x55D SWAP1 PUSH2 0x146E JUMP JUMPDEST PUSH1 0x40 MLOAD DUP1 SWAP2 SUB SWAP1 REVERT JUMPDEST PUSH1 0x0 ISZERO ISZERO PUSH1 0xA PUSH1 0x0 PUSH1 0x4 SLOAD DUP2 MSTORE PUSH1 0x20 ADD SWAP1 DUP2 MSTORE PUSH1 0x20 ADD PUSH1 0x0 KECCAK256 PUSH1 0x0 CALLER PUSH20 0xFFFFFFFFFFFFFFFFFFFFFFFFFFFFFFFFFFFFFFFF AND PUSH20 0xFFFFFFFFFFFFFFFFFFFFFFFFFFFFFFFFFFFFFFFF AND DUP2 MSTORE PUSH1 0x20 ADD SWAP1 DUP2 MSTORE PUSH1 0x20 ADD PUSH1 0x0 KECCAK256 PUSH1 0x0 SWAP1 SLOAD SWAP1 PUSH2 0x100 EXP SWAP1 DIV PUSH1 0xFF AND ISZERO ISZERO EQ PUSH2 0x60C JUMPI PUSH1 0x40 MLOAD PUSH32 0x8C379A000000000000000000000000000000000000000000000000000000000 DUP2 MSTORE PUSH1 0x4 ADD PUSH2 0x603 SWAP1 PUSH2 0x14DA JUMP JUMPDEST PUSH1 0x40 MLOAD DUP1 SWAP2 SUB SWAP1 REVERT JUMPDEST PUSH1 0x1 PUSH1 0xA PUSH1 0x0 PUSH1 0x4 SLOAD DUP2 MSTORE PUSH1 0x20 ADD SWAP1 DUP2 MSTORE PUSH1 0x20 ADD PUSH1 0x0 KECCAK256 PUSH1 0x0 CALLER PUSH20 0xFFFFFFFFFFFFFFFFFFFFFFFFFFFFFFFFFFFFFFFF AND PUSH20 0xFFFFFFFFFFFFFFFFFFFFFFFFFFFFFFFFFFFFFFFF AND DUP2 MSTORE PUSH1 0x20 ADD SWAP1 DUP2 MSTORE PUSH1 0x20 ADD PUSH1 0x0 KECCAK256 PUSH1 0x0 PUSH2 0x100 EXP DUP2 SLOAD DUP2 PUSH1 0xFF MUL NOT AND SWAP1 DUP4 ISZERO ISZERO MUL OR SWAP1 SSTORE POP PUSH1 0x1 PUSH1 0x9 PUSH1 0x0 DUP3 DUP3 SLOAD PUSH2 0x68A SWAP2 SWAP1 PUSH2 0x14FA JUMP JUMPDEST SWAP3 POP POP DUP2 SWAP1 SSTORE POP JUMP JUMPDEST PUSH2 0x69B PUSH2 0xCD3 JUMP JUMPDEST PUSH2 0x6A5 PUSH1 0x0 PUSH2 0xDDE JUMP JUMPDEST JUMP JUMPDEST PUSH2 0x6AF PUSH2 0xA63 JUMP JUMPDEST PUSH2 0x6EE JUMPI PUSH1 0x40 MLOAD PUSH32 0x8C379A000000000000000000000000000000000000000000000000000000000 DUP2 MSTORE PUSH1 0x4 ADD PUSH2 0x6E5 SWAP1 PUSH2 0x15E8 JUMP JUMPDEST PUSH1 0x40 MLOAD DUP1 SWAP2 SUB SWAP1 REVERT JUMPDEST PUSH1 0x3 SLOAD SELFBALANCE LT DUP1 PUSH2 0x700 JUMPI POP PUSH1 0x3 PUSH1 0x8 SLOAD LT JUMPDEST PUSH2 0x73F JUMPI PUSH1 0x40 MLOAD PUSH32 0x8C379A000000000000000000000000000000000000000000000000000000000 DUP2 MSTORE PUSH1 0x4 ADD PUSH2 0x736 SWAP1 PUSH2 0x16A0 JUMP JUMPDEST PUSH1 0x40 MLOAD DUP1 SWAP2 SUB SWAP1 REVERT JUMPDEST PUSH1 0x0 PUSH1 0xB PUSH1 0x0 CALLER PUSH20 0xFFFFFFFFFFFFFFFFFFFFFFFFFFFFFFFFFFFFFFFF AND PUSH20 0xFFFFFFFFFFFFFFFFFFFFFFFFFFFFFFFFFFFFFFFF AND DUP2 MSTORE PUSH1 0x20 ADD SWAP1 DUP2 MSTORE PUSH1 0x20 ADD PUSH1 0x0 KECCAK256 SLOAD EQ ISZERO PUSH2 0x7C2 JUMPI PUSH1 0x40 MLOAD PUSH32 0x8C379A000000000000000000000000000000000000000000000000000000000 DUP2 MSTORE PUSH1 0x4 ADD PUSH2 0x7B9 SWAP1 PUSH2 0x1732 JUMP JUMPDEST PUSH1 0x40 MLOAD DUP1 SWAP2 SUB SWAP1 REVERT JUMPDEST PUSH1 0x0 PUSH1 0xB PUSH1 0x0 CALLER PUSH20 0xFFFFFFFFFFFFFFFFFFFFFFFFFFFFFFFFFFFFFFFF AND PUSH20 0xFFFFFFFFFFFFFFFFFFFFFFFFFFFFFFFFFFFFFFFF AND DUP2 MSTORE PUSH1 0x20 ADD SWAP1 DUP2 MSTORE PUSH1 0x20 ADD PUSH1 0x0 KECCAK256 SLOAD SWAP1 POP PUSH1 0x0 PUSH1 0xB PUSH1 0x0 CALLER PUSH20 0xFFFFFFFFFFFFFFFFFFFFFFFFFFFFFFFFFFFFFFFF AND PUSH20 0xFFFFFFFFFFFFFFFFFFFFFFFFFFFFFFFFFFFFFFFF AND DUP2 MSTORE PUSH1 0x20 ADD SWAP1 DUP2 MSTORE PUSH1 0x20 ADD PUSH1 0x0 KECCAK256 DUP2 SWAP1 SSTORE POP CALLER PUSH20 0xFFFFFFFFFFFFFFFFFFFFFFFFFFFFFFFFFFFFFFFF AND PUSH2 0x8FC DUP3 SWAP1 DUP2 ISZERO MUL SWAP1 PUSH1 0x40 MLOAD PUSH1 0x0 PUSH1 0x40 MLOAD DUP1 DUP4 SUB DUP2 DUP6 DUP9 DUP9 CALL SWAP4 POP POP POP POP ISZERO DUP1 ISZERO PUSH2 0x891 JUMPI RETURNDATASIZE PUSH1 0x0 DUP1 RETURNDATACOPY RETURNDATASIZE PUSH1 0x0 REVERT JUMPDEST POP POP JUMP JUMPDEST PUSH2 0x89D PUSH2 0xCD3 JUMP JUMPDEST PUSH2 0x8A5 PUSH2 0xA63 JUMP JUMPDEST PUSH2 0x8E4 JUMPI PUSH1 0x40 MLOAD PUSH32 0x8C379A000000000000000000000000000000000000000000000000000000000 DUP2 MSTORE PUSH1 0x4 ADD PUSH2 0x8DB SWAP1 PUSH2 0x121B JUMP JUMPDEST PUSH1 0x40 MLOAD DUP1 SWAP2 SUB SWAP1 REVERT JUMPDEST PUSH1 0x0 ISZERO ISZERO PUSH1 0x5 PUSH1 0x0 SWAP1 SLOAD SWAP1 PUSH2 0x100 EXP SWAP1 DIV PUSH1 0xFF AND ISZERO ISZERO EQ PUSH2 0x93A JUMPI PUSH1 0x40 MLOAD PUSH32 0x8C379A000000000000000000000000000000000000000000000000000000000 DUP2 MSTORE PUSH1 0x4 ADD PUSH2 0x931 SWAP1 PUSH2 0x17C4 JUMP JUMPDEST PUSH1 0x40 MLOAD DUP1 SWAP2 SUB SWAP1 REVERT JUMPDEST PUSH1 0x3 PUSH1 0x8 SLOAD LT ISZERO PUSH2 0x980 JUMPI PUSH1 0x40 MLOAD PUSH32 0x8C379A000000000000000000000000000000000000000000000000000000000 DUP2 MSTORE PUSH1 0x4 ADD PUSH2 0x977 SWAP1 PUSH2 0x1830 JUMP JUMPDEST PUSH1 0x40 MLOAD DUP1 SWAP2 SUB SWAP1 REVERT JUMPDEST PUSH1 0x1 PUSH1 0x5 PUSH1 0x0 PUSH2 0x100 EXP DUP2 SLOAD DUP2 PUSH1 0xFF MUL NOT AND SWAP1 DUP4 ISZERO ISZERO MUL OR SWAP1 SSTORE POP DUP1 PUSH20 0xFFFFFFFFFFFFFFFFFFFFFFFFFFFFFFFFFFFFFFFF AND DUP3 PUSH1 0x4 SLOAD PUSH32 0x4414CBCF3A9501DA2D1828E5CAD5023CED607FDF079A496B8C6209C7C540E2D6 DUP7 PUSH1 0x40 MLOAD PUSH2 0x9E5 SWAP2 SWAP1 PUSH2 0x18C7 JUMP JUMPDEST PUSH1 0x40 MLOAD DUP1 SWAP2 SUB SWAP1 LOG4 DUP2 PUSH1 0x6 DUP2 SWAP1 SSTORE POP DUP1 PUSH1 0x7 PUSH1 0x0 PUSH2 0x100 EXP DUP2 SLOAD DUP2 PUSH20 0xFFFFFFFFFFFFFFFFFFFFFFFFFFFFFFFFFFFFFFFF MUL NOT AND SWAP1 DUP4 PUSH20 0xFFFFFFFFFFFFFFFFFFFFFFFFFFFFFFFFFFFFFFFF AND MUL OR SWAP1 SSTORE POP POP POP POP JUMP JUMPDEST PUSH1 0x0 DUP1 PUSH1 0x0 SWAP1 SLOAD SWAP1 PUSH2 0x100 EXP SWAP1 DIV PUSH20 0xFFFFFFFFFFFFFFFFFFFFFFFFFFFFFFFFFFFFFFFF AND SWAP1 POP SWAP1 JUMP JUMPDEST PUSH1 0x0 PUSH1 0x1 SLOAD TIMESTAMP GT ISZERO PUSH2 0xA78 JUMPI PUSH1 0x1 SWAP1 POP PUSH2 0xA7D JUMP JUMPDEST PUSH1 0x0 SWAP1 POP JUMPDEST SWAP1 JUMP JUMPDEST PUSH2 0xA88 PUSH2 0xA3A JUMP JUMPDEST PUSH20 0xFFFFFFFFFFFFFFFFFFFFFFFFFFFFFFFFFFFFFFFF AND CALLER PUSH20 0xFFFFFFFFFFFFFFFFFFFFFFFFFFFFFFFFFFFFFFFF AND EQ ISZERO PUSH2 0xAF6 JUMPI PUSH1 0x40 MLOAD PUSH32 0x8C379A000000000000000000000000000000000000000000000000000000000 DUP2 MSTORE PUSH1 0x4 ADD PUSH2 0xAED SWAP1 PUSH2 0x1935 JUMP JUMPDEST PUSH1 0x40 MLOAD DUP1 SWAP2 SUB SWAP1 REVERT JUMPDEST PUSH2 0xAFE PUSH2 0xA63 JUMP JUMPDEST ISZERO PUSH2 0xB3E JUMPI PUSH1 0x40 MLOAD PUSH32 0x8C379A000000000000000000000000000000000000000000000000000000000 DUP2 MSTORE PUSH1 0x4 ADD PUSH2 0xB35 SWAP1 PUSH2 0x19C7 JUMP JUMPDEST PUSH1 0x40 MLOAD DUP1 SWAP2 SUB SWAP1 REVERT JUMPDEST CALLVALUE PUSH1 0x2 SLOAD GT ISZERO PUSH2 0xB83 JUMPI PUSH1 0x40 MLOAD PUSH32 0x8C379A000000000000000000000000000000000000000000000000000000000 DUP2 MSTORE PUSH1 0x4 ADD PUSH2 0xB7A SWAP1 PUSH2 0x1A59 JUMP JUMPDEST PUSH1 0x40 MLOAD DUP1 SWAP2 SUB SWAP1 REVERT JUMPDEST PUSH32 0x88A5966D370B9919B20F3E2C13FF65706F196A4E32CC2C12BF57088F88525874 CALLER CALLVALUE PUSH1 0x40 MLOAD PUSH2 0xBB4 SWAP3 SWAP2 SWAP1 PUSH2 0x1A79 JUMP JUMPDEST PUSH1 0x40 MLOAD DUP1 SWAP2 SUB SWAP1 LOG1 CALLVALUE PUSH1 0xB PUSH1 0x0 CALLER PUSH20 0xFFFFFFFFFFFFFFFFFFFFFFFFFFFFFFFFFFFFFFFF AND PUSH20 0xFFFFFFFFFFFFFFFFFFFFFFFFFFFFFFFFFFFFFFFF AND DUP2 MSTORE PUSH1 0x20 ADD SWAP1 DUP2 MSTORE PUSH1 0x20 ADD PUSH1 0x0 KECCAK256 PUSH1 0x0 DUP3 DUP3 SLOAD PUSH2 0xC0B SWAP2 SWAP1 PUSH2 0x14FA JUMP JUMPDEST SWAP3 POP POP DUP2 SWAP1 SSTORE POP PUSH1 0x1 PUSH1 0x8 PUSH1 0x0 DUP3 DUP3 SLOAD PUSH2 0xC25 SWAP2 SWAP1 PUSH2 0x14FA JUMP JUMPDEST SWAP3 POP POP DUP2 SWAP1 SSTORE POP JUMP JUMPDEST PUSH1 0x0 DUP2 PUSH20 0xFFFFFFFFFFFFFFFFFFFFFFFFFFFFFFFFFFFFFFFF AND BALANCE SWAP1 POP SWAP2 SWAP1 POP JUMP JUMPDEST PUSH2 0xC57 PUSH2 0xCD3 JUMP JUMPDEST PUSH1 0x0 PUSH20 0xFFFFFFFFFFFFFFFFFFFFFFFFFFFFFFFFFFFFFFFF AND DUP2 PUSH20 0xFFFFFFFFFFFFFFFFFFFFFFFFFFFFFFFFFFFFFFFF AND EQ ISZERO PUSH2 0xCC7 JUMPI PUSH1 0x40 MLOAD PUSH32 0x8C379A000000000000000000000000000000000000000000000000000000000 DUP2 MSTORE PUSH1 0x4 ADD PUSH2 0xCBE SWAP1 PUSH2 0x1B14 JUMP JUMPDEST PUSH1 0x40 MLOAD DUP1 SWAP2 SUB SWAP1 REVERT JUMPDEST PUSH2 0xCD0 DUP2 PUSH2 0xDDE JUMP JUMPDEST POP JUMP JUMPDEST PUSH2 0xCDB PUSH2 0xEA2 JUMP JUMPDEST PUSH20 0xFFFFFFFFFFFFFFFFFFFFFFFFFFFFFFFFFFFFFFFF AND PUSH2 0xCF9 PUSH2 0xA3A JUMP JUMPDEST PUSH20 0xFFFFFFFFFFFFFFFFFFFFFFFFFFFFFFFFFFFFFFFF AND EQ PUSH2 0xD4F JUMPI PUSH1 0x40 MLOAD PUSH32 0x8C379A000000000000000000000000000000000000000000000000000000000 DUP2 MSTORE PUSH1 0x4 ADD PUSH2 0xD46 SWAP1 PUSH2 0x1B80 JUMP JUMPDEST PUSH1 0x40 MLOAD DUP1 SWAP2 SUB SWAP1 REVERT JUMPDEST JUMP JUMPDEST PUSH1 0x1 ISZERO ISZERO PUSH1 0x5 PUSH1 0x0 SWAP1 SLOAD SWAP1 PUSH2 0x100 EXP SWAP1 DIV PUSH1 0xFF AND ISZERO ISZERO EQ PUSH2 0xDA7 JUMPI PUSH1 0x40 MLOAD PUSH32 0x8C379A000000000000000000000000000000000000000000000000000000000 DUP2 MSTORE PUSH1 0x4 ADD PUSH2 0xD9E SWAP1 PUSH2 0x1BEC JUMP JUMPDEST PUSH1 0x40 MLOAD DUP1 SWAP2 SUB SWAP1 REVERT JUMPDEST PUSH1 0x0 PUSH1 0x5 PUSH1 0x0 PUSH2 0x100 EXP DUP2 SLOAD DUP2 PUSH1 0xFF MUL NOT AND SWAP1 DUP4 ISZERO ISZERO MUL OR SWAP1 SSTORE POP PUSH1 0x1 PUSH1 0x4 PUSH1 0x0 DUP3 DUP3 SLOAD PUSH2 0xDD5 SWAP2 SWAP1 PUSH2 0x14FA JUMP JUMPDEST SWAP3 POP POP DUP2 SWAP1 SSTORE POP JUMP JUMPDEST PUSH1 0x0 DUP1 PUSH1 0x0 SWAP1 SLOAD SWAP1 PUSH2 0x100 EXP SWAP1 DIV PUSH20 0xFFFFFFFFFFFFFFFFFFFFFFFFFFFFFFFFFFFFFFFF AND SWAP1 POP DUP2 PUSH1 0x0 DUP1 PUSH2 0x100 EXP DUP2 SLOAD DUP2 PUSH20 0xFFFFFFFFFFFFFFFFFFFFFFFFFFFFFFFFFFFFFFFF MUL NOT AND SWAP1 DUP4 PUSH20 0xFFFFFFFFFFFFFFFFFFFFFFFFFFFFFFFFFFFFFFFF AND MUL OR SWAP1 SSTORE POP DUP2 PUSH20 0xFFFFFFFFFFFFFFFFFFFFFFFFFFFFFFFFFFFFFFFF AND DUP2 PUSH20 0xFFFFFFFFFFFFFFFFFFFFFFFFFFFFFFFFFFFFFFFF AND PUSH32 0x8BE0079C531659141344CD1FD0A4F28419497F9722A3DAAFE3B4186F6B6457E0 PUSH1 0x40 MLOAD PUSH1 0x40 MLOAD DUP1 SWAP2 SUB SWAP1 LOG3 POP POP JUMP JUMPDEST PUSH1 0x0 CALLER SWAP1 POP SWAP1 JUMP JUMPDEST PUSH1 0x0 DUP2 SWAP1 POP SWAP2 SWAP1 POP JUMP JUMPDEST PUSH2 0xEBD DUP2 PUSH2 0xEAA JUMP JUMPDEST DUP3 MSTORE POP POP JUMP JUMPDEST PUSH1 0x0 PUSH1 0x20 DUP3 ADD SWAP1 POP PUSH2 0xED8 PUSH1 0x0 DUP4 ADD DUP5 PUSH2 0xEB4 JUMP JUMPDEST SWAP3 SWAP2 POP POP JUMP JUMPDEST PUSH1 0x0 PUSH1 0x40 MLOAD SWAP1 POP SWAP1 JUMP JUMPDEST PUSH1 0x0 DUP1 REVERT JUMPDEST PUSH1 0x0 DUP1 REVERT JUMPDEST PUSH1 0x0 PUSH20 0xFFFFFFFFFFFFFFFFFFFFFFFFFFFFFFFFFFFFFFFF DUP3 AND SWAP1 POP SWAP2 SWAP1 POP JUMP JUMPDEST PUSH1 0x0 PUSH2 0xF1D DUP3 PUSH2 0xEF2 JUMP JUMPDEST SWAP1 POP SWAP2 SWAP1 POP JUMP JUMPDEST PUSH2 0xF2D DUP2 PUSH2 0xF12 JUMP JUMPDEST DUP2 EQ PUSH2 0xF38 JUMPI PUSH1 0x0 DUP1 REVERT JUMPDEST POP JUMP JUMPDEST PUSH1 0x0 DUP2 CALLDATALOAD SWAP1 POP PUSH2 0xF4A DUP2 PUSH2 0xF24 JUMP JUMPDEST SWAP3 SWAP2 POP POP JUMP JUMPDEST PUSH1 0x0 PUSH1 0x20 DUP3 DUP5 SUB SLT ISZERO PUSH2 0xF66 JUMPI PUSH2 0xF65 PUSH2 0xEE8 JUMP JUMPDEST JUMPDEST PUSH1 0x0 PUSH2 0xF74 DUP5 DUP3 DUP6 ADD PUSH2 0xF3B JUMP JUMPDEST SWAP2 POP POP SWAP3 SWAP2 POP POP JUMP JUMPDEST PUSH1 0x0 DUP2 ISZERO ISZERO SWAP1 POP SWAP2 SWAP1 POP JUMP JUMPDEST PUSH2 0xF92 DUP2 PUSH2 0xF7D JUMP JUMPDEST DUP3 MSTORE POP POP JUMP JUMPDEST PUSH1 0x0 PUSH1 0x20 DUP3 ADD SWAP1 POP PUSH2 0xFAD PUSH1 0x0 DUP4 ADD DUP5 PUSH2 0xF89 JUMP JUMPDEST SWAP3 SWAP2 POP POP JUMP JUMPDEST PUSH1 0x0 DUP1 REVERT JUMPDEST PUSH1 0x0 DUP1 REVERT JUMPDEST PUSH1 0x0 PUSH1 0x1F NOT PUSH1 0x1F DUP4 ADD AND SWAP1 POP SWAP2 SWAP1 POP JUMP JUMPDEST PUSH32 0x4E487B7100000000000000000000000000000000000000000000000000000000 PUSH1 0x0 MSTORE PUSH1 0x41 PUSH1 0x4 MSTORE PUSH1 0x24 PUSH1 0x0 REVERT JUMPDEST PUSH2 0x1006 DUP3 PUSH2 0xFBD JUMP JUMPDEST DUP2 ADD DUP2 DUP2 LT PUSH8 0xFFFFFFFFFFFFFFFF DUP3 GT OR ISZERO PUSH2 0x1025 JUMPI PUSH2 0x1024 PUSH2 0xFCE JUMP JUMPDEST JUMPDEST DUP1 PUSH1 0x40 MSTORE POP POP POP JUMP JUMPDEST PUSH1 0x0 PUSH2 0x1038 PUSH2 0xEDE JUMP JUMPDEST SWAP1 POP PUSH2 0x1044 DUP3 DUP3 PUSH2 0xFFD JUMP JUMPDEST SWAP2 SWAP1 POP JUMP JUMPDEST PUSH1 0x0 PUSH8 0xFFFFFFFFFFFFFFFF DUP3 GT ISZERO PUSH2 0x1064 JUMPI PUSH2 0x1063 PUSH2 0xFCE JUMP JUMPDEST JUMPDEST PUSH2 0x106D DUP3 PUSH2 0xFBD JUMP JUMPDEST SWAP1 POP PUSH1 0x20 DUP2 ADD SWAP1 POP SWAP2 SWAP1 POP JUMP JUMPDEST DUP3 DUP2 DUP4 CALLDATACOPY PUSH1 0x0 DUP4 DUP4 ADD MSTORE POP POP POP JUMP JUMPDEST PUSH1 0x0 PUSH2 0x109C PUSH2 0x1097 DUP5 PUSH2 0x1049 JUMP JUMPDEST PUSH2 0x102E JUMP JUMPDEST SWAP1 POP DUP3 DUP2 MSTORE PUSH1 0x20 DUP2 ADD DUP5 DUP5 DUP5 ADD GT ISZERO PUSH2 0x10B8 JUMPI PUSH2 0x10B7 PUSH2 0xFB8 JUMP JUMPDEST JUMPDEST PUSH2 0x10C3 DUP5 DUP3 DUP6 PUSH2 0x107A JUMP JUMPDEST POP SWAP4 SWAP3 POP POP POP JUMP JUMPDEST PUSH1 0x0 DUP3 PUSH1 0x1F DUP4 ADD SLT PUSH2 0x10E0 JUMPI PUSH2 0x10DF PUSH2 0xFB3 JUMP JUMPDEST JUMPDEST DUP2 CALLDATALOAD PUSH2 0x10F0 DUP5 DUP3 PUSH1 0x20 DUP7 ADD PUSH2 0x1089 JUMP JUMPDEST SWAP2 POP POP SWAP3 SWAP2 POP POP JUMP JUMPDEST PUSH2 0x1102 DUP2 PUSH2 0xEAA JUMP JUMPDEST DUP2 EQ PUSH2 0x110D JUMPI PUSH1 0x0 DUP1 REVERT JUMPDEST POP JUMP JUMPDEST PUSH1 0x0 DUP2 CALLDATALOAD SWAP1 POP PUSH2 0x111F DUP2 PUSH2 0x10F9 JUMP JUMPDEST SWAP3 SWAP2 POP POP JUMP JUMPDEST PUSH1 0x0 DUP1 PUSH1 0x0 PUSH1 0x60 DUP5 DUP7 SUB SLT ISZERO PUSH2 0x113E JUMPI PUSH2 0x113D PUSH2 0xEE8 JUMP JUMPDEST JUMPDEST PUSH1 0x0 DUP5 ADD CALLDATALOAD PUSH8 0xFFFFFFFFFFFFFFFF DUP2 GT ISZERO PUSH2 0x115C JUMPI PUSH2 0x115B PUSH2 0xEED JUMP JUMPDEST JUMPDEST PUSH2 0x1168 DUP7 DUP3 DUP8 ADD PUSH2 0x10CB JUMP JUMPDEST SWAP4 POP POP PUSH1 0x20 PUSH2 0x1179 DUP7 DUP3 DUP8 ADD PUSH2 0x1110 JUMP JUMPDEST SWAP3 POP POP PUSH1 0x40 PUSH2 0x118A DUP7 DUP3 DUP8 ADD PUSH2 0xF3B JUMP JUMPDEST SWAP2 POP POP SWAP3 POP SWAP3 POP SWAP3 JUMP JUMPDEST PUSH2 0x119D DUP2 PUSH2 0xF12 JUMP JUMPDEST DUP3 MSTORE POP POP JUMP JUMPDEST PUSH1 0x0 PUSH1 0x20 DUP3 ADD SWAP1 POP PUSH2 0x11B8 PUSH1 0x0 DUP4 ADD DUP5 PUSH2 0x1194 JUMP JUMPDEST SWAP3 SWAP2 POP POP JUMP JUMPDEST PUSH1 0x0 DUP3 DUP3 MSTORE PUSH1 0x20 DUP3 ADD SWAP1 POP SWAP3 SWAP2 POP POP JUMP JUMPDEST PUSH32 0x646561646C696E6520686173206E6F7420706173736564000000000000000000 PUSH1 0x0 DUP3 ADD MSTORE POP JUMP JUMPDEST PUSH1 0x0 PUSH2 0x1205 PUSH1 0x17 DUP4 PUSH2 0x11BE JUMP JUMPDEST SWAP2 POP PUSH2 0x1210 DUP3 PUSH2 0x11CF JUMP JUMPDEST PUSH1 0x20 DUP3 ADD SWAP1 POP SWAP2 SWAP1 POP JUMP JUMPDEST PUSH1 0x0 PUSH1 0x20 DUP3 ADD SWAP1 POP DUP2 DUP2 SUB PUSH1 0x0 DUP4 ADD MSTORE PUSH2 0x1234 DUP2 PUSH2 0x11F8 JUMP JUMPDEST SWAP1 POP SWAP2 SWAP1 POP JUMP JUMPDEST PUSH32 0x4E487B7100000000000000000000000000000000000000000000000000000000 PUSH1 0x0 MSTORE PUSH1 0x11 PUSH1 0x4 MSTORE PUSH1 0x24 PUSH1 0x0 REVERT JUMPDEST PUSH1 0x0 PUSH2 0x1275 DUP3 PUSH2 0xEAA JUMP JUMPDEST SWAP2 POP PUSH2 0x1280 DUP4 PUSH2 0xEAA JUMP JUMPDEST SWAP3 POP DUP2 PUSH32 0xFFFFFFFFFFFFFFFFFFFFFFFFFFFFFFFFFFFFFFFFFFFFFFFFFFFFFFFFFFFFFFFF DIV DUP4 GT DUP3 ISZERO ISZERO AND ISZERO PUSH2 0x12B9 JUMPI PUSH2 0x12B8 PUSH2 0x123B JUMP JUMPDEST JUMPDEST DUP3 DUP3 MUL SWAP1 POP SWAP3 SWAP2 POP POP JUMP JUMPDEST PUSH32 0x4E487B7100000000000000000000000000000000000000000000000000000000 PUSH1 0x0 MSTORE PUSH1 0x12 PUSH1 0x4 MSTORE PUSH1 0x24 PUSH1 0x0 REVERT JUMPDEST PUSH1 0x0 PUSH2 0x12FE DUP3 PUSH2 0xEAA JUMP JUMPDEST SWAP2 POP PUSH2 0x1309 DUP4 PUSH2 0xEAA JUMP JUMPDEST SWAP3 POP DUP3 PUSH2 0x1319 JUMPI PUSH2 0x1318 PUSH2 0x12C4 JUMP JUMPDEST JUMPDEST DUP3 DUP3 DIV SWAP1 POP SWAP3 SWAP2 POP POP JUMP JUMPDEST PUSH32 0x706F6C6C20686173206E6F742073746172746564000000000000000000000000 PUSH1 0x0 DUP3 ADD MSTORE POP JUMP JUMPDEST PUSH1 0x0 PUSH2 0x135A PUSH1 0x14 DUP4 PUSH2 0x11BE JUMP JUMPDEST SWAP2 POP PUSH2 0x1365 DUP3 PUSH2 0x1324 JUMP JUMPDEST PUSH1 0x20 DUP3 ADD SWAP1 POP SWAP2 SWAP1 POP JUMP JUMPDEST PUSH1 0x0 PUSH1 0x20 DUP3 ADD SWAP1 POP DUP2 DUP2 SUB PUSH1 0x0 DUP4 ADD MSTORE PUSH2 0x1389 DUP2 PUSH2 0x134D JUMP JUMPDEST SWAP1 POP SWAP2 SWAP1 POP JUMP JUMPDEST PUSH32 0x746865206D616E616765722063616E6E6F7420766F7465000000000000000000 PUSH1 0x0 DUP3 ADD MSTORE POP JUMP JUMPDEST PUSH1 0x0 PUSH2 0x13C6 PUSH1 0x17 DUP4 PUSH2 0x11BE JUMP JUMPDEST SWAP2 POP PUSH2 0x13D1 DUP3 PUSH2 0x1390 JUMP JUMPDEST PUSH1 0x20 DUP3 ADD SWAP1 POP SWAP2 SWAP1 POP JUMP JUMPDEST PUSH1 0x0 PUSH1 0x20 DUP3 ADD SWAP1 POP DUP2 DUP2 SUB PUSH1 0x0 DUP4 ADD MSTORE PUSH2 0x13F5 DUP2 PUSH2 0x13B9 JUMP JUMPDEST SWAP1 POP SWAP2 SWAP1 POP JUMP JUMPDEST PUSH32 0x796F752068617665206E6F7420636F6E747269627574656420616E797468696E PUSH1 0x0 DUP3 ADD MSTORE PUSH32 0x672C206E6F7420656C696769626C6520746F20766F7465000000000000000000 PUSH1 0x20 DUP3 ADD MSTORE POP JUMP JUMPDEST PUSH1 0x0 PUSH2 0x1458 PUSH1 0x37 DUP4 PUSH2 0x11BE JUMP JUMPDEST SWAP2 POP PUSH2 0x1463 DUP3 PUSH2 0x13FC JUMP JUMPDEST PUSH1 0x40 DUP3 ADD SWAP1 POP SWAP2 SWAP1 POP JUMP JUMPDEST PUSH1 0x0 PUSH1 0x20 DUP3 ADD SWAP1 POP DUP2 DUP2 SUB PUSH1 0x0 DUP4 ADD MSTORE PUSH2 0x1487 DUP2 PUSH2 0x144B JUMP JUMPDEST SWAP1 POP SWAP2 SWAP1 POP JUMP JUMPDEST PUSH32 0x796F75206861766520616C726561647920766F74656400000000000000000000 PUSH1 0x0 DUP3 ADD MSTORE POP JUMP JUMPDEST PUSH1 0x0 PUSH2 0x14C4 PUSH1 0x16 DUP4 PUSH2 0x11BE JUMP JUMPDEST SWAP2 POP PUSH2 0x14CF DUP3 PUSH2 0x148E JUMP JUMPDEST PUSH1 0x20 DUP3 ADD SWAP1 POP SWAP2 SWAP1 POP JUMP JUMPDEST PUSH1 0x0 PUSH1 0x20 DUP3 ADD SWAP1 POP DUP2 DUP2 SUB PUSH1 0x0 DUP4 ADD MSTORE PUSH2 0x14F3 DUP2 PUSH2 0x14B7 JUMP JUMPDEST SWAP1 POP SWAP2 SWAP1 POP JUMP JUMPDEST PUSH1 0x0 PUSH2 0x1505 DUP3 PUSH2 0xEAA JUMP JUMPDEST SWAP2 POP PUSH2 0x1510 DUP4 PUSH2 0xEAA JUMP JUMPDEST SWAP3 POP DUP3 PUSH32 0xFFFFFFFFFFFFFFFFFFFFFFFFFFFFFFFFFFFFFFFFFFFFFFFFFFFFFFFFFFFFFFFF SUB DUP3 GT ISZERO PUSH2 0x1545 JUMPI PUSH2 0x1544 PUSH2 0x123B JUMP JUMPDEST JUMPDEST DUP3 DUP3 ADD SWAP1 POP SWAP3 SWAP2 POP POP JUMP JUMPDEST PUSH32 0x646561646C696E6520686173206E6F74207061737365642C20636F6E74726962 PUSH1 0x0 DUP3 ADD MSTORE PUSH32 0x7574696F6E732063616E6E6F74206265207265636F7665726564207269676874 PUSH1 0x20 DUP3 ADD MSTORE PUSH32 0x6E6F770000000000000000000000000000000000000000000000000000000000 PUSH1 0x40 DUP3 ADD MSTORE POP JUMP JUMPDEST PUSH1 0x0 PUSH2 0x15D2 PUSH1 0x43 DUP4 PUSH2 0x11BE JUMP JUMPDEST SWAP2 POP PUSH2 0x15DD DUP3 PUSH2 0x1550 JUMP JUMPDEST PUSH1 0x60 DUP3 ADD SWAP1 POP SWAP2 SWAP1 POP JUMP JUMPDEST PUSH1 0x0 PUSH1 0x20 DUP3 ADD SWAP1 POP DUP2 DUP2 SUB PUSH1 0x0 DUP4 ADD MSTORE PUSH2 0x1601 DUP2 PUSH2 0x15C5 JUMP JUMPDEST SWAP1 POP SWAP2 SWAP1 POP JUMP JUMPDEST PUSH32 0x74617267657420686173206265656E206D65742C2063616E6E6F74207265636F PUSH1 0x0 DUP3 ADD MSTORE PUSH32 0x76657220636F6E747269627574696F6E73206E6F77206F72206D6F7265207468 PUSH1 0x20 DUP3 ADD MSTORE PUSH32 0x616E20746872656520636F6E7472696275746F72730000000000000000000000 PUSH1 0x40 DUP3 ADD MSTORE POP JUMP JUMPDEST PUSH1 0x0 PUSH2 0x168A PUSH1 0x55 DUP4 PUSH2 0x11BE JUMP JUMPDEST SWAP2 POP PUSH2 0x1695 DUP3 PUSH2 0x1608 JUMP JUMPDEST PUSH1 0x60 DUP3 ADD SWAP1 POP SWAP2 SWAP1 POP JUMP JUMPDEST PUSH1 0x0 PUSH1 0x20 DUP3 ADD SWAP1 POP DUP2 DUP2 SUB PUSH1 0x0 DUP4 ADD MSTORE PUSH2 0x16B9 DUP2 PUSH2 0x167D JUMP JUMPDEST SWAP1 POP SWAP2 SWAP1 POP JUMP JUMPDEST PUSH32 0x796F752068617665206E6F7420636F6E747269627574656420616E797468696E PUSH1 0x0 DUP3 ADD MSTORE PUSH32 0x6700000000000000000000000000000000000000000000000000000000000000 PUSH1 0x20 DUP3 ADD MSTORE POP JUMP JUMPDEST PUSH1 0x0 PUSH2 0x171C PUSH1 0x21 DUP4 PUSH2 0x11BE JUMP JUMPDEST SWAP2 POP PUSH2 0x1727 DUP3 PUSH2 0x16C0 JUMP JUMPDEST PUSH1 0x40 DUP3 ADD SWAP1 POP SWAP2 SWAP1 POP JUMP JUMPDEST PUSH1 0x0 PUSH1 0x20 DUP3 ADD SWAP1 POP DUP2 DUP2 SUB PUSH1 0x0 DUP4 ADD MSTORE PUSH2 0x174B DUP2 PUSH2 0x170F JUMP JUMPDEST SWAP1 POP SWAP2 SWAP1 POP JUMP JUMPDEST PUSH32 0x70726576696F757320706F6C6C20686173206E6F74206265656E20636C6F7365 PUSH1 0x0 DUP3 ADD MSTORE PUSH32 0x6420796574000000000000000000000000000000000000000000000000000000 PUSH1 0x20 DUP3 ADD MSTORE POP JUMP JUMPDEST PUSH1 0x0 PUSH2 0x17AE PUSH1 0x25 DUP4 PUSH2 0x11BE JUMP JUMPDEST SWAP2 POP PUSH2 0x17B9 DUP3 PUSH2 0x1752 JUMP JUMPDEST PUSH1 0x40 DUP3 ADD SWAP1 POP SWAP2 SWAP1 POP JUMP JUMPDEST PUSH1 0x0 PUSH1 0x20 DUP3 ADD SWAP1 POP DUP2 DUP2 SUB PUSH1 0x0 DUP4 ADD MSTORE PUSH2 0x17DD DUP2 PUSH2 0x17A1 JUMP JUMPDEST SWAP1 POP SWAP2 SWAP1 POP JUMP JUMPDEST PUSH32 0x696E73756666696369656E7420636F6E74726962757465727300000000000000 PUSH1 0x0 DUP3 ADD MSTORE POP JUMP JUMPDEST PUSH1 0x0 PUSH2 0x181A PUSH1 0x19 DUP4 PUSH2 0x11BE JUMP JUMPDEST SWAP2 POP PUSH2 0x1825 DUP3 PUSH2 0x17E4 JUMP JUMPDEST PUSH1 0x20 DUP3 ADD SWAP1 POP SWAP2 SWAP1 POP JUMP JUMPDEST PUSH1 0x0 PUSH1 0x20 DUP3 ADD SWAP1 POP DUP2 DUP2 SUB PUSH1 0x0 DUP4 ADD MSTORE PUSH2 0x1849 DUP2 PUSH2 0x180D JUMP JUMPDEST SWAP1 POP SWAP2 SWAP1 POP JUMP JUMPDEST PUSH1 0x0 DUP2 MLOAD SWAP1 POP SWAP2 SWAP1 POP JUMP JUMPDEST PUSH1 0x0 JUMPDEST DUP4 DUP2 LT ISZERO PUSH2 0x1879 JUMPI DUP1 DUP3 ADD MLOAD DUP2 DUP5 ADD MSTORE PUSH1 0x20 DUP2 ADD SWAP1 POP PUSH2 0x185E JUMP JUMPDEST DUP4 DUP2 GT ISZERO PUSH2 0x1888 JUMPI PUSH1 0x0 DUP5 DUP5 ADD MSTORE JUMPDEST POP POP POP POP JUMP JUMPDEST PUSH1 0x0 PUSH2 0x1899 DUP3 PUSH2 0x1850 JUMP JUMPDEST PUSH2 0x18A3 DUP2 DUP6 PUSH2 0x11BE JUMP JUMPDEST SWAP4 POP PUSH2 0x18B3 DUP2 DUP6 PUSH1 0x20 DUP7 ADD PUSH2 0x185B JUMP JUMPDEST PUSH2 0x18BC DUP2 PUSH2 0xFBD JUMP JUMPDEST DUP5 ADD SWAP2 POP POP SWAP3 SWAP2 POP POP JUMP JUMPDEST PUSH1 0x0 PUSH1 0x20 DUP3 ADD SWAP1 POP DUP2 DUP2 SUB PUSH1 0x0 DUP4 ADD MSTORE PUSH2 0x18E1 DUP2 DUP5 PUSH2 0x188E JUMP JUMPDEST SWAP1 POP SWAP3 SWAP2 POP POP JUMP JUMPDEST PUSH32 0x746865206D616E616765722063616E6E6F7420636F6E74726962757465000000 PUSH1 0x0 DUP3 ADD MSTORE POP JUMP JUMPDEST PUSH1 0x0 PUSH2 0x191F PUSH1 0x1D DUP4 PUSH2 0x11BE JUMP JUMPDEST SWAP2 POP PUSH2 0x192A DUP3 PUSH2 0x18E9 JUMP JUMPDEST PUSH1 0x20 DUP3 ADD SWAP1 POP SWAP2 SWAP1 POP JUMP JUMPDEST PUSH1 0x0 PUSH1 0x20 DUP3 ADD SWAP1 POP DUP2 DUP2 SUB PUSH1 0x0 DUP4 ADD MSTORE PUSH2 0x194E DUP2 PUSH2 0x1912 JUMP JUMPDEST SWAP1 POP SWAP2 SWAP1 POP JUMP JUMPDEST PUSH32 0x646561646C696E6520686173207061737365642C20636F6E747269627574696F PUSH1 0x0 DUP3 ADD MSTORE PUSH32 0x6E732061726520636C6F73656400000000000000000000000000000000000000 PUSH1 0x20 DUP3 ADD MSTORE POP JUMP JUMPDEST PUSH1 0x0 PUSH2 0x19B1 PUSH1 0x2D DUP4 PUSH2 0x11BE JUMP JUMPDEST SWAP2 POP PUSH2 0x19BC DUP3 PUSH2 0x1955 JUMP JUMPDEST PUSH1 0x40 DUP3 ADD SWAP1 POP SWAP2 SWAP1 POP JUMP JUMPDEST PUSH1 0x0 PUSH1 0x20 DUP3 ADD SWAP1 POP DUP2 DUP2 SUB PUSH1 0x0 DUP4 ADD MSTORE PUSH2 0x19E0 DUP2 PUSH2 0x19A4 JUMP JUMPDEST SWAP1 POP SWAP2 SWAP1 POP JUMP JUMPDEST PUSH32 0x636F6E747269627574696F6E206C6F776572207468616E206D696E696D756D20 PUSH1 0x0 DUP3 ADD MSTORE PUSH32 0x636F6E747269627574696F6E0000000000000000000000000000000000000000 PUSH1 0x20 DUP3 ADD MSTORE POP JUMP JUMPDEST PUSH1 0x0 PUSH2 0x1A43 PUSH1 0x2C DUP4 PUSH2 0x11BE JUMP JUMPDEST SWAP2 POP PUSH2 0x1A4E DUP3 PUSH2 0x19E7 JUMP JUMPDEST PUSH1 0x40 DUP3 ADD SWAP1 POP SWAP2 SWAP1 POP JUMP JUMPDEST PUSH1 0x0 PUSH1 0x20 DUP3 ADD SWAP1 POP DUP2 DUP2 SUB PUSH1 0x0 DUP4 ADD MSTORE PUSH2 0x1A72 DUP2 PUSH2 0x1A36 JUMP JUMPDEST SWAP1 POP SWAP2 SWAP1 POP JUMP JUMPDEST PUSH1 0x0 PUSH1 0x40 DUP3 ADD SWAP1 POP PUSH2 0x1A8E PUSH1 0x0 DUP4 ADD DUP6 PUSH2 0x1194 JUMP JUMPDEST PUSH2 0x1A9B PUSH1 0x20 DUP4 ADD DUP5 PUSH2 0xEB4 JUMP JUMPDEST SWAP4 SWAP3 POP POP POP JUMP JUMPDEST PUSH32 0x4F776E61626C653A206E6577206F776E657220697320746865207A65726F2061 PUSH1 0x0 DUP3 ADD MSTORE PUSH32 0x6464726573730000000000000000000000000000000000000000000000000000 PUSH1 0x20 DUP3 ADD MSTORE POP JUMP JUMPDEST PUSH1 0x0 PUSH2 0x1AFE PUSH1 0x26 DUP4 PUSH2 0x11BE JUMP JUMPDEST SWAP2 POP PUSH2 0x1B09 DUP3 PUSH2 0x1AA2 JUMP JUMPDEST PUSH1 0x40 DUP3 ADD SWAP1 POP SWAP2 SWAP1 POP JUMP JUMPDEST PUSH1 0x0 PUSH1 0x20 DUP3 ADD SWAP1 POP DUP2 DUP2 SUB PUSH1 0x0 DUP4 ADD MSTORE PUSH2 0x1B2D DUP2 PUSH2 0x1AF1 JUMP JUMPDEST SWAP1 POP SWAP2 SWAP1 POP JUMP JUMPDEST PUSH32 0x4F776E61626C653A2063616C6C6572206973206E6F7420746865206F776E6572 PUSH1 0x0 DUP3 ADD MSTORE POP JUMP JUMPDEST PUSH1 0x0 PUSH2 0x1B6A PUSH1 0x20 DUP4 PUSH2 0x11BE JUMP JUMPDEST SWAP2 POP PUSH2 0x1B75 DUP3 PUSH2 0x1B34 JUMP JUMPDEST PUSH1 0x20 DUP3 ADD SWAP1 POP SWAP2 SWAP1 POP JUMP JUMPDEST PUSH1 0x0 PUSH1 0x20 DUP3 ADD SWAP1 POP DUP2 DUP2 SUB PUSH1 0x0 DUP4 ADD MSTORE PUSH2 0x1B99 DUP2 PUSH2 0x1B5D JUMP JUMPDEST SWAP1 POP SWAP2 SWAP1 POP JUMP JUMPDEST PUSH32 0x6E657720706F6C6C20686173206E6F74206265656E2073746172746564000000 PUSH1 0x0 DUP3 ADD MSTORE POP JUMP JUMPDEST PUSH1 0x0 PUSH2 0x1BD6 PUSH1 0x1D DUP4 PUSH2 0x11BE JUMP JUMPDEST SWAP2 POP PUSH2 0x1BE1 DUP3 PUSH2 0x1BA0 JUMP JUMPDEST PUSH1 0x20 DUP3 ADD SWAP1 POP SWAP2 SWAP1 POP JUMP JUMPDEST PUSH1 0x0 PUSH1 0x20 DUP3 ADD SWAP1 POP DUP2 DUP2 SUB PUSH1 0x0 DUP4 ADD MSTORE PUSH2 0x1C05 DUP2 PUSH2 0x1BC9 JUMP JUMPDEST SWAP1 POP SWAP2 SWAP1 POP JUMP INVALID LOG2 PUSH5 0x6970667358 0x22 SLT KECCAK256 0x49 0xC3 0xCD DELEGATECALL CODESIZE LOG0 0xF7 BALANCE 0x4A 0xBE DUP2 0x4B PUSH20 0x4E6630B28AD6DF00811018C1803B72ABBBDD8864 PUSH20 0x6F6C634300080900330000000000000000000000 "
        },
        "methodIdentifiers": {
          "balance(address)": "e3d670d7",
          "contribute()": "d7bb99ba",
          "hasDeadlinePassed()": "96e3f4c5",
          "numberOfContributers()": "20dd3de7",
          "numberOfYesses()": "03eb9d3d",
          "openPoll(string,uint256,address)": "8a31bbad",
          "owner()": "8da5cb5b",
          "recoverContribution()": "795cd1af",
          "renounceOwnership()": "715018a6",
          "seeContribution(address)": "12409e5a",
          "transferOwnership(address)": "f2fde38b",
          "vote()": "632a9a52",
          "withdrawAmount()": "534844a2"
        }
      }
    }
  }
}